{
  "_format": "hh-sol-artifact-1",
  "contractName": "CommunityLaunchpad",
  "sourceName": "contracts/launchpad/implement/CommunityLaunchpad.sol",
  "abi": [
    {
      "anonymous": false,
      "inputs": [
        {
          "indexed": false,
          "internalType": "address",
          "name": "previousAdmin",
          "type": "address"
        },
        {
          "indexed": false,
          "internalType": "address",
          "name": "newAdmin",
          "type": "address"
        }
      ],
      "name": "AdminChanged",
      "type": "event"
    },
    {
      "anonymous": false,
      "inputs": [
        {
          "indexed": true,
          "internalType": "address",
          "name": "beacon",
          "type": "address"
        }
      ],
      "name": "BeaconUpgraded",
      "type": "event"
    },
    {
      "anonymous": false,
      "inputs": [
        {
          "indexed": false,
          "internalType": "uint8",
          "name": "version",
          "type": "uint8"
        }
      ],
      "name": "Initialized",
      "type": "event"
    },
    {
      "anonymous": false,
      "inputs": [
        {
          "indexed": false,
          "internalType": "address",
          "name": "account",
          "type": "address"
        }
      ],
      "name": "Paused",
      "type": "event"
    },
    {
      "anonymous": false,
      "inputs": [
        {
          "indexed": false,
          "internalType": "address",
          "name": "account",
          "type": "address"
        }
      ],
      "name": "Unpaused",
      "type": "event"
    },
    {
      "anonymous": false,
      "inputs": [
        {
          "indexed": true,
          "internalType": "address",
          "name": "implementation",
          "type": "address"
        }
      ],
      "name": "Upgraded",
      "type": "event"
    },
    {
      "inputs": [],
      "name": "_DAYLY",
      "outputs": [
        {
          "internalType": "uint256",
          "name": "",
          "type": "uint256"
        }
      ],
      "stateMutability": "view",
      "type": "function"
    },
    {
      "inputs": [],
      "name": "_MONTHLY",
      "outputs": [
        {
          "internalType": "uint256",
          "name": "",
          "type": "uint256"
        }
      ],
      "stateMutability": "view",
      "type": "function"
    },
    {
      "inputs": [],
      "name": "_PREFIX_SIGNED_MESSAGE",
      "outputs": [
        {
          "internalType": "string",
          "name": "",
          "type": "string"
        }
      ],
      "stateMutability": "view",
      "type": "function"
    },
    {
      "inputs": [
        {
          "internalType": "address",
          "name": "_buyer",
          "type": "address"
        }
      ],
      "name": "buyerInformation",
      "outputs": [
        {
          "components": [
            {
              "internalType": "uint256",
              "name": "purchaseAmount",
              "type": "uint256"
            },
            {
              "internalType": "uint256",
              "name": "receiveAmount",
              "type": "uint256"
            },
            {
              "internalType": "uint256",
              "name": "refundAmount",
              "type": "uint256"
            },
            {
              "internalType": "uint256",
              "name": "vestedAmount",
              "type": "uint256"
            },
            {
              "internalType": "uint256",
              "name": "withdrawAmount",
              "type": "uint256"
            },
            {
              "internalType": "uint256",
              "name": "vestingTime",
              "type": "uint256"
            },
            {
              "internalType": "uint8",
              "name": "vestingStep",
              "type": "uint8"
            }
          ],
          "internalType": "struct LaunchpadLibrary.Buyer",
          "name": "",
          "type": "tuple"
        }
      ],
      "stateMutability": "view",
      "type": "function"
    },
    {
      "inputs": [
        {
          "internalType": "address",
          "name": "",
          "type": "address"
        }
      ],
      "name": "buyers",
      "outputs": [
        {
          "internalType": "uint256",
          "name": "purchaseAmount",
          "type": "uint256"
        },
        {
          "internalType": "uint256",
          "name": "receiveAmount",
          "type": "uint256"
        },
        {
          "internalType": "uint256",
          "name": "refundAmount",
          "type": "uint256"
        },
        {
          "internalType": "uint256",
          "name": "vestedAmount",
          "type": "uint256"
        },
        {
          "internalType": "uint256",
          "name": "withdrawAmount",
          "type": "uint256"
        },
        {
          "internalType": "uint256",
          "name": "vestingTime",
          "type": "uint256"
        },
        {
          "internalType": "uint8",
          "name": "vestingStep",
          "type": "uint8"
        }
      ],
      "stateMutability": "view",
      "type": "function"
    },
    {
      "inputs": [
        {
          "internalType": "uint256",
          "name": "_purchaseAmount",
          "type": "uint256"
        }
      ],
      "name": "calcReceiveAndRefundAmount",
      "outputs": [
        {
          "internalType": "uint256",
          "name": "",
          "type": "uint256"
        },
        {
          "internalType": "uint256",
          "name": "",
          "type": "uint256"
        }
      ],
      "stateMutability": "view",
      "type": "function"
    },
    {
      "inputs": [
        {
          "internalType": "address",
          "name": "_to",
          "type": "address"
        },
        {
          "internalType": "address",
          "name": "_token",
          "type": "address"
        },
        {
          "internalType": "uint256",
          "name": "_amount",
          "type": "uint256"
        }
      ],
      "name": "emergencyWithdrawToken",
      "outputs": [],
      "stateMutability": "nonpayable",
      "type": "function"
    },
    {
      "inputs": [
        {
          "internalType": "string",
          "name": "_projectId",
          "type": "string"
        },
        {
          "internalType": "uint256",
          "name": "_startTime",
          "type": "uint256"
        },
        {
          "internalType": "uint256",
          "name": "_endTime",
          "type": "uint256"
        },
        {
          "internalType": "address",
          "name": "_sellToken",
          "type": "address"
        },
        {
          "internalType": "address",
          "name": "_buyToken",
          "type": "address"
        },
        {
          "internalType": "uint256",
          "name": "_totalSell",
          "type": "uint256"
        },
        {
          "internalType": "uint256",
          "name": "_minBuy",
          "type": "uint256"
        },
        {
          "internalType": "uint256",
          "name": "_maxBuy",
          "type": "uint256"
        },
        {
          "internalType": "uint256",
          "name": "_softCap",
          "type": "uint256"
        },
        {
          "internalType": "uint256",
          "name": "_hardCap",
          "type": "uint256"
        },
        {
          "internalType": "uint8",
          "name": "_tgeRate",
          "type": "uint8"
        },
        {
          "internalType": "uint8",
          "name": "_cliffTime",
          "type": "uint8"
        },
        {
          "internalType": "uint8",
          "name": "_linearTime",
          "type": "uint8"
        },
        {
          "internalType": "uint8",
          "name": "_vestingDelay",
          "type": "uint8"
        },
        {
          "internalType": "address",
          "name": "_roleManagement",
          "type": "address"
        }
      ],
      "name": "initialize",
      "outputs": [],
      "stateMutability": "nonpayable",
      "type": "function"
    },
    {
      "inputs": [],
      "name": "launchpad",
      "outputs": [
        {
          "internalType": "string",
          "name": "projectId",
          "type": "string"
        },
        {
          "internalType": "enum LaunchpadLibrary.LaunchpadType",
          "name": "launchpadType",
          "type": "uint8"
        },
        {
          "internalType": "enum LaunchpadLibrary.LaunchpadStatus",
          "name": "launchpadStatus",
          "type": "uint8"
        },
        {
          "internalType": "uint256",
          "name": "startTime",
          "type": "uint256"
        },
        {
          "internalType": "uint256",
          "name": "endTime",
          "type": "uint256"
        },
        {
          "internalType": "address",
          "name": "sellToken",
          "type": "address"
        },
        {
          "internalType": "address",
          "name": "buyToken",
          "type": "address"
        },
        {
          "internalType": "uint256",
          "name": "totalSell",
          "type": "uint256"
        },
        {
          "internalType": "uint256",
          "name": "minBuy",
          "type": "uint256"
        },
        {
          "internalType": "uint256",
          "name": "maxBuy",
          "type": "uint256"
        },
        {
          "internalType": "uint256",
          "name": "softCap",
          "type": "uint256"
        },
        {
          "internalType": "uint256",
          "name": "hardCap",
          "type": "uint256"
        },
        {
          "internalType": "uint256",
          "name": "totalRaise",
          "type": "uint256"
        }
      ],
      "stateMutability": "view",
      "type": "function"
    },
    {
      "inputs": [
        {
          "internalType": "enum LaunchpadLibrary.LaunchpadStatus",
          "name": "_status",
          "type": "uint8"
        },
        {
          "internalType": "uint256",
          "name": "_startTime",
          "type": "uint256"
        },
        {
          "internalType": "uint256",
          "name": "_endTime",
          "type": "uint256"
        },
        {
          "internalType": "address",
          "name": "_sellToken",
          "type": "address"
        },
        {
          "internalType": "address",
          "name": "_buyToken",
          "type": "address"
        },
        {
          "internalType": "uint256",
          "name": "_totalSell",
          "type": "uint256"
        },
        {
          "internalType": "uint256",
          "name": "_minBuy",
          "type": "uint256"
        },
        {
          "internalType": "uint256",
          "name": "_maxBuy",
          "type": "uint256"
        },
        {
          "internalType": "uint256",
          "name": "_softCap",
          "type": "uint256"
        },
        {
          "internalType": "uint256",
          "name": "_hardCap",
          "type": "uint256"
        },
        {
          "internalType": "bool",
          "name": "_vestingEnable",
          "type": "bool"
        },
        {
          "internalType": "uint8",
          "name": "_tgeRate",
          "type": "uint8"
        },
        {
          "internalType": "uint8",
          "name": "_cliffTime",
          "type": "uint8"
        },
        {
          "internalType": "uint8",
          "name": "_linearTime",
          "type": "uint8"
        },
        {
          "internalType": "uint8",
          "name": "_vestingDelay",
          "type": "uint8"
        }
      ],
      "name": "launchpadConfig",
      "outputs": [],
      "stateMutability": "nonpayable",
      "type": "function"
    },
    {
      "inputs": [],
      "name": "launchpadInformation",
      "outputs": [
        {
          "components": [
            {
              "internalType": "string",
              "name": "projectId",
              "type": "string"
            },
            {
              "internalType": "enum LaunchpadLibrary.LaunchpadType",
              "name": "launchpadType",
              "type": "uint8"
            },
            {
              "internalType": "enum LaunchpadLibrary.LaunchpadStatus",
              "name": "launchpadStatus",
              "type": "uint8"
            },
            {
              "internalType": "uint256",
              "name": "startTime",
              "type": "uint256"
            },
            {
              "internalType": "uint256",
              "name": "endTime",
              "type": "uint256"
            },
            {
              "internalType": "address",
              "name": "sellToken",
              "type": "address"
            },
            {
              "internalType": "address",
              "name": "buyToken",
              "type": "address"
            },
            {
              "internalType": "uint256",
              "name": "totalSell",
              "type": "uint256"
            },
            {
              "internalType": "uint256",
              "name": "minBuy",
              "type": "uint256"
            },
            {
              "internalType": "uint256",
              "name": "maxBuy",
              "type": "uint256"
            },
            {
              "internalType": "uint256",
              "name": "softCap",
              "type": "uint256"
            },
            {
              "internalType": "uint256",
              "name": "hardCap",
              "type": "uint256"
            },
            {
              "internalType": "uint256",
              "name": "totalRaise",
              "type": "uint256"
            }
          ],
          "internalType": "struct LaunchpadLibrary.Launchpad",
          "name": "",
          "type": "tuple"
        },
        {
          "components": [
            {
              "internalType": "bool",
              "name": "vestingEnable",
              "type": "bool"
            },
            {
              "internalType": "uint256",
              "name": "vestingTime",
              "type": "uint256"
            },
            {
              "internalType": "uint8",
              "name": "tgeRate",
              "type": "uint8"
            },
            {
              "internalType": "uint8",
              "name": "cliffTime",
              "type": "uint8"
            },
            {
              "internalType": "uint8",
              "name": "linearTime",
              "type": "uint8"
            },
            {
              "internalType": "uint8",
              "name": "vestingDelay",
              "type": "uint8"
            }
          ],
          "internalType": "struct LaunchpadLibrary.Vesting",
          "name": "",
          "type": "tuple"
        }
      ],
      "stateMutability": "view",
      "type": "function"
    },
    {
      "inputs": [],
      "name": "pause",
      "outputs": [],
      "stateMutability": "nonpayable",
      "type": "function"
    },
    {
      "inputs": [],
      "name": "paused",
      "outputs": [
        {
          "internalType": "bool",
          "name": "",
          "type": "bool"
        }
      ],
      "stateMutability": "view",
      "type": "function"
    },
    {
      "inputs": [],
      "name": "proxiableUUID",
      "outputs": [
        {
          "internalType": "bytes32",
          "name": "",
          "type": "bytes32"
        }
      ],
      "stateMutability": "view",
      "type": "function"
    },
    {
      "inputs": [
        {
          "internalType": "bool",
          "name": "_whitelist",
          "type": "bool"
        },
        {
          "internalType": "uint256",
          "name": "_amount",
          "type": "uint256"
        },
        {
          "internalType": "uint256",
          "name": "_signTime",
          "type": "uint256"
        },
        {
          "internalType": "bytes",
          "name": "_signature",
          "type": "bytes"
        }
      ],
      "name": "purchaseToken",
      "outputs": [],
      "stateMutability": "nonpayable",
      "type": "function"
    },
    {
      "inputs": [],
      "name": "refundTax",
      "outputs": [
        {
          "internalType": "uint256",
          "name": "",
          "type": "uint256"
        }
      ],
      "stateMutability": "view",
      "type": "function"
    },
    {
      "inputs": [
        {
          "internalType": "uint256",
          "name": "_tax",
          "type": "uint256"
        }
      ],
      "name": "refundTaxConfig",
      "outputs": [],
      "stateMutability": "nonpayable",
      "type": "function"
    },
    {
      "inputs": [],
      "name": "refundToken",
      "outputs": [],
      "stateMutability": "nonpayable",
      "type": "function"
    },
    {
      "inputs": [],
      "name": "roleManagement",
      "outputs": [
        {
          "internalType": "contract RoleManagement",
          "name": "",
          "type": "address"
        }
      ],
      "stateMutability": "view",
      "type": "function"
    },
    {
      "inputs": [],
      "name": "unpause",
      "outputs": [],
      "stateMutability": "nonpayable",
      "type": "function"
    },
    {
      "inputs": [
        {
          "internalType": "address",
          "name": "newImplementation",
          "type": "address"
        }
      ],
      "name": "upgradeTo",
      "outputs": [],
      "stateMutability": "nonpayable",
      "type": "function"
    },
    {
      "inputs": [
        {
          "internalType": "address",
          "name": "newImplementation",
          "type": "address"
        },
        {
          "internalType": "bytes",
          "name": "data",
          "type": "bytes"
        }
      ],
      "name": "upgradeToAndCall",
      "outputs": [],
      "stateMutability": "payable",
      "type": "function"
    },
    {
      "inputs": [],
      "name": "vesting",
      "outputs": [
        {
          "internalType": "bool",
          "name": "vestingEnable",
          "type": "bool"
        },
        {
          "internalType": "uint256",
          "name": "vestingTime",
          "type": "uint256"
        },
        {
          "internalType": "uint8",
          "name": "tgeRate",
          "type": "uint8"
        },
        {
          "internalType": "uint8",
          "name": "cliffTime",
          "type": "uint8"
        },
        {
          "internalType": "uint8",
          "name": "linearTime",
          "type": "uint8"
        },
        {
          "internalType": "uint8",
          "name": "vestingDelay",
          "type": "uint8"
        }
      ],
      "stateMutability": "view",
      "type": "function"
    },
    {
      "inputs": [],
      "name": "vestingToken",
      "outputs": [],
      "stateMutability": "nonpayable",
      "type": "function"
    }
  ],
  "bytecode": "0x60a080604052346100365730608052600a60fb55613dfb908161003c82396080518181816118b3015281816119a401526121260152f35b600080fdfe6080604052600436101561001257600080fd5b6000803560e01c806302669b5214612b5d57806319d152fa146126c9578063277327a51461254d5780632ea0d108146124685780633659cfe6146121015780633f4ba83a146120325780634051646114611d0957806344c63eec14611cae5780634f1ef2861461196457806352d1902d146118a05780635c180ffd146114395780635c975abb146114165780635cb732be146111c857806367e70de914610c045780638456cb5914610b40578063914cbaf91461095757806397a993aa146108d8578063ab701eed14610206578063ac8c7676146101d2578063ae68d3f2146101a7578063b977ba181461017e578063f741460214610160578063f83b27c4146101435763fbf3f92b1461012557600080fd5b346101405780600319360112610140576020604051603c8152f35b80fd5b503461014057806003193601126101405760206040516107088152f35b5034610140578060031936011261014057602060fb54604051908152f35b503461014057806003193601126101405760fc546040516001600160a01b039091168152602090f35b50346101405760203660031901126101405760406101c66004356139a0565b82519182526020820152f35b50346101405780600319360112610140576102026101ee612f33565b604051918291602083526020830190612e0f565b0390f35b5034610140576101e0366003190112610140576004356001600160401b03811161066c573660238201121561066c57610249903690602481600401359101612eab565b610251612e64565b9061025a612e7a565b906101443560ff811681036108d357610271612f00565b610279612f11565b90610282612f22565b6101c435959094906001600160a01b03871687036108d35788549760ff8960081c16159889809a6108c6575b80156108af575b156108535760ff1981166001178b5589610842575b506103b360ff8b5460081c166102df816131cb565b6102e8816131cb565b6102f1816131cb565b6102fa816131cb565b60ff196097541660975561030d816131cb565b610316816131cb565b600160c95560243542106108385761032f6001916131cb565b602435604435118061082d575b8061081f575b8061080f575b806107fd575b806107eb575b806107d1575b610363906136b5565b61037360ff610109541615613700565b60ff86161580806107c6575b1561078b5750610394606460ff8a161461374c565b604051946103a186612c7c565b85526001602086015260408501613798565b602435606084015260443560808401526001600160a01b0390811660a08401521660c082015260a43560e082015260c43561010082015260e4356101208201526101043561014082015261012435610160820152610180810188905280518051906001600160401b03821161077757819061042f60fd54612c2f565b601f8111610705575b50602090601f831160011461068f578b92610684575b50508160011b916000199060031b1c19161760fd555b602081015160038110156106705760ff801960fe541691161760fe55604081015160048110156106705762ff000092916104a0610180926137a4565b606081015160ff55608081015161010090815560a082015161010180546001600160a01b039283166001600160a01b03199182161790915560c0840151610102805491909316911617905560e0820151610103558101516101045561012081015161010555610140810151610106556101608101516101075501516101085560405161052b81612c98565b88815288602082015260ff8516604082015260ff8216606082015260ff8416608082015260a060ff871691015260ff19610109541660ff8915151617610109558761010a5561ff0061010b9560ff63ff00000088549260181b1696169063ffffffff1916179160081b16179160101b16171790558273__$e1901b2f318a4d96da8f9740d515a2b820$__803b1561066c578160405180926342b281cb60e11b825281806105da600482016137c4565b03915af4801561066157610649575b505060018060a01b03166bffffffffffffffffffffffff60a01b60fc54161760fc556106125780f35b61ff001981541681557f7f26b83ff96e1f2b6a682f133852f6798a09c465da95921460cefb3847402498602060405160018152a180f35b61065290612c69565b61065d5782386105e9565b8280fd5b6040513d84823e3d90fd5b5080fd5b634e487b7160e01b89526021600452602489fd5b01519050388061044e565b925060fd8b52600080516020613d86833981519152908b935b601f19841685106106ea576001945083601f198116106106d1575b505050811b0160fd55610464565b015160001960f88460031b161c191690553880806106c3565b818101518355602094850194600190930192909101906106a8565b90915060fd8b52601f830160051c600080516020613d868339815191520160208410610762575b908392915b601f820160051c600080516020613d868339815191520181106107545750610438565b8c8155849350600101610731565b50600080516020613d8683398151915261072c565b634e487b7160e01b8a52604160045260248afd5b606460ff8a161115806107a8575b6107a3915061374c565b610394565b508015906107ba575b6107a390610799565b5060ff871615156107b1565b5060ff88161561037f565b506103636107e460443560243584613d31565b905061035a565b506001600160a01b0384161515610354565b506001600160a01b038316151561034e565b5061010435610124351015610348565b5060c43560e4351015610342565b5060a435151561033c565b61032f8c916131cb565b61ffff1916610101178a55386102ca565b60405162461bcd60e51b815260206004820152602e60248201527f496e697469616c697a61626c653a20636f6e747261637420697320616c72656160448201526d191e481a5b9a5d1a585b1a5e995960921b6064820152608490fd5b50303b1580156102b55750600160ff8216146102b5565b50600160ff8216106102ae565b600080fd5b50346101405760203660031901126101405760e0906040906001600160a01b03610900612e4e565b16815261010c602052208054906001810154906002810154600382015460048301549160ff600660058601549501541694604051968752602087015260408601526060850152608084015260a083015260c0820152f35b50346101405760208060031936011261066c57610972612e4e565b8260c060405161098181612cb3565b82815282858201528260408201528260608201528260808201528260a0820152015260018060a01b0316825261010c81526109be6040832061356e565b6040516330a2fead60e01b815260048101839052928284806109e2602482016132d5565b038173__$e1901b2f318a4d96da8f9740d515a2b820$__5af4938415610b33578194610b04575b50610a1482516139a0565b90946004811015610af057600103610ae15750815160fb546064039160648311610acd5750916064610a4b60e0969360ff95612f99565b04935b8151946060830151906080840151928660c060a0870151960151169560c0604051610a7881612cb3565b8a815283810192835260408101948552606081019586526080810196875260a081019788520196875260405198895251908801525160408701525160608601525160808501525160a0840152511660c0820152f35b634e487b7160e01b81526011600452602490fd5b60e09491509160ff9293610a4e565b634e487b7160e01b83526021600452602483fd5b610b25919450833d8511610b2c575b610b1d8183612d1f565b81019061322b565b9238610a09565b503d610b13565b50604051903d90823e3d90fd5b503461014057806003193601126101405760fc546040516317aa5fb760e11b815233600482015290602090829060249082906001600160a01b03165afa801561066157610b94918391610bd6575b50613946565b610b9c613386565b600160ff1960975416176097557f62e78cea01bee320cd4e420270b5ea74000d11b0c9f74754ebdbfc544b05a2586020604051338152a180f35b610bf7915060203d8111610bfd575b610bef8183612d1f565b810190613420565b38610b8e565b503d610be5565b50346101405760803660031901126101405760043590811580158093036108d3576001600160401b0392602490813560446064813581358981116111c457610c50903690600401612ee2565b98610c59613386565b610c616133ca565b604051956020968781019160f81b825286602182015283604182015260418152610c8a81612ce9565b519020610c95612f33565b90610cc76040805180938b610cb38184019788815193849201612dec565b8201908c820152038a810184520182612d1f565b51902097610d0a606073__$e1901b2f318a4d96da8f9740d515a2b820$__9c8d8b8b6040519586948593849363a7bb580360e01b85526004850152830190612e0f565b03915af480156111b9578b908c928d9161116b575b5060ff906040519c8d5216898c015260408b015260608a0152898052868a608060019b8c5afa1561116057895160fc54604051637df73e2760e01b81526001600160a01b039283166004820152919490899083908c90829089165afa9182156110c0578c92611141575b5081611136575b8161110d575b50156110cb578a90610dcf888a60408e33815261010c8452209460405180809581946330a2fead60e01b835286600484015282016132d5565b03915af49081156110c0578c916110a3575b506004811015611090578a0361104e5761100c576101029183835416825488610e0a8183613379565b6101045411159182610ff5575b505080610fdc575b15610f9a576040516323b872dd60e01b8a820152338b82015230888201528681018990528681529160a0830190811183821017610f8557604052610e639190613438565b610e6e868254613379565b9055610108610e7e868254613379565b9055541691883b15610f8157604051956308438e8560e41b875260a0600488015260009560fd5490610eaf82612c2f565b918260a48b01528a81169081600014610f5c5750600114610f17575b5050948694899a94869485948c809c9d9a8701523390860152840152608483015203915af4801561066157610f03575b505060c95580f35b610f0c90612c69565b61066c578138610efb565b60fd6000908152929750600080516020613d868339815191525b828410610f4857505050860160c401948489610ecb565b8054848b0160c40152928101928a01610f31565b60ff191660c4808c019190915292151560051b8a0190920197508691508a9050610ecb565b8780fd5b8a634e487b7160e01b60005260416004526000fd5b60405162461bcd60e51b8152600481018a9052601f818c01527f4572726f723a20696e76616c696420707572636861736520616d6f756e742e00818901528690fd5b50610fea6101085489613379565b610107541015610e1f565b610fff9250613379565b6101055410158838610e17565b60405162461bcd60e51b815260048101889052601c818a01527f4572726f723a20796f75206172656e27742077686974656c6973742e00000000818701528490fd5b60405162461bcd60e51b815260048101899052601e818b01527f4572726f723a206c61756e63687061642069736e2774206163746976652e0000818801528590fd5b634e487b7160e01b8c526021600452898cfd5b6110ba9150893d8b11610b2c57610b1d8183612d1f565b38610de1565b6040513d8e823e3d90fd5b60405162461bcd60e51b8152600481018890526019818a01527f4572726f723a20696e76616c6964207369676e61747572652e00000000000000818701528490fd5b9050603c81018091116111235742111538610d96565b634e487b7160e01b8b526011600452888bfd5b428111159150610d90565b611159919250893d8b11610bfd57610bef8183612d1f565b9038610d89565b6040513d8b823e3d90fd5b925050506060813d82116111b1575b8161118760609383612d1f565b810103126111ad5780519060ff6111a460408b8401519301613992565b92919290610d1f565b8a80fd5b3d915061117a565b6040513d8d823e3d90fd5b8880fd5b50346101405780600319360112610140576111e1613386565b6111e96133ca565b33815260209061010c82526040812073__$e1901b2f318a4d96da8f9740d515a2b820$__906040516330a2fead60e01b8152846004820152848180611230602482016132d5565b0381865af490811561140b5784916113ee575b5060048110156113da578061125b6001921515613518565b14801561138f5783825492555b8361010883815481811060001461137d575050555b156113785760fb5460640390606482116113645760649161129d91612f99565b045b801561131f5782935060018060a01b036101026112c08333848454166135f3565b541690823b1561131a5760405163083d89bd60e01b81529284928492839182916112ee9133600485016135c1565b03915af4801561066157611306575b50600160c95580f35b61130f90612c69565b6101405780386112fd565b505050fd5b60405162461bcd60e51b815260048101859052601d60248201527f4572726f723a20726566756e6420616d6f756e74206973207a65726f2e0000006044820152606490fd5b634e487b7160e01b84526011600452602484fd5b61129f565b611388929350613631565b905561127d565b6005820154156113c0575b6004600283015492016113b96113b282548095613631565b8094613379565b9055611268565b6113ca82546139a0565b906001840155600283015561139a565b634e487b7160e01b84526021600452602484fd5b6114059150853d8711610b2c57610b1d8183612d1f565b38611243565b6040513d86823e3d90fd5b5034610140578060031936011261014057602060ff609754166040519015158152f35b5034610140576101e0366003190112610140576004803510156101405761145e612e64565b611466612e7a565b9061014435151561014435036108d35761147e612f00565b90611487612f11565b92611490612f22565b9160ff6101c435166101c435036108d35760fc54604051630935e01b60e21b81523360048201526001600160a01b0390911690602081602481855afa908115611895578891611876575b508015611821575b6114ec915061365e565b60ff60fe5416600381101561177857156117d257611521610124356101043560e43560c43560a4358787604435602435613b4a565b806117b6575b611530906136b5565b61154060ff610109541615613700565b61014435611718575b60ff851615808061170d575b156116d2575061156a606460ff86161461374c565b6115756004356137a4565b60243560ff55604435610100556bffffffffffffffffffffffff60a01b906101019060018060a01b0316828254161790556101029160018060a01b03169082541617905560a4356101035560c4356101045560e435610105556101043561010655610124356101075560ff19610109541660ff61014435151516176101095561014435611692575b62ff000061010b9361ff00855460ff63ff0000006101c43560181b1696169063ffffffff1916179160081b16179160101b16171790558073__$e1901b2f318a4d96da8f9740d515a2b820$__803b1561168f578160405180926342b281cb60e11b8252818061166e600482016137c4565b03915af480156106615761167f5750f35b61168890612c69565b6101405780f35b50fd5b603c60ff6101c435168181029181830414901517156116be576116b59042613379565b61010a556115fd565b634e487b7160e01b85526011600452602485fd5b606460ff86161115806116ef575b6116ea915061374c565b61156a565b50801590611701575b6116ea906116e0565b5060ff831615156116f8565b5060ff841615611555565b6040516330a2fead60e01b8152602060048201819052818061173c602482016132d5565b038173__$e1901b2f318a4d96da8f9740d515a2b820$__5af49081156117ab57879161178c575b50600481101561177857600214611549578580fd5b634e487b7160e01b87526021600452602487fd5b6117a5915060203d602011610b2c57610b1d8183612d1f565b38611763565b6040513d89823e3d90fd5b506115306117cb604435602435600435613d31565b9050611527565b60405162461bcd60e51b815260206004820152602160248201527f4572726f723a2043616e6e6f742063616c6c20746869732066756e6374696f6e6044820152601760f91b6064820152608490fd5b506020602491604051928380926317aa5fb760e11b82523360048301525afa80156117ab576114ec918891611857575b506114e2565b611870915060203d602011610bfd57610bef8183612d1f565b38611851565b61188f915060203d602011610bfd57610bef8183612d1f565b386114da565b6040513d8a823e3d90fd5b50346101405780600319360112610140577f00000000000000000000000000000000000000000000000000000000000000006001600160a01b031630036118f9576020604051600080516020613da68339815191528152f35b60405162461bcd60e51b815260206004820152603860248201527f555550535570677261646561626c653a206d757374206e6f742062652063616c60448201527f6c6564207468726f7567682064656c656761746563616c6c00000000000000006064820152608490fd5b50604036600319011261014057611979612e4e565b6024356001600160401b03811161065d57611998903690600401612ee2565b6001600160a01b0391907f000000000000000000000000000000000000000000000000000000000000000083166119d130821415612fac565b6119ee600080516020613da683398151915291858354161461300d565b60fc54604051630935e01b60e21b8152336004820152602095918216908681602481855afa9182156118955787918993611c8f575b508215611c39575b5050611a369061365e565b7f4910fdfa16fed3260ed0e7147f7cc6da11a60208b5b9406d12a635614ffd91435460ff1615611a7057505050611a6d915061306e565b80f35b83929316906040516352d1902d60e01b81528581600481865afa60009181611c0a575b50611af45760405162461bcd60e51b815260048101879052602e60248201527f45524331393637557067726164653a206e657720696d706c656d656e7461746960448201526d6f6e206973206e6f74205555505360901b6064820152608490fd5b94939403611bb357611b058261306e565b7fbc7cd75a20ee27fd9adebab32041f755214dbc6bffa90cc0225b39da2e5c2d3b600080a2825115801590611bab575b611b40575b50505080f35b600080611ba29460405194611b5486612cce565b602786527f416464726573733a206c6f772d6c6576656c2064656c65676174652063616c6c81870152660819985a5b195960ca1b604087015281519101845af4611b9c6130fe565b9161312e565b50388080611b3a565b506001611b35565b60405162461bcd60e51b815260048101849052602960248201527f45524331393637557067726164653a20756e737570706f727465642070726f786044820152681a58589b195555525160ba1b6064820152608490fd5b90918782813d8311611c32575b611c218183612d1f565b810103126101405750519038611a93565b503d611c17565b6040516317aa5fb760e11b81523360048201529250829060249082905afa80156117ab57611a36918891611c72575b5090508538611a2b565b611c899150873d8911610bfd57610bef8183612d1f565b38611c68565b611ca7919350823d8411610bfd57610bef8183612d1f565b9138611a23565b503461014057806003193601126101405760c060ff610109541660ff61010a5461010b5490604051931515845260208401528181166040840152818160081c166060840152818160101c16608084015260181c1660a0820152f35b503461014057806003193601126101405780610180604051611d2a81612c7c565b606081528260208201528260408201528260608201528260808201528260a08201528260c08201528260e08201528261010082015282610120820152826101408201528261016082015201528060a0604051611d8581612c98565b82815282602082015282604082015282606082015282608082015201526040516330a2fead60e01b81526020600482015260208180611dc6602482016132d5565b038173__$e1901b2f318a4d96da8f9740d515a2b820$__5af49182156120265791612007575b5060ff60fe541660ff546101005460018060a01b03610101541660018060a01b03610102541661010354610104549061010554926101065494610107549661010854986040519a611e3c8c612c7c565b611e44612d40565b8c526003811015611ff15760a09c611e649160208e015260408d01613798565b60608b015260808a01528989015260c088015260e087015261010086015261012085015261014084015261016083015261018082015260405190611ea782612c98565b60ff61010954161515825261010a54602083015260ff61010b548181166040850152818160081c166060850152818160101c16608085015260181c168383015260ff60405193849360e08552610180611f0e85516101a060e0890152610280880190612e0f565b94611f226020820151610100890190612e34565b611f356040820151610120890190612e41565b60608101516101408801526080810151610160880152600180851b03848201511682880152600180851b0360c0820151166101a088015260e08101516101c08801526101008101516101e0880152610120810151610200880152610140810151610220880152610160810151610240880152015161026086015280511515602086015260208101516040860152826040820151166060860152826060820151166080860152826080820151168286015201511660c08301520390f35b634e487b7160e01b600052602160045260246000fd5b612020915060203d602011610b2c57610b1d8183612d1f565b38611dec565b604051903d90823e3d90fd5b503461014057806003193601126101405760fc546040516317aa5fb760e11b815233600482015290602090829060249082906001600160a01b03165afa801561066157612085918391610bd65750613946565b60975460ff8116156120c55760ff19166097557f5db9ee0a495bf2e6ff9c91a7834c1ba4fdd244a5e8aa4e537bd38aeae4b073aa6020604051338152a180f35b60405162461bcd60e51b815260206004820152601460248201527314185d5cd8589b194e881b9bdd081c185d5cd95960621b6044820152606490fd5b50346101405760208060031936011261066c5761211c612e4e565b6001600160a01b037f000000000000000000000000000000000000000000000000000000000000000081169061215430831415612fac565b612171600080516020613da683398151915292828454161461300d565b8060fc5416604051630935e01b60e21b81523360048201528581602481855afa9182156117ab5786918893612449575b5082156123e8575b50506121b49061365e565b60405191848301918383106001600160401b038411176123d2578260405286845260ff7f4910fdfa16fed3260ed0e7147f7cc6da11a60208b5b9406d12a635614ffd9143541660001461220f5750505050611a6d915061306e565b84939416906040516352d1902d60e01b81528681600481865afa600091816123a3575b506122935760405162461bcd60e51b815260048101889052602e60248201527f45524331393637557067726164653a206e657720696d706c656d656e7461746960448201526d6f6e206973206e6f74205555505360901b6064820152608490fd5b9594950361234c576122a48361306e565b7fbc7cd75a20ee27fd9adebab32041f755214dbc6bffa90cc0225b39da2e5c2d3b600080a2835115801590612344575b6122e0575b5050505080f35b6000809161233a957f416464726573733a206c6f772d6c6576656c2064656c65676174652063616c6c6040519661231688612cce565b60278852870152660819985a5b195960ca1b60408701525190845af4611b9c6130fe565b50388080806122d9565b5060006122d4565b60405162461bcd60e51b815260048101859052602960248201527f45524331393637557067726164653a20756e737570706f727465642070726f786044820152681a58589b195555525160ba1b6064820152608490fd5b90918882813d83116123cb575b6123ba8183612d1f565b810103126101405750519038612232565b503d6123b0565b634e487b7160e01b600052604160045260246000fd5b6040516317aa5fb760e11b81523360048201529250829060249082905afa801561243e576121b4918791612421575b50905084386121a9565b6124389150863d8811610bfd57610bef8183612d1f565b38612417565b6040513d88823e3d90fd5b612461919350823d8411610bfd57610bef8183612d1f565b91386121a1565b50346101405760208060031936011261066c5760fc54604051630935e01b60e21b8152336004820152906001600160a01b03168282602481845afa91821561140b57849261252e575b5081156124cc575b836124c38361365e565b60043560fb5580f35b6040516317aa5fb760e11b815233600482015291508290829060249082905afa908115612523576124c3928492612506575b5050386124b9565b61251c9250803d10610bfd57610bef8183612d1f565b38806124fe565b6040513d85823e3d90fd5b612546919250833d8511610bfd57610bef8183612d1f565b90386124b1565b503461014057606036600319011261014057612567612e4e565b6001600160a01b0390602435908282168083036108d35760443593602460208260fc5416604051928380926317aa5fb760e11b82523360048301525afa80156117ab576125ba918891610bd65750613946565b6125c26133ca565b82161561268457849080612671575080808086855af16125e06130fe565b501561262c5783925b73__$e1901b2f318a4d96da8f9740d515a2b820$__803b15612628576112ee93859360405195869485938493630a066c1360e41b8552600485016135c1565b8480fd5b60405162461bcd60e51b815260206004820152601d60248201527f4572726f723a20746f6b656e207472616e73666572206661696c65642e0000006044820152606490fd5b848361267f929693966135f3565b6125e9565b60405162461bcd60e51b815260206004820152601760248201527f4572726f723a206164647265737320696e76616c69642e0000000000000000006044820152606490fd5b50346101405780600319360112610140576126e2613386565b6126ea6133ca565b33815260209061010c82526040812073__$e1901b2f318a4d96da8f9740d515a2b820$__90604051936330a2fead60e01b85528060048601526024948181806127348982016132d5565b0381875af4908115612b52578591612b35575b506004811015612b2257600261275d9114613518565b60ff80610109541680612b15575b15612ad157600583019283548015600014612a6b575061278b81546139a0565b90600183015560028201555b600381018054946001830154861015612a2f576127b38361356e565b9161010a54926127d561010b54946127cf888760081c16612f6c565b90613379565b96868560101c169060646128036127f46127ee85612f6c565b8c613379565b928501978a8951911690612f99565b049180612a1657508b5b60a0840180518061298f575050894210918d8360001461297c57610708905b049260018401809411612969571561292b5750505096935b61285660608251930192835190613631565b881161290e575b505061286d866006969798613379565b9055550190815490808216968188146128fc57506001869796959601169060ff191617905560018060a01b036101016128aa8333848454166135f3565b541692803b1561065d57604051632d66108160e21b8152938492839182916128d69133600485016135c1565b03915af48015610661576128ed5750600160c95580f35b6128f690612c69565b386112fd565b634e487b7160e01b8752601160045286fd5b600696975061286d916129249151905190613631565b969561285d565b809a93929a421060001461295b575061294f61295593926127cf6127cf938d612f99565b99612f6c565b93612844565b995050505083519693612844565b634e487b7160e01b8f5260116004528f8ffd5b5061070861298a8c42613631565b61282c565b919293509950804210600014612a0457506107088c5b0491600183018093116129f1578042106000146129d65750906127cf6129ce6129559383612f99565b995191612f6c565b985050506129ea8451606083015190613631565b9693612844565b634e487b7160e01b8d5260116004528d8dfd5b612a116107089142613631565b6129a5565b612a2a90612a25848951613631565b61363e565b61280d565b60405162461bcd60e51b8152600481018690526015818b01527422b93937b91d103b32b9ba34b733903237b732b21760591b6044820152606490fd5b6002836006840154161015612a81575b50612797565b4210612a8d5738612a7b565b60405162461bcd60e51b815260048101849052601a818901527f4572726f723a2063616e6e6f742076657374696e67206e6f772e0000000000006044820152606490fd5b60405162461bcd60e51b815260048101839052601c818801527f4572726f723a2076657374696e672069736e277420656e61626c652e000000006044820152606490fd5b5061010a5442101561276b565b634e487b7160e01b855260216004528585fd5b612b4c9150823d8411610b2c57610b1d8183612d1f565b38612747565b6040513d87823e3d90fd5b5034610140578060031936011261014057612b76612d40565b60fe549060ff5491610100805490600160a01b6001900390816101015416916101025416906101035490610104549061010554926101065494610107549661010854986040519c8d9c8d6101a09081815201612bd191612e0f565b9b8d612be36020820160ff8416612e34565b6040019060081c60ff1690612bf791612e41565b60608d015260808c015260a08b015260c08a015260e08901528701526101208601526101408501526101608401526101808301520390f35b90600182811c92168015612c5f575b6020831014612c4957565b634e487b7160e01b600052602260045260246000fd5b91607f1691612c3e565b6001600160401b0381116123d257604052565b6101a081019081106001600160401b038211176123d257604052565b60c081019081106001600160401b038211176123d257604052565b60e081019081106001600160401b038211176123d257604052565b606081019081106001600160401b038211176123d257604052565b608081019081106001600160401b038211176123d257604052565b604081019081106001600160401b038211176123d257604052565b90601f801991011681019081106001600160401b038211176123d257604052565b6040519060008260fd5491612d5483612c2f565b80835292600190818116908115612dca5750600114612d7d575b50612d7b92500383612d1f565b565b60fd60009081529150600080516020613d868339815191525b848310612daf5750612d7b935050810160200138612d6e565b81935090816020925483858a01015201910190918592612d96565b905060209250612d7b94915060ff191682840152151560051b82010138612d6e565b60005b838110612dff5750506000910152565b8181015183820152602001612def565b90602091612e2881518092818552858086019101612dec565b601f01601f1916010190565b906003821015611ff15752565b906004821015611ff15752565b600435906001600160a01b03821682036108d357565b606435906001600160a01b03821682036108d357565b608435906001600160a01b03821682036108d357565b6001600160401b0381116123d257601f01601f191660200190565b929192612eb782612e90565b91612ec56040519384612d1f565b8294818452818301116108d3578281602093846000960137010152565b9080601f830112156108d357816020612efd93359101612eab565b90565b610164359060ff821682036108d357565b610184359060ff821682036108d357565b6101a4359060ff821682036108d357565b60405190612f4082612d04565b601c82527f19457468657265756d205369676e6564204d6573736167653a0a3332000000006020830152565b9061070891828102928184041490151715612f8357565b634e487b7160e01b600052601160045260246000fd5b81810292918115918404141715612f8357565b15612fb357565b60405162461bcd60e51b815260206004820152602c60248201527f46756e6374696f6e206d7573742062652063616c6c6564207468726f7567682060448201526b19195b1959d85d1958d85b1b60a21b6064820152608490fd5b1561301457565b60405162461bcd60e51b815260206004820152602c60248201527f46756e6374696f6e206d7573742062652063616c6c6564207468726f7567682060448201526b6163746976652070726f787960a01b6064820152608490fd5b803b156130a357600080516020613da683398151915280546001600160a01b0319166001600160a01b03909216919091179055565b60405162461bcd60e51b815260206004820152602d60248201527f455243313936373a206e657720696d706c656d656e746174696f6e206973206e60448201526c1bdd08184818dbdb9d1c9858dd609a1b6064820152608490fd5b3d15613129573d9061310f82612e90565b9161311d6040519384612d1f565b82523d6000602084013e565b606090565b919290156131905750815115613142575090565b3b1561314b5790565b60405162461bcd60e51b815260206004820152601d60248201527f416464726573733a2063616c6c20746f206e6f6e2d636f6e74726163740000006044820152606490fd5b8251909150156131a35750805190602001fd5b60405162461bcd60e51b8152602060048201529081906131c7906024830190612e0f565b0390fd5b156131d257565b60405162461bcd60e51b815260206004820152602b60248201527f496e697469616c697a61626c653a20636f6e7472616374206973206e6f74206960448201526a6e697469616c697a696e6760a81b6064820152608490fd5b908160209103126108d3575160048110156108d35790565b60fd546000929161325382612c2f565b808252916001908181169081156132b8575060011461327157505050565b9192935060fd600052600080516020613d86833981519152916000925b8484106132a057505060209250010190565b8054602085850181019190915290930192810161328e565b915050602093945060ff929192191683830152151560051b010190565b6132e56101a08083528201613243565b9061330c60fe546132fc6020840160ff8316612e34565b60ff604084019160081c16612e41565b60ff54606082015261010080546080830152610101546001600160a01b0390811660a0840152610102541660c08301526101035460e08301526101045490820152610105546101208201526101065461014082015261010754610160820152610108546101809091015290565b91908201809211612f8357565b60ff6097541661339257565b60405162461bcd60e51b815260206004820152601060248201526f14185d5cd8589b194e881c185d5cd95960821b6044820152606490fd5b600260c954146133db57600260c955565b60405162461bcd60e51b815260206004820152601f60248201527f5265656e7472616e637947756172643a207265656e7472616e742063616c6c006044820152606490fd5b908160209103126108d3575180151581036108d35790565b604051613490916001600160a01b031661345182612d04565b6000806020958685527f5361666545524332303a206c6f772d6c6576656c2063616c6c206661696c656487860152868151910182855af1611b9c6130fe565b805190828215928315613500575b505050156134a95750565b6084906040519062461bcd60e51b82526004820152602a60248201527f5361666545524332303a204552433230206f7065726174696f6e20646964206e6044820152691bdd081cdd58d8d9595960b21b6064820152fd5b6135109350820181019101613420565b38828161349e565b1561351f57565b60405162461bcd60e51b815260206004820152602160248201527f4572726f723a206c61756e63687061642069736e277420636f6d706c657465646044820152601760f91b6064820152608490fd5b9060405161357b81612cb3565b60c060ff600683958054855260018101546020860152600281015460408601526003810154606086015260048101546080860152600581015460a0860152015416910152565b60609194939294608082526135d860808301613243565b6001600160a01b039182166020840152951660408201520152565b60405163a9059cbb60e01b60208201526001600160a01b039092166024830152604480830193909352918152612d7b9161362c82612ce9565b613438565b91908203918211612f8357565b8115613648570490565b634e487b7160e01b600052601260045260246000fd5b1561366557565b60405162461bcd60e51b815260206004820152602260248201527f4572726f723a2063616c6c65722069736e27742061646d696e206f72206f776e60448201526132b960f11b6064820152608490fd5b156136bc57565b606460405162461bcd60e51b815260206004820152602060248201527f4572726f723a20696e76616c6964206c61756e636870616420706172616d732e6044820152fd5b1561370757565b60405162461bcd60e51b815260206004820152601a60248201527f4572726f723a2076657374696e6720697320656e61626c65642e0000000000006044820152606490fd5b1561375357565b60405162461bcd60e51b815260206004820152601860248201527f4572726f723a20746765207261746520696e76616c69642e00000000000000006044820152606490fd5b6004821015611ff15752565b6004811015611ff15761ff0060fe549160081b169061ff0019161760fe55565b9060e082526101a0918260e0820152600060fd54906137e282612c2f565b9182610280850152600190818116908160001461392557506001146138db575b5060c0915060fe549461010061383260ff976138228388018a8316612e34565b8861012088019160081c16612e41565b86546101408601525461016085015260018060a01b03806101015416610180860152610102541690840152610103546101c0840152610104546101e084015261010554610200840152610106546102208401526101075461024084015261010854610260840152938061010954161515602084015261010a54604084015261010b548181166060850152818160081c166080850152818160101c1660a085015260181c16910152565b60fd6000908152929150600080516020613d868339815191525b82841061390e575050506102a060c09183010138613802565b80546102a0858701015260209093019281016138f5565b9250505060c0916102a09160ff191682850152151560051b83010138613802565b1561394d57565b60405162461bcd60e51b815260206004820152601960248201527f4572726f723a2063616c6c65722069736e2774206f776e6572000000000000006044820152606490fd5b519060ff821682036108d357565b9060018060a01b03806101015416604051809263313ce56760e01b9283835282600460209485935afa938415613b0657600094613b12575b50819061010254169260046040518095819382525afa908115613b0657600091613ace575b50613a0f915060ff1661010354612f99565b92670de0b6b3a76400009384810290808204861490151715612f8357613a4690613a4060ff61010754951685612f99565b9061363e565b610108549092600091818111613a6c5750505090613a6391612f99565b91600092049190565b60648497959402878104606414881517156113645768056bc75e2d631000009384890291808304881490151715610acd5750613ac292613ab4613ac8969593613aba9361363e565b90612f99565b049182612f99565b94613631565b92049190565b82813d8311613aff575b613ae28183612d1f565b81010312610140575060ff613af9613a0f92613992565b906139fd565b503d613ad8565b6040513d6000823e3d90fd5b90938282813d8311613b43575b613b298183612d1f565b810103126101405750613b3c8291613992565b93906139d8565b503d613b1f565b979390979694929695919560ff548114801590613d24575b8015613d0b575b8015613cf2575b8015613ce5575b8015613cd8575b8015613ccb575b8015613cbe575b8015613cb1575b15613c8a576040516330a2fead60e01b81526020600482018190528180613bbc602482016132d5565b038173__$e1901b2f318a4d96da8f9740d515a2b820$__5af4908115613b0657600091613c6c575b506004811015611ff157159889613c62575b505087613c58575b5086613c4d575b505084613c42575b505082613c2f575b5081613c1f575090565b6001600160a01b03161515919050565b6001600160a01b03161515915038613c15565b101592503880613c0d565b101594503880613c05565b1515965038613bfe565b1197503880613bf6565b613c84915060203d8111610b2c57610b1d8183612d1f565b38613be4565b9097119687613c58575086613c4d57505084613c4257505082613c2f575081613c1f575090565b5061010754851415613b93565b5061010654861415613b8c565b5061010554831415613b85565b5061010454841415613b7e565b5061010354821415613b77565b50610102546001600160a01b0389811691161415613b70565b50610101546001600160a01b0388811691161415613b69565b5061010054891415613b62565b600481101580611ff15781158015613d78575b15613d525750509050421090565b611ff157600103613d72574210159081613d6a575090565b905042111590565b50421190565b5050600060038214613d4456fe9346ac6dd7de6b96975fec380d4d994c4c12e6a8897544f22915316cc6cca280360894a13ba1a3210667c828492db98dca3e2076cc3735a920a3ca505d382bbca26469706673582212200acd5e9037551ec28aacb69767e97ecc81d07204a44b37c7fb74b4df302ffa4364736f6c63430008130033",
  "linkReferences": {
    "contracts/launchpad/lib/LaunchpadLibrary.sol": {
      "LaunchpadLibrary": [
        {
          "length": 20,
          "start": 1502
        },
        {
          "length": 20,
          "start": 2594
        },
        {
          "length": 20,
          "start": 3342
        },
        {
          "length": 20,
          "start": 4662
        },
        {
          "length": 20,
          "start": 5746
        },
        {
          "length": 20,
          "start": 6012
        },
        {
          "length": 20,
          "start": 7686
        },
        {
          "length": 20,
          "start": 9767
        },
        {
          "length": 20,
          "start": 10039
        },
        {
          "length": 20,
          "start": 15356
        }
      ]
    }
  },
  "deployedLinkReferences": {
    "contracts/launchpad/lib/LaunchpadLibrary.sol": {
      "LaunchpadLibrary": [
        {
          "length": 20,
          "start": 1442
        },
        {
          "length": 20,
          "start": 2534
        },
        {
          "length": 20,
          "start": 3282
        },
        {
          "length": 20,
          "start": 4602
        },
        {
          "length": 20,
          "start": 5686
        },
        {
          "length": 20,
          "start": 5952
        },
        {
          "length": 20,
          "start": 7626
        },
        {
          "length": 20,
          "start": 9707
        },
        {
          "length": 20,
          "start": 9979
        },
        {
          "length": 20,
          "start": 15296
        }
      ]
    }
  }
}