{
  "_format": "hh-sol-artifact-1",
  "contractName": "Faucet",
  "sourceName": "contracts/erc20/Faucet.sol",
  "abi": [
    {
      "inputs": [
        {
          "internalType": "address[]",
          "name": "_tokens",
          "type": "address[]"
        }
      ],
      "stateMutability": "nonpayable",
      "type": "constructor"
    },
    {
      "inputs": [
        {
          "internalType": "address[]",
          "name": "token",
          "type": "address[]"
        }
      ],
      "name": "addToken",
      "outputs": [],
      "stateMutability": "nonpayable",
      "type": "function"
    },
    {
      "inputs": [],
      "name": "drip",
      "outputs": [],
      "stateMutability": "nonpayable",
      "type": "function"
    },
    {
      "inputs": [
        {
          "internalType": "uint256",
          "name": "",
          "type": "uint256"
        }
      ],
      "name": "tokens",
      "outputs": [
        {
          "internalType": "contract IERC20",
          "name": "",
          "type": "address"
        }
      ],
      "stateMutability": "view",
      "type": "function"
    }
  ],
  "bytecode": "0x60806040523461015e576104df8038038061001981610163565b9283398101602090818382031261015e5782516001600160401b039384821161015e57019080601f8301121561015e57815193841161011a5760059184831b908480610066818501610163565b80988152019282010192831161015e578401905b82821061013f5750505060005b83518110156101305760018060a01b038382841b86010151166000546801000000000000000081101561011a5760018101806000558110156101045760008080528590200180546001600160a01b031916909117905560001981146100ee57600101610087565b634e487b7160e01b600052601160045260246000fd5b634e487b7160e01b600052603260045260246000fd5b634e487b7160e01b600052604160045260246000fd5b60405161035690816101898239f35b81516001600160a01b038116810361015e57815290840190840161007a565b600080fd5b6040519190601f01601f191682016001600160401b0381118382101761011a5760405256fe6080604081815260048036101561001557600080fd5b600092833560e01c9081631088116614610153575080634f64b2be1461011157639f678cca1461004457600080fd5b3461010d578260031936011261010d57825b835481101561010957610068816102b1565b9054845163a9059cbb60e01b8152338582015269d3c21bcecceda10000006024820152916020918291849160449183918b9160031b1c6001600160a01b03165af180156100ff576100c4575b50506100bf906102fb565b610056565b81813d83116100f8575b6100d88183610279565b810103126100f45751801515036100f05738806100b4565b8380fd5b8480fd5b503d6100ce565b85513d88823e3d90fd5b8380f35b8280fd5b503461010d57602036600319011261010d5735918054831015610150575061013a6020926102b1565b905491519160018060a01b039160031b1c168152f35b80fd5b82853461015057602090816003193601126101505767ffffffffffffffff908335828111610275573660238201121561027557808501359283116102625760059083821b936101a486860189610279565b875284870160248095830101913683116100f4578501905b82821061023f57505050815b865181101561023b5780821b870185015183546001600160a01b039182169068010000000000000000811015610229579061020d8260016102249695940188556102b1565b909283549160031b92831b921b19161790556102fb565b6101c8565b634e487b7160e01b8652604189528686fd5b8280f35b81356001600160a01b038116810361025e5781529086019086016101bc565b8580fd5b634e487b7160e01b825260418552602482fd5b5080fd5b90601f8019910116810190811067ffffffffffffffff82111761029b57604052565b634e487b7160e01b600052604160045260246000fd5b9060009182548110156102e7578280527f290decd9548b62a8d60345a988386fc84ba6bc95484008f6362f93160ef3e563019190565b634e487b7160e01b83526032600452602483fd5b600019811461030a5760010190565b634e487b7160e01b600052601160045260246000fdfea2646970667358221220ab9825504a8cb6cd6daca2d5644a4c7288a7d96365d2d2ca43b4e027fe67e4ce64736f6c63430008130033",
  "linkReferences": {},
  "deployedLinkReferences": {}
}