{
  "_format": "hh-sol-artifact-1",
  "contractName": "FCFSLaunchpadBeaconProxy",
  "sourceName": "contracts/launchpad/beacon/FCFSLaunchpadBeaconProxy.sol",
  "abi": [
    {
      "inputs": [
        {
          "internalType": "address",
          "name": "_beacon",
          "type": "address"
        },
        {
          "internalType": "address",
          "name": "_roleManagement",
          "type": "address"
        }
      ],
      "stateMutability": "nonpayable",
      "type": "constructor"
    },
    {
      "inputs": [],
      "name": "beacon",
      "outputs": [
        {
          "internalType": "address",
          "name": "",
          "type": "address"
        }
      ],
      "stateMutability": "view",
      "type": "function"
    },
    {
      "inputs": [
        {
          "internalType": "string",
          "name": "_projectId",
          "type": "string"
        },
        {
          "internalType": "uint256",
          "name": "_startTime",
          "type": "uint256"
        },
        {
          "internalType": "uint256",
          "name": "_endTime",
          "type": "uint256"
        },
        {
          "internalType": "address",
          "name": "_sellToken",
          "type": "address"
        },
        {
          "internalType": "address",
          "name": "_buyToken",
          "type": "address"
        },
        {
          "internalType": "uint256",
          "name": "_totalSell",
          "type": "uint256"
        },
        {
          "internalType": "uint256",
          "name": "_minBuy",
          "type": "uint256"
        },
        {
          "internalType": "uint256",
          "name": "_maxBuy",
          "type": "uint256"
        },
        {
          "internalType": "uint256",
          "name": "_softCap",
          "type": "uint256"
        },
        {
          "internalType": "uint256",
          "name": "_hardCap",
          "type": "uint256"
        },
        {
          "internalType": "uint8",
          "name": "_tgeRate",
          "type": "uint8"
        },
        {
          "internalType": "uint8",
          "name": "_cliffTime",
          "type": "uint8"
        },
        {
          "internalType": "uint8",
          "name": "_linearTime",
          "type": "uint8"
        },
        {
          "internalType": "uint8",
          "name": "_vestingDelay",
          "type": "uint8"
        }
      ],
      "name": "createLaunchpadProxy",
      "outputs": [
        {
          "internalType": "address",
          "name": "",
          "type": "address"
        }
      ],
      "stateMutability": "nonpayable",
      "type": "function"
    },
    {
      "inputs": [
        {
          "internalType": "uint256",
          "name": "_proxyId",
          "type": "uint256"
        }
      ],
      "name": "getProxyAddress",
      "outputs": [
        {
          "internalType": "address",
          "name": "",
          "type": "address"
        }
      ],
      "stateMutability": "view",
      "type": "function"
    },
    {
      "inputs": [],
      "name": "proxyId",
      "outputs": [
        {
          "internalType": "uint256",
          "name": "",
          "type": "uint256"
        }
      ],
      "stateMutability": "view",
      "type": "function"
    },
    {
      "inputs": [],
      "name": "roleManagement",
      "outputs": [
        {
          "internalType": "contract RoleManagement",
          "name": "",
          "type": "address"
        }
      ],
      "stateMutability": "view",
      "type": "function"
    }
  ],
  "bytecode": "0x60803461008d57601f610eab38819003918201601f19168301916001600160401b0383118484101761009257808492604094855283398101031261008d57610052602061004b836100a8565b92016100a8565b600180546001600160a01b039384166001600160a01b03199182161790915560028054929093169116179055604051610dee90816100bd8239f35b600080fd5b634e487b7160e01b600052604160045260246000fd5b51906001600160a01b038216820361008d5756fe60808060405260043610156200001457600080fd5b600090813560e01c908163384ba7f214620005755750806359659e90146200054a578063b977ba18146200051f578063d55c8e6114620005005763ff9ac456146200005e57600080fd5b34620004fd576101c0366003190112620004fd576004359067ffffffffffffffff8211620004fd5736602383011215620004fd57816004013567ffffffffffffffff8111620004e95760405192620000c1601f8301601f191660200185620006bb565b8184523660248383010111620004e5578183926024602093018387013784010152606435916001600160a01b03831683036200037757608435906001600160a01b0382168203620004e557610144359160ff83168303620004e157610164359260ff84168403620004dd57610184359060ff82168203620004d9576101a4359660ff88168803620003bb57600254604051630935e01b60e21b8152336004820152906001600160a01b0316602082602481845afa918215620004ce578992620004a8575b5081156200042e575b5015620003de5786549760018060a01b0360015416986040518061066f81011067ffffffffffffffff61066f83011117620003ca5780620001fe8b9c9b98999a9b61066f6200074a84396001600160a01b031661066f830190815260406020820181905260009082015260600190565b039087f58015620003bf576002546001600160a01b0391821699911691893b15620003bb5760ff8996818094816101e499620002579d6040519e8f9d8e9d8e63ab701eed60e01b81526101e06004820152019062000722565b60248035908e015260448035908e01526001600160a01b039b8c1660648e01529a1660848c015260a48035908c015260c48035908c015260e48035908c01526101048035908c01526101248035908c0152166101448a01521661016488015216610184860152166101a48401526101c4830152038183875af18015620003b0576200039a575b5082546000198114620003865760010183558273__$e1901b2f318a4d96da8f9740d515a2b820$__91823b156200037757620003379260405180809581946368e4f0d760e11b835260606004840152606483019062000722565b87602483015233604483015203915af480156200037b576200035f575b602082604051908152f35b6200036b839162000690565b62000377578162000354565b5080fd5b6040513d85823e3d90fd5b634e487b7160e01b84526011600452602484fd5b620003a89093919362000690565b9138620002dd565b6040513d86823e3d90fd5b8680fd5b6040513d87823e3d90fd5b634e487b7160e01b8a52604160045260248afd5b60405162461bcd60e51b815260206004820152602260248201527f4572726f723a2063616c6c65722069736e27742061646d696e206f72206f776e60448201526132b960f11b6064820152608490fd5b6040516317aa5fb760e11b81523360048201529150602090829060249082905afa9081156200049d57889162000467575b50386200018e565b6200048e915060203d60201162000495575b620004858183620006bb565b810190620006de565b386200045f565b503d62000479565b6040513d8a823e3d90fd5b620004c691925060203d6020116200049557620004858183620006bb565b903862000185565b6040513d8b823e3d90fd5b8580fd5b8480fd5b8380fd5b8280fd5b634e487b7160e01b82526041600452602482fd5b80fd5b5034620004fd5780600319360112620004fd5760209054604051908152f35b5034620004fd5780600319360112620004fd576002546040516001600160a01b039091168152602090f35b5034620004fd5780600319360112620004fd576001546040516001600160a01b039091168152602090f35b8234620004fd5760209182600319360112620003775761066f6200059c84820183620006bb565b808252838201906200074a8239600154604080516001600160a01b0392831687820190815260208101839052600081840152818103928301825292946200061e936200062b93899390620005f49060600182620006bb565b6040519586936200060e868601998a9251928391620006fd565b84019151809386840190620006fd565b01038084520182620006bb565b5190206040518481019160ff60f81b83523060601b60218301526004356035830152605582015260558152608081019381851067ffffffffffffffff8611176200067c575083604052519020168152f35b634e487b7160e01b81526041600452602490fd5b67ffffffffffffffff8111620006a557604052565b634e487b7160e01b600052604160045260246000fd5b90601f8019910116810190811067ffffffffffffffff821117620006a557604052565b90816020910312620006f857518015158103620006f85790565b600080fd5b60005b838110620007115750506000910152565b818101518382015260200162000700565b906020916200073d81518092818552858086019101620006fd565b601f01601f191601019056fe608060409080825261066f80380380916100198285610350565b8339810190828183031261034b5761003081610373565b6020828101516001600160401b039391929184821161034b57019084601f8301121561034b5781519161006283610387565b9261006f88519485610350565b8084528484019685828401011161034b57868561008c93016103a2565b803b156102f9578551635c60da1b60e01b80825292916001600160a01b0316908481600481855afa9081156102ee576000916102b9575b503b1561025c577fa3f0ad74e5423aebfd80d3ef4346578335a9a72aeaee59ff6cb3582b35133d5080546001600160a01b03191682179055865192817f1cf3b03a6cf19fa2baba4df148e9dcabedea7f8a5c07840e207e5c089be95d3e600080a2825115801590610254575b610142575b87516101f690816104798239f35b6004848693819382525afa9182156102495760009261020f575b5085519360608501908111858210176101f9578652602784527f416464726573733a206c6f772d6c6576656c2064656c65676174652063616c6c83850152660819985a5b195960ca1b84870152516101e3946000918291845af4903d156101f0573d6101c781610387565b906101d488519283610350565b8152600081943d92013e6103c5565b5038808080808080610134565b606092506103c5565b634e487b7160e01b600052604160045260246000fd5b90918382813d8311610242575b6102268183610350565b8101031261023f575061023890610373565b903861015c565b80fd5b503d61021c565b86513d6000823e3d90fd5b50600061012f565b865162461bcd60e51b815260048101859052603060248201527f455243313936373a20626561636f6e20696d706c656d656e746174696f6e206960448201526f1cc81b9bdd08184818dbdb9d1c9858dd60821b6064820152608490fd5b908582813d83116102e7575b6102cf8183610350565b8101031261023f57506102e190610373565b386100c3565b503d6102c5565b88513d6000823e3d90fd5b855162461bcd60e51b815260048101849052602560248201527f455243313936373a206e657720626561636f6e206973206e6f74206120636f6e6044820152641d1c9858dd60da1b6064820152608490fd5b600080fd5b601f909101601f19168101906001600160401b038211908210176101f957604052565b51906001600160a01b038216820361034b57565b6001600160401b0381116101f957601f01601f191660200190565b60005b8381106103b55750506000910152565b81810151838201526020016103a5565b9192901561042757508151156103d9575090565b3b156103e25790565b60405162461bcd60e51b815260206004820152601d60248201527f416464726573733a2063616c6c20746f206e6f6e2d636f6e74726163740000006044820152606490fd5b82519091501561043a5750805190602001fd5b6044604051809262461bcd60e51b82526020600483015261046a81518092816024860152602086860191016103a2565b601f01601f19168101030190fdfe608080604052366100c4577fa3f0ad74e5423aebfd80d3ef4346578335a9a72aeaee59ff6cb3582b35133d5054635c60da1b60e01b8252602090829060049082906001600160a01b03165afa9081156100b857600091610060575b5061015b565b6020903d82116100b0575b601f8201601f1916810167ffffffffffffffff81118282101761009c5761009693506040520161017a565b3861005a565b634e487b7160e01b84526041600452602484fd5b3d915061006b565b6040513d6000823e3d90fd5b7fa3f0ad74e5423aebfd80d3ef4346578335a9a72aeaee59ff6cb3582b35133d5054604051635c60da1b60e01b815290602090829060049082906001600160a01b03165afa9081156100b85760009161011d575061015b565b60203d8111610154575b601f8101601f1916820167ffffffffffffffff81118382101761009c5761009693506040528101906101a1565b503d610127565b6000808092368280378136915af43d82803e15610176573d90f35b3d90fd5b602090607f19011261019c576080516001600160a01b038116810361019c5790565b600080fd5b9081602091031261019c57516001600160a01b038116810361019c579056fea26469706673582212201672897789e0811de167d78cf3c7eca4d6f9050ca351a075e7f33b3a2fbf404964736f6c63430008130033a2646970667358221220b396afffd699109874fb7c5a4cd73c39c8abb66dd7a9b9ac0a1902b960de9f6b64736f6c63430008130033",
  "linkReferences": {
    "contracts/launchpad/lib/LaunchpadLibrary.sol": {
      "LaunchpadLibrary": [
        {
          "length": 20,
          "start": 943
        }
      ]
    }
  },
  "deployedLinkReferences": {
    "contracts/launchpad/lib/LaunchpadLibrary.sol": {
      "LaunchpadLibrary": [
        {
          "length": 20,
          "start": 754
        }
      ]
    }
  }
}