{
  "_format": "hh-sol-artifact-1",
  "contractName": "FCFSLaunchpad",
  "sourceName": "contracts/launchpad/implement/FCFSLaunchpad.sol",
  "abi": [
    {
      "anonymous": false,
      "inputs": [
        {
          "indexed": false,
          "internalType": "address",
          "name": "previousAdmin",
          "type": "address"
        },
        {
          "indexed": false,
          "internalType": "address",
          "name": "newAdmin",
          "type": "address"
        }
      ],
      "name": "AdminChanged",
      "type": "event"
    },
    {
      "anonymous": false,
      "inputs": [
        {
          "indexed": true,
          "internalType": "address",
          "name": "beacon",
          "type": "address"
        }
      ],
      "name": "BeaconUpgraded",
      "type": "event"
    },
    {
      "anonymous": false,
      "inputs": [
        {
          "indexed": false,
          "internalType": "uint8",
          "name": "version",
          "type": "uint8"
        }
      ],
      "name": "Initialized",
      "type": "event"
    },
    {
      "anonymous": false,
      "inputs": [
        {
          "indexed": false,
          "internalType": "address",
          "name": "account",
          "type": "address"
        }
      ],
      "name": "Paused",
      "type": "event"
    },
    {
      "anonymous": false,
      "inputs": [
        {
          "indexed": false,
          "internalType": "address",
          "name": "account",
          "type": "address"
        }
      ],
      "name": "Unpaused",
      "type": "event"
    },
    {
      "anonymous": false,
      "inputs": [
        {
          "indexed": true,
          "internalType": "address",
          "name": "implementation",
          "type": "address"
        }
      ],
      "name": "Upgraded",
      "type": "event"
    },
    {
      "inputs": [],
      "name": "_DAYLY",
      "outputs": [
        {
          "internalType": "uint256",
          "name": "",
          "type": "uint256"
        }
      ],
      "stateMutability": "view",
      "type": "function"
    },
    {
      "inputs": [],
      "name": "_MONTHLY",
      "outputs": [
        {
          "internalType": "uint256",
          "name": "",
          "type": "uint256"
        }
      ],
      "stateMutability": "view",
      "type": "function"
    },
    {
      "inputs": [],
      "name": "_PREFIX_SIGNED_MESSAGE",
      "outputs": [
        {
          "internalType": "string",
          "name": "",
          "type": "string"
        }
      ],
      "stateMutability": "view",
      "type": "function"
    },
    {
      "inputs": [
        {
          "internalType": "address",
          "name": "_buyer",
          "type": "address"
        }
      ],
      "name": "buyerInformation",
      "outputs": [
        {
          "components": [
            {
              "internalType": "uint256",
              "name": "purchaseAmount",
              "type": "uint256"
            },
            {
              "internalType": "uint256",
              "name": "receiveAmount",
              "type": "uint256"
            },
            {
              "internalType": "uint256",
              "name": "refundAmount",
              "type": "uint256"
            },
            {
              "internalType": "uint256",
              "name": "vestedAmount",
              "type": "uint256"
            },
            {
              "internalType": "uint256",
              "name": "withdrawAmount",
              "type": "uint256"
            },
            {
              "internalType": "uint256",
              "name": "vestingTime",
              "type": "uint256"
            },
            {
              "internalType": "uint8",
              "name": "vestingStep",
              "type": "uint8"
            }
          ],
          "internalType": "struct LaunchpadLibrary.Buyer",
          "name": "",
          "type": "tuple"
        }
      ],
      "stateMutability": "view",
      "type": "function"
    },
    {
      "inputs": [
        {
          "internalType": "address",
          "name": "",
          "type": "address"
        }
      ],
      "name": "buyers",
      "outputs": [
        {
          "internalType": "uint256",
          "name": "purchaseAmount",
          "type": "uint256"
        },
        {
          "internalType": "uint256",
          "name": "receiveAmount",
          "type": "uint256"
        },
        {
          "internalType": "uint256",
          "name": "refundAmount",
          "type": "uint256"
        },
        {
          "internalType": "uint256",
          "name": "vestedAmount",
          "type": "uint256"
        },
        {
          "internalType": "uint256",
          "name": "withdrawAmount",
          "type": "uint256"
        },
        {
          "internalType": "uint256",
          "name": "vestingTime",
          "type": "uint256"
        },
        {
          "internalType": "uint8",
          "name": "vestingStep",
          "type": "uint8"
        }
      ],
      "stateMutability": "view",
      "type": "function"
    },
    {
      "inputs": [
        {
          "internalType": "uint256",
          "name": "_purchaseAmount",
          "type": "uint256"
        }
      ],
      "name": "calcReceiveAndRefundAmount",
      "outputs": [
        {
          "internalType": "uint256",
          "name": "",
          "type": "uint256"
        },
        {
          "internalType": "uint256",
          "name": "",
          "type": "uint256"
        }
      ],
      "stateMutability": "view",
      "type": "function"
    },
    {
      "inputs": [
        {
          "internalType": "address",
          "name": "_to",
          "type": "address"
        },
        {
          "internalType": "address",
          "name": "_token",
          "type": "address"
        },
        {
          "internalType": "uint256",
          "name": "_amount",
          "type": "uint256"
        }
      ],
      "name": "emergencyWithdrawToken",
      "outputs": [],
      "stateMutability": "nonpayable",
      "type": "function"
    },
    {
      "inputs": [
        {
          "internalType": "string",
          "name": "_projectId",
          "type": "string"
        },
        {
          "internalType": "uint256",
          "name": "_startTime",
          "type": "uint256"
        },
        {
          "internalType": "uint256",
          "name": "_endTime",
          "type": "uint256"
        },
        {
          "internalType": "address",
          "name": "_sellToken",
          "type": "address"
        },
        {
          "internalType": "address",
          "name": "_buyToken",
          "type": "address"
        },
        {
          "internalType": "uint256",
          "name": "_totalSell",
          "type": "uint256"
        },
        {
          "internalType": "uint256",
          "name": "_minBuy",
          "type": "uint256"
        },
        {
          "internalType": "uint256",
          "name": "_maxBuy",
          "type": "uint256"
        },
        {
          "internalType": "uint256",
          "name": "_softCap",
          "type": "uint256"
        },
        {
          "internalType": "uint256",
          "name": "_hardCap",
          "type": "uint256"
        },
        {
          "internalType": "uint8",
          "name": "_tgeRate",
          "type": "uint8"
        },
        {
          "internalType": "uint8",
          "name": "_cliffTime",
          "type": "uint8"
        },
        {
          "internalType": "uint8",
          "name": "_linearTime",
          "type": "uint8"
        },
        {
          "internalType": "uint8",
          "name": "_vestingDelay",
          "type": "uint8"
        },
        {
          "internalType": "address",
          "name": "_roleManagement",
          "type": "address"
        }
      ],
      "name": "initialize",
      "outputs": [],
      "stateMutability": "nonpayable",
      "type": "function"
    },
    {
      "inputs": [],
      "name": "launchpad",
      "outputs": [
        {
          "internalType": "string",
          "name": "projectId",
          "type": "string"
        },
        {
          "internalType": "enum LaunchpadLibrary.LaunchpadType",
          "name": "launchpadType",
          "type": "uint8"
        },
        {
          "internalType": "enum LaunchpadLibrary.LaunchpadStatus",
          "name": "launchpadStatus",
          "type": "uint8"
        },
        {
          "internalType": "uint256",
          "name": "startTime",
          "type": "uint256"
        },
        {
          "internalType": "uint256",
          "name": "endTime",
          "type": "uint256"
        },
        {
          "internalType": "address",
          "name": "sellToken",
          "type": "address"
        },
        {
          "internalType": "address",
          "name": "buyToken",
          "type": "address"
        },
        {
          "internalType": "uint256",
          "name": "totalSell",
          "type": "uint256"
        },
        {
          "internalType": "uint256",
          "name": "minBuy",
          "type": "uint256"
        },
        {
          "internalType": "uint256",
          "name": "maxBuy",
          "type": "uint256"
        },
        {
          "internalType": "uint256",
          "name": "softCap",
          "type": "uint256"
        },
        {
          "internalType": "uint256",
          "name": "hardCap",
          "type": "uint256"
        },
        {
          "internalType": "uint256",
          "name": "totalRaise",
          "type": "uint256"
        }
      ],
      "stateMutability": "view",
      "type": "function"
    },
    {
      "inputs": [
        {
          "internalType": "enum LaunchpadLibrary.LaunchpadStatus",
          "name": "_status",
          "type": "uint8"
        },
        {
          "internalType": "uint256",
          "name": "_startTime",
          "type": "uint256"
        },
        {
          "internalType": "uint256",
          "name": "_endTime",
          "type": "uint256"
        },
        {
          "internalType": "address",
          "name": "_sellToken",
          "type": "address"
        },
        {
          "internalType": "address",
          "name": "_buyToken",
          "type": "address"
        },
        {
          "internalType": "uint256",
          "name": "_totalSell",
          "type": "uint256"
        },
        {
          "internalType": "uint256",
          "name": "_minBuy",
          "type": "uint256"
        },
        {
          "internalType": "uint256",
          "name": "_maxBuy",
          "type": "uint256"
        },
        {
          "internalType": "uint256",
          "name": "_softCap",
          "type": "uint256"
        },
        {
          "internalType": "uint256",
          "name": "_hardCap",
          "type": "uint256"
        },
        {
          "internalType": "bool",
          "name": "_vestingEnable",
          "type": "bool"
        },
        {
          "internalType": "uint8",
          "name": "_tgeRate",
          "type": "uint8"
        },
        {
          "internalType": "uint8",
          "name": "_cliffTime",
          "type": "uint8"
        },
        {
          "internalType": "uint8",
          "name": "_linearTime",
          "type": "uint8"
        },
        {
          "internalType": "uint8",
          "name": "_vestingDelay",
          "type": "uint8"
        }
      ],
      "name": "launchpadConfig",
      "outputs": [],
      "stateMutability": "nonpayable",
      "type": "function"
    },
    {
      "inputs": [],
      "name": "launchpadInformation",
      "outputs": [
        {
          "components": [
            {
              "internalType": "string",
              "name": "projectId",
              "type": "string"
            },
            {
              "internalType": "enum LaunchpadLibrary.LaunchpadType",
              "name": "launchpadType",
              "type": "uint8"
            },
            {
              "internalType": "enum LaunchpadLibrary.LaunchpadStatus",
              "name": "launchpadStatus",
              "type": "uint8"
            },
            {
              "internalType": "uint256",
              "name": "startTime",
              "type": "uint256"
            },
            {
              "internalType": "uint256",
              "name": "endTime",
              "type": "uint256"
            },
            {
              "internalType": "address",
              "name": "sellToken",
              "type": "address"
            },
            {
              "internalType": "address",
              "name": "buyToken",
              "type": "address"
            },
            {
              "internalType": "uint256",
              "name": "totalSell",
              "type": "uint256"
            },
            {
              "internalType": "uint256",
              "name": "minBuy",
              "type": "uint256"
            },
            {
              "internalType": "uint256",
              "name": "maxBuy",
              "type": "uint256"
            },
            {
              "internalType": "uint256",
              "name": "softCap",
              "type": "uint256"
            },
            {
              "internalType": "uint256",
              "name": "hardCap",
              "type": "uint256"
            },
            {
              "internalType": "uint256",
              "name": "totalRaise",
              "type": "uint256"
            }
          ],
          "internalType": "struct LaunchpadLibrary.Launchpad",
          "name": "",
          "type": "tuple"
        },
        {
          "components": [
            {
              "internalType": "bool",
              "name": "vestingEnable",
              "type": "bool"
            },
            {
              "internalType": "uint256",
              "name": "vestingTime",
              "type": "uint256"
            },
            {
              "internalType": "uint8",
              "name": "tgeRate",
              "type": "uint8"
            },
            {
              "internalType": "uint8",
              "name": "cliffTime",
              "type": "uint8"
            },
            {
              "internalType": "uint8",
              "name": "linearTime",
              "type": "uint8"
            },
            {
              "internalType": "uint8",
              "name": "vestingDelay",
              "type": "uint8"
            }
          ],
          "internalType": "struct LaunchpadLibrary.Vesting",
          "name": "",
          "type": "tuple"
        }
      ],
      "stateMutability": "view",
      "type": "function"
    },
    {
      "inputs": [],
      "name": "pause",
      "outputs": [],
      "stateMutability": "nonpayable",
      "type": "function"
    },
    {
      "inputs": [],
      "name": "paused",
      "outputs": [
        {
          "internalType": "bool",
          "name": "",
          "type": "bool"
        }
      ],
      "stateMutability": "view",
      "type": "function"
    },
    {
      "inputs": [],
      "name": "proxiableUUID",
      "outputs": [
        {
          "internalType": "bytes32",
          "name": "",
          "type": "bytes32"
        }
      ],
      "stateMutability": "view",
      "type": "function"
    },
    {
      "inputs": [
        {
          "internalType": "uint256",
          "name": "_amount",
          "type": "uint256"
        }
      ],
      "name": "purchaseToken",
      "outputs": [],
      "stateMutability": "nonpayable",
      "type": "function"
    },
    {
      "inputs": [],
      "name": "refundTax",
      "outputs": [
        {
          "internalType": "uint256",
          "name": "",
          "type": "uint256"
        }
      ],
      "stateMutability": "view",
      "type": "function"
    },
    {
      "inputs": [
        {
          "internalType": "uint256",
          "name": "_tax",
          "type": "uint256"
        }
      ],
      "name": "refundTaxConfig",
      "outputs": [],
      "stateMutability": "nonpayable",
      "type": "function"
    },
    {
      "inputs": [],
      "name": "refundToken",
      "outputs": [],
      "stateMutability": "nonpayable",
      "type": "function"
    },
    {
      "inputs": [],
      "name": "roleManagement",
      "outputs": [
        {
          "internalType": "contract RoleManagement",
          "name": "",
          "type": "address"
        }
      ],
      "stateMutability": "view",
      "type": "function"
    },
    {
      "inputs": [],
      "name": "unpause",
      "outputs": [],
      "stateMutability": "nonpayable",
      "type": "function"
    },
    {
      "inputs": [
        {
          "internalType": "address",
          "name": "newImplementation",
          "type": "address"
        }
      ],
      "name": "upgradeTo",
      "outputs": [],
      "stateMutability": "nonpayable",
      "type": "function"
    },
    {
      "inputs": [
        {
          "internalType": "address",
          "name": "newImplementation",
          "type": "address"
        },
        {
          "internalType": "bytes",
          "name": "data",
          "type": "bytes"
        }
      ],
      "name": "upgradeToAndCall",
      "outputs": [],
      "stateMutability": "payable",
      "type": "function"
    },
    {
      "inputs": [],
      "name": "vesting",
      "outputs": [
        {
          "internalType": "bool",
          "name": "vestingEnable",
          "type": "bool"
        },
        {
          "internalType": "uint256",
          "name": "vestingTime",
          "type": "uint256"
        },
        {
          "internalType": "uint8",
          "name": "tgeRate",
          "type": "uint8"
        },
        {
          "internalType": "uint8",
          "name": "cliffTime",
          "type": "uint8"
        },
        {
          "internalType": "uint8",
          "name": "linearTime",
          "type": "uint8"
        },
        {
          "internalType": "uint8",
          "name": "vestingDelay",
          "type": "uint8"
        }
      ],
      "stateMutability": "view",
      "type": "function"
    },
    {
      "inputs": [],
      "name": "vestingToken",
      "outputs": [],
      "stateMutability": "nonpayable",
      "type": "function"
    }
  ],
  "bytecode": "0x60a080604052346100365730608052600a60fb55613b36908161003c823960805181818161165e015281816117610152611eec0152f35b600080fdfe6080604052600436101561001257600080fd5b6000803560e01c806302669b521461291857806319d152fa14612484578063277327a5146123085780632ea0d108146122235780633659cfe614611ec75780633f4ba83a14611df85780634051646114611acf57806344c63eec14611a745780634f1ef2861461170f57806352d1902d1461164b5780635c180ffd146111e45780635c975abb146111c15780635cb732be14610f735780638456cb5914610eaf578063914cbaf914610cd657806397a993aa14610c57578063ab701eed14610594578063ac8c767614610532578063ae68d3f214610507578063b977ba18146104de578063c2db2c421461017e578063f741460214610160578063f83b27c4146101435763fbf3f92b1461012557600080fd5b346101405780600319360112610140576020604051603c8152f35b80fd5b503461014057806003193601126101405760206040516107088152f35b5034610140578060031936011261014057602060fb54604051908152f35b503461014057602090816003193601126101405760043561019d6130c7565b6101a561310b565b33825261010c83526040822073__$e1901b2f318a4d96da8f9740d515a2b820$__604051926330a2fead60e01b84528560048501526024928685806101eb878201613016565b0381865af49485156104d35786956104a4575b50600485101561049157600180950361044d57610102805482546001600160a01b0393918416908561023081836130ba565b6101045411159182610436575b50508061041d575b156103d9576040516323b872dd60e01b8b8201523388820152306044820152606480820187905281529060a082016001600160401b038111838210176103c4576040526102929190613179565b61029d8482546130ba565b90556101086102ad8482546130ba565b90555416823b156103c0576040516308438e8560e41b815260a0600482015260fd546000989195916102de826129ea565b918260a4890152888116908160001461039b5750600114610356575b5050848798819489989996948784958501523360448501526064840152608483015203915af4801561034b57610333575b505060c95580f35b61033c90612a24565b61034757813861032b565b5080fd5b6040513d84823e3d90fd5b60fd6000908152929950600080516020613ac18339815191525b82841061038757505050840160c4019684806102fa565b805488850160c40152928101928801610370565b60ff191660c4808a019190915292151560051b880190920199508691508190506102fa565b8580fd5b88634e487b7160e01b60005260416004526000fd5b60405162461bcd60e51b8152600481018b9052601f818901527f4572726f723a20696e76616c696420707572636861736520616d6f756e742e006044820152606490fd5b5061042b61010854866130ba565b610107541015610245565b61044092506130ba565b610105541015853861023d565b60405162461bcd60e51b815260048101889052601e818601527f4572726f723a206c61756e63687061642069736e2774206163746976652e00006044820152606490fd5b634e487b7160e01b865260216004528386fd5b6104c5919550873d89116104cc575b6104bd8183612abf565b810190612f6c565b93386101fe565b503d6104b3565b6040513d88823e3d90fd5b503461014057806003193601126101405760fc546040516001600160a01b039091168152602090f35b50346101405760203660031901126101405760406105266004356136fd565b82519182526020820152f35b503461014057806003193601126101405761059060405161055281612aa4565b601c81527f19457468657265756d205369676e6564204d6573736167653a0a3332000000006020820152604051918291602083526020830190612b8c565b0390f35b5034610140576101e0366003190112610140576004356001600160401b0381116103475736602382011215610347576105d7903690602481600401359101612c43565b6105df612bfc565b906105e8612c12565b906101443560ff81168103610c52576105ff612c7a565b610607612c8b565b90610610612c9c565b6101c435959094906001600160a01b0387168703610c525788549760ff8960081c16159889809a610c45575b8015610c2e575b15610bd25760ff1981166001178b5589610bc1575b5061074160ff8b5460081c1661066d81612f0c565b61067681612f0c565b61067f81612f0c565b61068881612f0c565b60ff196097541660975561069b81612f0c565b6106a481612f0c565b600160c9556024354210610bb7576106bd600191612f0c565b6024356044351180610bac575b80610b9e575b80610b8e575b80610b7c575b80610b6a575b80610b50575b6106f190613407565b61070160ff610109541615613452565b60ff8616158080610b45575b15610b0a5750610722606460ff8a161461349e565b6040519461072f86612a37565b855260026020860152604085016134ea565b602435606084015260443560808401526001600160a01b0390811660a08401521660c082015260a43560e082015260c43561010082015260e4356101208201526101043561014082015261012435610160820152610180810188905280518051906001600160401b038211610af65781906107bd60fd546129ea565b601f8111610a84575b50602090601f8311600114610a0e578b92610a03575b50508160011b916000199060031b1c19161760fd555b602081015160038110156109ef5760ff801960fe541691161760fe55604081015160048110156109ef5762ff0000929161082e610180926134f6565b606081015160ff55608081015161010090815560a082015161010180546001600160a01b039283166001600160a01b03199182161790915560c0840151610102805491909316911617905560e082015161010355810151610104556101208101516101055561014081015161010655610160810151610107550151610108556040516108b981612a53565b88815288602082015260ff8516604082015260ff8216606082015260ff8416608082015260a060ff871691015260ff19610109541660ff8915151617610109558761010a5561ff0061010b9560ff63ff00000088549260181b1696169063ffffffff1916179160081b16179160101b16171790558273__$e1901b2f318a4d96da8f9740d515a2b820$__803b15610347578160405180926342b281cb60e11b8252818061096860048201613516565b03915af4801561034b576109d7575b505060018060a01b03166bffffffffffffffffffffffff60a01b60fc54161760fc556109a05780f35b61ff001981541681557f7f26b83ff96e1f2b6a682f133852f6798a09c465da95921460cefb3847402498602060405160018152a180f35b6109e090612a24565b6109eb578238610977565b8280fd5b634e487b7160e01b89526021600452602489fd5b0151905038806107dc565b925060fd8b52600080516020613ac1833981519152908b935b601f1984168510610a69576001945083601f19811610610a50575b505050811b0160fd556107f2565b015160001960f88460031b161c19169055388080610a42565b81810151835560209485019460019093019290910190610a27565b90915060fd8b52601f830160051c600080516020613ac18339815191520160208410610ae1575b908392915b601f820160051c600080516020613ac1833981519152018110610ad357506107c6565b8c8155849350600101610ab0565b50600080516020613ac1833981519152610aab565b634e487b7160e01b8a52604160045260248afd5b606460ff8a16111580610b27575b610b22915061349e565b610722565b50801590610b39575b610b2290610b18565b5060ff87161515610b30565b5060ff88161561070d565b506106f1610b6360443560243584613a6c565b90506106e8565b506001600160a01b03841615156106e2565b506001600160a01b03831615156106dc565b50610104356101243510156106d6565b5060c43560e43510156106d0565b5060a43515156106ca565b6106bd8c91612f0c565b61ffff1916610101178a5538610658565b60405162461bcd60e51b815260206004820152602e60248201527f496e697469616c697a61626c653a20636f6e747261637420697320616c72656160448201526d191e481a5b9a5d1a585b1a5e995960921b6064820152608490fd5b50303b1580156106435750600160ff821614610643565b50600160ff82161061063c565b600080fd5b50346101405760203660031901126101405760e0906040906001600160a01b03610c7f612be6565b16815261010c602052208054906001810154906002810154600382015460048301549160ff600660058601549501541694604051968752602087015260408601526060850152608084015260a083015260c0820152f35b50346101405760208060031936011261034757610cf1612be6565b8260c0604051610d0081612a6e565b82815282858201528260408201528260608201528260808201528260a0820152015260018060a01b0316825261010c8152610d3d604083206132af565b6040516330a2fead60e01b81526004810183905292828480610d6160248201613016565b038173__$e1901b2f318a4d96da8f9740d515a2b820$__5af4938415610ea2578194610e83575b50610d9382516136fd565b90946004811015610e6f57600103610e605750815160fb546064039160648311610e4c5750916064610dca60e0969360ff95612cda565b04935b8151946060830151906080840151928660c060a0870151960151169560c0604051610df781612a6e565b8a815283810192835260408101948552606081019586526080810196875260a081019788520196875260405198895251908801525160408701525160608601525160808501525160a0840152511660c0820152f35b634e487b7160e01b81526011600452602490fd5b60e09491509160ff9293610dcd565b634e487b7160e01b83526021600452602483fd5b610e9b919450833d85116104cc576104bd8183612abf565b9238610d88565b50604051903d90823e3d90fd5b503461014057806003193601126101405760fc546040516317aa5fb760e11b815233600482015290602090829060249082906001600160a01b03165afa801561034b57610f03918391610f45575b50613698565b610f0b6130c7565b600160ff1960975416176097557f62e78cea01bee320cd4e420270b5ea74000d11b0c9f74754ebdbfc544b05a2586020604051338152a180f35b610f66915060203d8111610f6c575b610f5e8183612abf565b810190613161565b38610efd565b503d610f54565b5034610140578060031936011261014057610f8c6130c7565b610f9461310b565b33815260209061010c82526040812073__$e1901b2f318a4d96da8f9740d515a2b820$__906040516330a2fead60e01b8152846004820152848180610fdb60248201613016565b0381865af49081156111b6578491611199575b50600481101561118557806110066001921515613259565b14801561113a5783825492555b83610108838154818110600014611128575050555b156111235760fb54606403906064821161110f5760649161104891612cda565b045b80156110ca5782935060018060a01b0361010261106b833384845416613334565b541690823b156110c55760405163083d89bd60e01b8152928492849283918291611099913360048501613302565b03915af4801561034b576110b1575b50600160c95580f35b6110ba90612a24565b6101405780386110a8565b505050fd5b60405162461bcd60e51b815260048101859052601d60248201527f4572726f723a20726566756e6420616d6f756e74206973207a65726f2e0000006044820152606490fd5b634e487b7160e01b84526011600452602484fd5b61104a565b611133929350613383565b9055611028565b60058201541561116b575b60046002830154920161116461115d82548095613383565b80946130ba565b9055611013565b61117582546136fd565b9060018401556002830155611145565b634e487b7160e01b84526021600452602484fd5b6111b09150853d87116104cc576104bd8183612abf565b38610fee565b6040513d86823e3d90fd5b5034610140578060031936011261014057602060ff609754166040519015158152f35b5034610140576101e03660031901126101405760048035101561014057611209612bfc565b611211612c12565b9061014435151561014435036109eb57611229612c7a565b90611232612c8b565b9261123b612c9c565b9160ff6101c435166101c43503610c525760fc54604051630935e01b60e21b81523360048201526001600160a01b0390911690602081602481855afa908115611640578891611621575b5080156115cc575b61129791506133b0565b60ff60fe54166003811015611523571561157d576112cc610124356101043560e43560c43560a4358787604435602435613885565b80611561575b6112db90613407565b6112eb60ff610109541615613452565b610144356114c3575b60ff85161580806114b8575b1561147d5750611315606460ff86161461349e565b6113206004356134f6565b60243560ff55604435610100556bffffffffffffffffffffffff60a01b906101019060018060a01b0316828254161790556101029160018060a01b03169082541617905560a4356101035560c4356101045560e435610105556101043561010655610124356101075560ff19610109541660ff6101443515151617610109556101443561143d575b62ff000061010b9361ff00855460ff63ff0000006101c43560181b1696169063ffffffff1916179160081b16179160101b16171790558073__$e1901b2f318a4d96da8f9740d515a2b820$__803b1561143a578160405180926342b281cb60e11b8252818061141960048201613516565b03915af4801561034b5761142a5750f35b61143390612a24565b6101405780f35b50fd5b603c60ff6101c435168181029181830414901517156114695761146090426130ba565b61010a556113a8565b634e487b7160e01b85526011600452602485fd5b606460ff861611158061149a575b611495915061349e565b611315565b508015906114ac575b6114959061148b565b5060ff831615156114a3565b5060ff841615611300565b6040516330a2fead60e01b815260206004820181905281806114e760248201613016565b038173__$e1901b2f318a4d96da8f9740d515a2b820$__5af4908115611556578791611537575b506004811015611523576002146112f4578580fd5b634e487b7160e01b87526021600452602487fd5b611550915060203d6020116104cc576104bd8183612abf565b3861150e565b6040513d89823e3d90fd5b506112db611576604435602435600435613a6c565b90506112d2565b60405162461bcd60e51b815260206004820152602160248201527f4572726f723a2043616e6e6f742063616c6c20746869732066756e6374696f6e6044820152601760f91b6064820152608490fd5b506020602491604051928380926317aa5fb760e11b82523360048301525afa801561155657611297918891611602575b5061128d565b61161b915060203d602011610f6c57610f5e8183612abf565b386115fc565b61163a915060203d602011610f6c57610f5e8183612abf565b38611285565b6040513d8a823e3d90fd5b50346101405780600319360112610140577f00000000000000000000000000000000000000000000000000000000000000006001600160a01b031630036116a4576020604051600080516020613ae18339815191528152f35b60405162461bcd60e51b815260206004820152603860248201527f555550535570677261646561626c653a206d757374206e6f742062652063616c60448201527f6c6564207468726f7567682064656c656761746563616c6c00000000000000006064820152608490fd5b50604036600319011261014057611724612be6565b9060249182356001600160401b0381116109eb57366023820112156109eb576117569036908581600401359101612c43565b6001600160a01b03907f0000000000000000000000000000000000000000000000000000000000000000821661178e30821415612ced565b6117ab600080516020613ae1833981519152918483541614612d4e565b60fc54604051630935e01b60e21b815233600482015260209491821685828a81845afa9182156116405789929187918a93611a55575b5082156119fe575b50506117f591506133b0565b7f4910fdfa16fed3260ed0e7147f7cc6da11a60208b5b9406d12a635614ffd91435460ff1615611831575050505061182e919250612daf565b80f35b849293959416906040516352d1902d60e01b81528681600481865afa600091816119cf575b506118b65760405162461bcd60e51b815260048101889052602e818a01527f45524331393637557067726164653a206e657720696d706c656d656e7461746960448201526d6f6e206973206e6f74205555505360901b6064820152608490fd5b969192939594960361197a57506118cc82612daf565b7fbc7cd75a20ee27fd9adebab32041f755214dbc6bffa90cc0225b39da2e5c2d3b600080a2825115801590611972575b611907575b50505080f35b600080611969946040519461191b86612a89565b602786527f416464726573733a206c6f772d6c6576656c2064656c65676174652063616c6c81870152660819985a5b195960ca1b604087015281519101845af4611963612e3f565b91612e6f565b50388080611901565b5060016118fc565b8360296084926040519262461bcd60e51b845260048401528201527f45524331393637557067726164653a20756e737570706f727465642070726f786044820152681a58589b195555525160ba1b6064820152fd5b90918882813d83116119f7575b6119e68183612abf565b810103126101405750519038611856565b503d6119dc565b909150604051928380926317aa5fb760e11b82523360048301525afa90811561155657906117f5918891611a38575b5088915085386117e9565b611a4f9150863d8811610f6c57610f5e8183612abf565b38611a2d565b611a6d919350823d8411610f6c57610f5e8183612abf565b91386117e1565b503461014057806003193601126101405760c060ff610109541660ff61010a5461010b5490604051931515845260208401528181166040840152818160081c166060840152818160101c16608084015260181c1660a0820152f35b503461014057806003193601126101405780610180604051611af081612a37565b606081528260208201528260408201528260608201528260808201528260a08201528260c08201528260e08201528261010082015282610120820152826101408201528261016082015201528060a0604051611b4b81612a53565b82815282602082015282604082015282606082015282608082015201526040516330a2fead60e01b81526020600482015260208180611b8c60248201613016565b038173__$e1901b2f318a4d96da8f9740d515a2b820$__5af4918215611dec5791611dcd575b5060ff60fe541660ff546101005460018060a01b03610101541660018060a01b03610102541661010354610104549061010554926101065494610107549661010854986040519a611c028c612a37565b611c0a612ae0565b8c526003811015611db75760a09c611c2a9160208e015260408d016134ea565b60608b015260808a01528989015260c088015260e087015261010086015261012085015261014084015261016083015261018082015260405190611c6d82612a53565b60ff61010954161515825261010a54602083015260ff61010b548181166040850152818160081c166060850152818160101c16608085015260181c168383015260ff60405193849360e08552610180611cd485516101a060e0890152610280880190612b8c565b94611ce86020820151610100890190612bcc565b611cfb6040820151610120890190612bd9565b60608101516101408801526080810151610160880152600180851b03848201511682880152600180851b0360c0820151166101a088015260e08101516101c08801526101008101516101e0880152610120810151610200880152610140810151610220880152610160810151610240880152015161026086015280511515602086015260208101516040860152826040820151166060860152826060820151166080860152826080820151168286015201511660c08301520390f35b634e487b7160e01b600052602160045260246000fd5b611de6915060203d6020116104cc576104bd8183612abf565b38611bb2565b604051903d90823e3d90fd5b503461014057806003193601126101405760fc546040516317aa5fb760e11b815233600482015290602090829060249082906001600160a01b03165afa801561034b57611e4b918391610f455750613698565b60975460ff811615611e8b5760ff19166097557f5db9ee0a495bf2e6ff9c91a7834c1ba4fdd244a5e8aa4e537bd38aeae4b073aa6020604051338152a180f35b60405162461bcd60e51b815260206004820152601460248201527314185d5cd8589b194e881b9bdd081c185d5cd95960621b6044820152606490fd5b50346101405760208060031936011261034757611ee2612be6565b6001600160a01b037f0000000000000000000000000000000000000000000000000000000000000000811690611f1a30831415612ced565b611f37600080516020613ae1833981519152928284541614612d4e565b8060fc5416604051630935e01b60e21b81523360048201528581602481855afa9182156115565786918893612204575b5082156121ae575b5050611f7a906133b0565b60405191848301918383106001600160401b03841117612198578260405286845260ff7f4910fdfa16fed3260ed0e7147f7cc6da11a60208b5b9406d12a635614ffd91435416600014611fd5575050505061182e9150612daf565b84939416906040516352d1902d60e01b81528681600481865afa60009181612169575b506120595760405162461bcd60e51b815260048101889052602e60248201527f45524331393637557067726164653a206e657720696d706c656d656e7461746960448201526d6f6e206973206e6f74205555505360901b6064820152608490fd5b959495036121125761206a83612daf565b7fbc7cd75a20ee27fd9adebab32041f755214dbc6bffa90cc0225b39da2e5c2d3b600080a283511580159061210a575b6120a6575b5050505080f35b60008091612100957f416464726573733a206c6f772d6c6576656c2064656c65676174652063616c6c604051966120dc88612a89565b60278852870152660819985a5b195960ca1b60408701525190845af4611963612e3f565b503880808061209f565b50600061209a565b60405162461bcd60e51b815260048101859052602960248201527f45524331393637557067726164653a20756e737570706f727465642070726f786044820152681a58589b195555525160ba1b6064820152608490fd5b90918882813d8311612191575b6121808183612abf565b810103126101405750519038611ff8565b503d612176565b634e487b7160e01b600052604160045260246000fd5b6040516317aa5fb760e11b81523360048201529250829060249082905afa80156104d357611f7a9187916121e7575b5090508438611f6f565b6121fe9150863d8811610f6c57610f5e8183612abf565b386121dd565b61221c919350823d8411610f6c57610f5e8183612abf565b9138611f67565b5034610140576020806003193601126103475760fc54604051630935e01b60e21b8152336004820152906001600160a01b03168282602481845afa9182156111b65784926122e9575b508115612287575b8361227e836133b0565b60043560fb5580f35b6040516317aa5fb760e11b815233600482015291508290829060249082905afa9081156122de5761227e9284926122c1575b505038612274565b6122d79250803d10610f6c57610f5e8183612abf565b38806122b9565b6040513d85823e3d90fd5b612301919250833d8511610f6c57610f5e8183612abf565b903861226c565b503461014057606036600319011261014057612322612be6565b6001600160a01b039060243590828216808303610c525760443593602460208260fc5416604051928380926317aa5fb760e11b82523360048301525afa801561155657612375918891610f455750613698565b61237d61310b565b82161561243f5784908061242c575080808086855af161239b612e3f565b50156123e75783925b73__$e1901b2f318a4d96da8f9740d515a2b820$__803b156123e35761109993859360405195869485938493630a066c1360e41b855260048501613302565b8480fd5b60405162461bcd60e51b815260206004820152601d60248201527f4572726f723a20746f6b656e207472616e73666572206661696c65642e0000006044820152606490fd5b848361243a92969396613334565b6123a4565b60405162461bcd60e51b815260206004820152601760248201527f4572726f723a206164647265737320696e76616c69642e0000000000000000006044820152606490fd5b503461014057806003193601126101405761249d6130c7565b6124a561310b565b33815260209061010c82526040812073__$e1901b2f318a4d96da8f9740d515a2b820$__90604051936330a2fead60e01b85528060048601526024948181806124ef898201613016565b0381875af490811561290d5785916128f0575b5060048110156128dd5760026125189114613259565b60ff806101095416806128d0575b1561288c57600583019283548015600014612826575061254681546136fd565b90600183015560028201555b6003810180549460018301548610156127ea5761256e836132af565b9161010a549261259061010b549461258a888760081c16612cad565b906130ba565b96868560101c169060646125be6125af6125a985612cad565b8c6130ba565b928501978a8951911690612cda565b0491806127d157508b5b60a0840180518061274a575050894210918d8360001461273757610708905b04926001840180941161272457156126e65750505096935b61261160608251930192835190613383565b88116126c9575b50506126288660069697986130ba565b9055550190815490808216968188146126b757506001869796959601169060ff191617905560018060a01b03610101612665833384845416613334565b541692803b156109eb57604051632d66108160e21b815293849283918291612691913360048501613302565b03915af4801561034b576126a85750600160c95580f35b6126b190612a24565b386110a8565b634e487b7160e01b8752601160045286fd5b6006969750612628916126df9151905190613383565b9695612618565b809a93929a4210600014612716575061270a612710939261258a61258a938d612cda565b99612cad565b936125ff565b9950505050835196936125ff565b634e487b7160e01b8f5260116004528f8ffd5b506107086127458c42613383565b6125e7565b9192935099508042106000146127bf57506107088c5b0491600183018093116127ac5780421060001461279157509061258a6127896127109383612cda565b995191612cad565b985050506127a58451606083015190613383565b96936125ff565b634e487b7160e01b8d5260116004528d8dfd5b6127cc6107089142613383565b612760565b6127e5906127e0848951613383565b613390565b6125c8565b60405162461bcd60e51b8152600481018690526015818b01527422b93937b91d103b32b9ba34b733903237b732b21760591b6044820152606490fd5b600283600684015416101561283c575b50612552565b42106128485738612836565b60405162461bcd60e51b815260048101849052601a818901527f4572726f723a2063616e6e6f742076657374696e67206e6f772e0000000000006044820152606490fd5b60405162461bcd60e51b815260048101839052601c818801527f4572726f723a2076657374696e672069736e277420656e61626c652e000000006044820152606490fd5b5061010a54421015612526565b634e487b7160e01b855260216004528585fd5b6129079150823d84116104cc576104bd8183612abf565b38612502565b6040513d87823e3d90fd5b5034610140578060031936011261014057612931612ae0565b60fe549060ff5491610100805490600160a01b6001900390816101015416916101025416906101035490610104549061010554926101065494610107549661010854986040519c8d9c8d6101a0908181520161298c91612b8c565b9b8d61299e6020820160ff8416612bcc565b6040019060081c60ff16906129b291612bd9565b60608d015260808c015260a08b015260c08a015260e08901528701526101208601526101408501526101608401526101808301520390f35b90600182811c92168015612a1a575b6020831014612a0457565b634e487b7160e01b600052602260045260246000fd5b91607f16916129f9565b6001600160401b03811161219857604052565b6101a081019081106001600160401b0382111761219857604052565b60c081019081106001600160401b0382111761219857604052565b60e081019081106001600160401b0382111761219857604052565b606081019081106001600160401b0382111761219857604052565b604081019081106001600160401b0382111761219857604052565b90601f801991011681019081106001600160401b0382111761219857604052565b6040519060008260fd5491612af4836129ea565b80835292600190818116908115612b6a5750600114612b1d575b50612b1b92500383612abf565b565b60fd60009081529150600080516020613ac18339815191525b848310612b4f5750612b1b935050810160200138612b0e565b81935090816020925483858a01015201910190918592612b36565b905060209250612b1b94915060ff191682840152151560051b82010138612b0e565b919082519283825260005b848110612bb8575050826000602080949584010152601f8019910116010190565b602081830181015184830182015201612b97565b906003821015611db75752565b906004821015611db75752565b600435906001600160a01b0382168203610c5257565b606435906001600160a01b0382168203610c5257565b608435906001600160a01b0382168203610c5257565b6001600160401b03811161219857601f01601f191660200190565b929192612c4f82612c28565b91612c5d6040519384612abf565b829481845281830111610c52578281602093846000960137010152565b610164359060ff82168203610c5257565b610184359060ff82168203610c5257565b6101a4359060ff82168203610c5257565b9061070891828102928184041490151715612cc457565b634e487b7160e01b600052601160045260246000fd5b81810292918115918404141715612cc457565b15612cf457565b60405162461bcd60e51b815260206004820152602c60248201527f46756e6374696f6e206d7573742062652063616c6c6564207468726f7567682060448201526b19195b1959d85d1958d85b1b60a21b6064820152608490fd5b15612d5557565b60405162461bcd60e51b815260206004820152602c60248201527f46756e6374696f6e206d7573742062652063616c6c6564207468726f7567682060448201526b6163746976652070726f787960a01b6064820152608490fd5b803b15612de457600080516020613ae183398151915280546001600160a01b0319166001600160a01b03909216919091179055565b60405162461bcd60e51b815260206004820152602d60248201527f455243313936373a206e657720696d706c656d656e746174696f6e206973206e60448201526c1bdd08184818dbdb9d1c9858dd609a1b6064820152608490fd5b3d15612e6a573d90612e5082612c28565b91612e5e6040519384612abf565b82523d6000602084013e565b606090565b91929015612ed15750815115612e83575090565b3b15612e8c5790565b60405162461bcd60e51b815260206004820152601d60248201527f416464726573733a2063616c6c20746f206e6f6e2d636f6e74726163740000006044820152606490fd5b825190915015612ee45750805190602001fd5b60405162461bcd60e51b815260206004820152908190612f08906024830190612b8c565b0390fd5b15612f1357565b60405162461bcd60e51b815260206004820152602b60248201527f496e697469616c697a61626c653a20636f6e7472616374206973206e6f74206960448201526a6e697469616c697a696e6760a81b6064820152608490fd5b90816020910312610c5257516004811015610c525790565b60fd5460009291612f94826129ea565b80825291600190818116908115612ff95750600114612fb257505050565b9192935060fd600052600080516020613ac1833981519152916000925b848410612fe157505060209250010190565b80546020858501810191909152909301928101612fcf565b915050602093945060ff929192191683830152151560051b010190565b6130266101a08083528201612f84565b9061304d60fe5461303d6020840160ff8316612bcc565b60ff604084019160081c16612bd9565b60ff54606082015261010080546080830152610101546001600160a01b0390811660a0840152610102541660c08301526101035460e08301526101045490820152610105546101208201526101065461014082015261010754610160820152610108546101809091015290565b91908201809211612cc457565b60ff609754166130d357565b60405162461bcd60e51b815260206004820152601060248201526f14185d5cd8589b194e881c185d5cd95960821b6044820152606490fd5b600260c9541461311c57600260c955565b60405162461bcd60e51b815260206004820152601f60248201527f5265656e7472616e637947756172643a207265656e7472616e742063616c6c006044820152606490fd5b90816020910312610c5257518015158103610c525790565b6040516131d1916001600160a01b031661319282612aa4565b6000806020958685527f5361666545524332303a206c6f772d6c6576656c2063616c6c206661696c656487860152868151910182855af1611963612e3f565b805190828215928315613241575b505050156131ea5750565b6084906040519062461bcd60e51b82526004820152602a60248201527f5361666545524332303a204552433230206f7065726174696f6e20646964206e6044820152691bdd081cdd58d8d9595960b21b6064820152fd5b6132519350820181019101613161565b3882816131df565b1561326057565b60405162461bcd60e51b815260206004820152602160248201527f4572726f723a206c61756e63687061642069736e277420636f6d706c657465646044820152601760f91b6064820152608490fd5b906040516132bc81612a6e565b60c060ff600683958054855260018101546020860152600281015460408601526003810154606086015260048101546080860152600581015460a0860152015416910152565b606091949392946080825261331960808301612f84565b6001600160a01b039182166020840152951660408201520152565b60405163a9059cbb60e01b60208201526001600160a01b03909216602483015260448083019390935291815260808101916001600160401b0383118284101761219857612b1b92604052613179565b91908203918211612cc457565b811561339a570490565b634e487b7160e01b600052601260045260246000fd5b156133b757565b60405162461bcd60e51b815260206004820152602260248201527f4572726f723a2063616c6c65722069736e27742061646d696e206f72206f776e60448201526132b960f11b6064820152608490fd5b1561340e57565b606460405162461bcd60e51b815260206004820152602060248201527f4572726f723a20696e76616c6964206c61756e636870616420706172616d732e6044820152fd5b1561345957565b60405162461bcd60e51b815260206004820152601a60248201527f4572726f723a2076657374696e6720697320656e61626c65642e0000000000006044820152606490fd5b156134a557565b60405162461bcd60e51b815260206004820152601860248201527f4572726f723a20746765207261746520696e76616c69642e00000000000000006044820152606490fd5b6004821015611db75752565b6004811015611db75761ff0060fe549160081b169061ff0019161760fe55565b9060e082526101a0918260e0820152600060fd5490613534826129ea565b91826102808501526001908181169081600014613677575060011461362d575b5060c0915060fe549461010061358460ff976135748388018a8316612bcc565b8861012088019160081c16612bd9565b86546101408601525461016085015260018060a01b03806101015416610180860152610102541690840152610103546101c0840152610104546101e084015261010554610200840152610106546102208401526101075461024084015261010854610260840152938061010954161515602084015261010a54604084015261010b548181166060850152818160081c166080850152818160101c1660a085015260181c16910152565b60fd6000908152929150600080516020613ac18339815191525b828410613660575050506102a060c09183010138613554565b80546102a085870101526020909301928101613647565b9250505060c0916102a09160ff191682850152151560051b83010138613554565b1561369f57565b60405162461bcd60e51b815260206004820152601960248201527f4572726f723a2063616c6c65722069736e2774206f776e6572000000000000006044820152606490fd5b90816020910312610c52575160ff81168103610c525790565b9060018060a01b03806101015416604051809263313ce56760e01b9283835282600460209485935afa93841561385857600094613864575b50819061010254169260046040518095819382525afa80156138585761376c9260ff9260009261382b575b50501661010354612cda565b92670de0b6b3a76400009384810290808204861490151715612cc4576137a39061379d60ff61010754951685612cda565b90613390565b6101085490926000918181116137c957505050906137c091612cda565b91600092049190565b606484979594028781046064148815171561110f5768056bc75e2d631000009384890291808304881490151715610e4c575061381f9261381161382596959361381793613390565b90612cda565b049182612cda565b94613383565b92049190565b61384a9250803d10613851575b6138428183612abf565b8101906136e4565b3880613760565b503d613838565b6040513d6000823e3d90fd5b8291945061387e90823d8411613851576138428183612abf565b9390613735565b979390979694929695919560ff548114801590613a5f575b8015613a46575b8015613a2d575b8015613a20575b8015613a13575b8015613a06575b80156139f9575b80156139ec575b156139c5576040516330a2fead60e01b815260206004820181905281806138f760248201613016565b038173__$e1901b2f318a4d96da8f9740d515a2b820$__5af4908115613858576000916139a7575b506004811015611db75715988961399d575b505087613993575b5086613988575b50508461397d575b50508261396a575b508161395a575090565b6001600160a01b03161515919050565b6001600160a01b03161515915038613950565b101592503880613948565b101594503880613940565b1515965038613939565b1197503880613931565b6139bf915060203d81116104cc576104bd8183612abf565b3861391f565b90971196876139935750866139885750508461397d5750508261396a57508161395a575090565b50610107548514156138ce565b50610106548614156138c7565b50610105548314156138c0565b50610104548414156138b9565b50610103548214156138b2565b50610102546001600160a01b03898116911614156138ab565b50610101546001600160a01b03888116911614156138a4565b506101005489141561389d565b600481101580611db75781158015613ab3575b15613a8d5750509050421090565b611db757600103613aad574210159081613aa5575090565b905042111590565b50421190565b5050600060038214613a7f56fe9346ac6dd7de6b96975fec380d4d994c4c12e6a8897544f22915316cc6cca280360894a13ba1a3210667c828492db98dca3e2076cc3735a920a3ca505d382bbca26469706673582212206acf2e23a4574a53853adc530a00bda3911066c23ad186b2329e91b935d6164a64736f6c63430008130033",
  "linkReferences": {
    "contracts/launchpad/lib/LaunchpadLibrary.sol": {
      "LaunchpadLibrary": [
        {
          "length": 20,
          "start": 495
        },
        {
          "length": 20,
          "start": 2412
        },
        {
          "length": 20,
          "start": 3489
        },
        {
          "length": 20,
          "start": 4065
        },
        {
          "length": 20,
          "start": 5149
        },
        {
          "length": 20,
          "start": 5415
        },
        {
          "length": 20,
          "start": 7116
        },
        {
          "length": 20,
          "start": 9186
        },
        {
          "length": 20,
          "start": 9458
        },
        {
          "length": 20,
          "start": 14647
        }
      ]
    }
  },
  "deployedLinkReferences": {
    "contracts/launchpad/lib/LaunchpadLibrary.sol": {
      "LaunchpadLibrary": [
        {
          "length": 20,
          "start": 435
        },
        {
          "length": 20,
          "start": 2352
        },
        {
          "length": 20,
          "start": 3429
        },
        {
          "length": 20,
          "start": 4005
        },
        {
          "length": 20,
          "start": 5089
        },
        {
          "length": 20,
          "start": 5355
        },
        {
          "length": 20,
          "start": 7056
        },
        {
          "length": 20,
          "start": 9126
        },
        {
          "length": 20,
          "start": 9398
        },
        {
          "length": 20,
          "start": 14587
        }
      ]
    }
  }
}