{
  "_format": "hh-sol-artifact-1",
  "contractName": "GuaranteedLaunchpad",
  "sourceName": "contracts/launchpad/implement/GuaranteedLaunchpad.sol",
  "abi": [
    {
      "anonymous": false,
      "inputs": [
        {
          "indexed": false,
          "internalType": "address",
          "name": "previousAdmin",
          "type": "address"
        },
        {
          "indexed": false,
          "internalType": "address",
          "name": "newAdmin",
          "type": "address"
        }
      ],
      "name": "AdminChanged",
      "type": "event"
    },
    {
      "anonymous": false,
      "inputs": [
        {
          "indexed": true,
          "internalType": "address",
          "name": "beacon",
          "type": "address"
        }
      ],
      "name": "BeaconUpgraded",
      "type": "event"
    },
    {
      "anonymous": false,
      "inputs": [
        {
          "indexed": false,
          "internalType": "enum LaunchpadLibrary.Tier",
          "name": "tier",
          "type": "uint8"
        },
        {
          "indexed": false,
          "internalType": "uint256",
          "name": "buyAmount",
          "type": "uint256"
        }
      ],
      "name": "BuyAmountOfTier",
      "type": "event"
    },
    {
      "anonymous": false,
      "inputs": [
        {
          "indexed": false,
          "internalType": "uint8",
          "name": "version",
          "type": "uint8"
        }
      ],
      "name": "Initialized",
      "type": "event"
    },
    {
      "anonymous": false,
      "inputs": [
        {
          "indexed": false,
          "internalType": "address",
          "name": "account",
          "type": "address"
        }
      ],
      "name": "Paused",
      "type": "event"
    },
    {
      "anonymous": false,
      "inputs": [
        {
          "indexed": false,
          "internalType": "address",
          "name": "account",
          "type": "address"
        }
      ],
      "name": "Unpaused",
      "type": "event"
    },
    {
      "anonymous": false,
      "inputs": [
        {
          "indexed": true,
          "internalType": "address",
          "name": "implementation",
          "type": "address"
        }
      ],
      "name": "Upgraded",
      "type": "event"
    },
    {
      "inputs": [],
      "name": "_DAYLY",
      "outputs": [
        {
          "internalType": "uint256",
          "name": "",
          "type": "uint256"
        }
      ],
      "stateMutability": "view",
      "type": "function"
    },
    {
      "inputs": [],
      "name": "_MONTHLY",
      "outputs": [
        {
          "internalType": "uint256",
          "name": "",
          "type": "uint256"
        }
      ],
      "stateMutability": "view",
      "type": "function"
    },
    {
      "inputs": [],
      "name": "_PREFIX_SIGNED_MESSAGE",
      "outputs": [
        {
          "internalType": "string",
          "name": "",
          "type": "string"
        }
      ],
      "stateMutability": "view",
      "type": "function"
    },
    {
      "inputs": [
        {
          "internalType": "enum LaunchpadLibrary.Tier",
          "name": "",
          "type": "uint8"
        }
      ],
      "name": "buyAmountOfTier",
      "outputs": [
        {
          "internalType": "uint256",
          "name": "",
          "type": "uint256"
        }
      ],
      "stateMutability": "view",
      "type": "function"
    },
    {
      "inputs": [
        {
          "internalType": "address",
          "name": "_buyer",
          "type": "address"
        }
      ],
      "name": "buyerInformation",
      "outputs": [
        {
          "components": [
            {
              "internalType": "uint256",
              "name": "purchaseAmount",
              "type": "uint256"
            },
            {
              "internalType": "uint256",
              "name": "receiveAmount",
              "type": "uint256"
            },
            {
              "internalType": "uint256",
              "name": "refundAmount",
              "type": "uint256"
            },
            {
              "internalType": "uint256",
              "name": "vestedAmount",
              "type": "uint256"
            },
            {
              "internalType": "uint256",
              "name": "withdrawAmount",
              "type": "uint256"
            },
            {
              "internalType": "uint256",
              "name": "vestingTime",
              "type": "uint256"
            },
            {
              "internalType": "uint8",
              "name": "vestingStep",
              "type": "uint8"
            }
          ],
          "internalType": "struct LaunchpadLibrary.Buyer",
          "name": "",
          "type": "tuple"
        }
      ],
      "stateMutability": "view",
      "type": "function"
    },
    {
      "inputs": [
        {
          "internalType": "address",
          "name": "",
          "type": "address"
        }
      ],
      "name": "buyers",
      "outputs": [
        {
          "internalType": "uint256",
          "name": "purchaseAmount",
          "type": "uint256"
        },
        {
          "internalType": "uint256",
          "name": "receiveAmount",
          "type": "uint256"
        },
        {
          "internalType": "uint256",
          "name": "refundAmount",
          "type": "uint256"
        },
        {
          "internalType": "uint256",
          "name": "vestedAmount",
          "type": "uint256"
        },
        {
          "internalType": "uint256",
          "name": "withdrawAmount",
          "type": "uint256"
        },
        {
          "internalType": "uint256",
          "name": "vestingTime",
          "type": "uint256"
        },
        {
          "internalType": "uint8",
          "name": "vestingStep",
          "type": "uint8"
        }
      ],
      "stateMutability": "view",
      "type": "function"
    },
    {
      "inputs": [
        {
          "internalType": "uint256",
          "name": "_purchaseAmount",
          "type": "uint256"
        }
      ],
      "name": "calcReceiveAndRefundAmount",
      "outputs": [
        {
          "internalType": "uint256",
          "name": "",
          "type": "uint256"
        },
        {
          "internalType": "uint256",
          "name": "",
          "type": "uint256"
        }
      ],
      "stateMutability": "view",
      "type": "function"
    },
    {
      "inputs": [
        {
          "internalType": "address",
          "name": "_to",
          "type": "address"
        },
        {
          "internalType": "address",
          "name": "_token",
          "type": "address"
        },
        {
          "internalType": "uint256",
          "name": "_amount",
          "type": "uint256"
        }
      ],
      "name": "emergencyWithdrawToken",
      "outputs": [],
      "stateMutability": "nonpayable",
      "type": "function"
    },
    {
      "inputs": [
        {
          "internalType": "enum LaunchpadLibrary.LaunchpadStatus",
          "name": "_status",
          "type": "uint8"
        },
        {
          "internalType": "uint256",
          "name": "_startTime",
          "type": "uint256"
        },
        {
          "internalType": "uint256",
          "name": "_endTime",
          "type": "uint256"
        },
        {
          "internalType": "address",
          "name": "_sellToken",
          "type": "address"
        },
        {
          "internalType": "address",
          "name": "_buyToken",
          "type": "address"
        },
        {
          "internalType": "uint256",
          "name": "_totalSell",
          "type": "uint256"
        },
        {
          "internalType": "uint256",
          "name": "_softCap",
          "type": "uint256"
        },
        {
          "internalType": "uint256",
          "name": "_hardCap",
          "type": "uint256"
        },
        {
          "internalType": "bool",
          "name": "_vestingEnable",
          "type": "bool"
        },
        {
          "internalType": "uint8",
          "name": "_tgeRate",
          "type": "uint8"
        },
        {
          "internalType": "uint8",
          "name": "_cliffTime",
          "type": "uint8"
        },
        {
          "internalType": "uint8",
          "name": "_linearTime",
          "type": "uint8"
        },
        {
          "internalType": "uint8",
          "name": "_vestingDelay",
          "type": "uint8"
        },
        {
          "internalType": "uint8[]",
          "name": "_members",
          "type": "uint8[]"
        },
        {
          "internalType": "uint8[]",
          "name": "_poolWeights",
          "type": "uint8[]"
        },
        {
          "internalType": "uint256",
          "name": "_signTime",
          "type": "uint256"
        },
        {
          "internalType": "bytes",
          "name": "_signature",
          "type": "bytes"
        }
      ],
      "name": "guaranteedLaunchpadConfig",
      "outputs": [],
      "stateMutability": "nonpayable",
      "type": "function"
    },
    {
      "inputs": [
        {
          "internalType": "string",
          "name": "_projectId",
          "type": "string"
        },
        {
          "internalType": "uint256",
          "name": "_startTime",
          "type": "uint256"
        },
        {
          "internalType": "uint256",
          "name": "_endTime",
          "type": "uint256"
        },
        {
          "internalType": "address",
          "name": "_sellToken",
          "type": "address"
        },
        {
          "internalType": "address",
          "name": "_buyToken",
          "type": "address"
        },
        {
          "internalType": "uint256",
          "name": "_totalSell",
          "type": "uint256"
        },
        {
          "internalType": "uint256",
          "name": "_softCap",
          "type": "uint256"
        },
        {
          "internalType": "uint256",
          "name": "_hardCap",
          "type": "uint256"
        },
        {
          "internalType": "uint8",
          "name": "_tgeRate",
          "type": "uint8"
        },
        {
          "internalType": "uint8",
          "name": "_cliffTime",
          "type": "uint8"
        },
        {
          "internalType": "uint8",
          "name": "_linearTime",
          "type": "uint8"
        },
        {
          "internalType": "uint8",
          "name": "_vestingDelay",
          "type": "uint8"
        },
        {
          "internalType": "uint8[]",
          "name": "_members",
          "type": "uint8[]"
        },
        {
          "internalType": "uint8[]",
          "name": "_poolWeights",
          "type": "uint8[]"
        },
        {
          "internalType": "uint256",
          "name": "_signTime",
          "type": "uint256"
        },
        {
          "internalType": "bytes",
          "name": "_signature",
          "type": "bytes"
        },
        {
          "internalType": "address",
          "name": "_roleManagement",
          "type": "address"
        }
      ],
      "name": "initialize",
      "outputs": [],
      "stateMutability": "nonpayable",
      "type": "function"
    },
    {
      "inputs": [],
      "name": "launchpad",
      "outputs": [
        {
          "internalType": "string",
          "name": "projectId",
          "type": "string"
        },
        {
          "internalType": "enum LaunchpadLibrary.LaunchpadType",
          "name": "launchpadType",
          "type": "uint8"
        },
        {
          "internalType": "enum LaunchpadLibrary.LaunchpadStatus",
          "name": "launchpadStatus",
          "type": "uint8"
        },
        {
          "internalType": "uint256",
          "name": "startTime",
          "type": "uint256"
        },
        {
          "internalType": "uint256",
          "name": "endTime",
          "type": "uint256"
        },
        {
          "internalType": "address",
          "name": "sellToken",
          "type": "address"
        },
        {
          "internalType": "address",
          "name": "buyToken",
          "type": "address"
        },
        {
          "internalType": "uint256",
          "name": "totalSell",
          "type": "uint256"
        },
        {
          "internalType": "uint256",
          "name": "minBuy",
          "type": "uint256"
        },
        {
          "internalType": "uint256",
          "name": "maxBuy",
          "type": "uint256"
        },
        {
          "internalType": "uint256",
          "name": "softCap",
          "type": "uint256"
        },
        {
          "internalType": "uint256",
          "name": "hardCap",
          "type": "uint256"
        },
        {
          "internalType": "uint256",
          "name": "totalRaise",
          "type": "uint256"
        }
      ],
      "stateMutability": "view",
      "type": "function"
    },
    {
      "inputs": [
        {
          "internalType": "enum LaunchpadLibrary.LaunchpadStatus",
          "name": "_status",
          "type": "uint8"
        },
        {
          "internalType": "uint256",
          "name": "_startTime",
          "type": "uint256"
        },
        {
          "internalType": "uint256",
          "name": "_endTime",
          "type": "uint256"
        },
        {
          "internalType": "address",
          "name": "_sellToken",
          "type": "address"
        },
        {
          "internalType": "address",
          "name": "_buyToken",
          "type": "address"
        },
        {
          "internalType": "uint256",
          "name": "_totalSell",
          "type": "uint256"
        },
        {
          "internalType": "uint256",
          "name": "_minBuy",
          "type": "uint256"
        },
        {
          "internalType": "uint256",
          "name": "_maxBuy",
          "type": "uint256"
        },
        {
          "internalType": "uint256",
          "name": "_softCap",
          "type": "uint256"
        },
        {
          "internalType": "uint256",
          "name": "_hardCap",
          "type": "uint256"
        },
        {
          "internalType": "bool",
          "name": "_vestingEnable",
          "type": "bool"
        },
        {
          "internalType": "uint8",
          "name": "_tgeRate",
          "type": "uint8"
        },
        {
          "internalType": "uint8",
          "name": "_cliffTime",
          "type": "uint8"
        },
        {
          "internalType": "uint8",
          "name": "_linearTime",
          "type": "uint8"
        },
        {
          "internalType": "uint8",
          "name": "_vestingDelay",
          "type": "uint8"
        }
      ],
      "name": "launchpadConfig",
      "outputs": [],
      "stateMutability": "nonpayable",
      "type": "function"
    },
    {
      "inputs": [],
      "name": "launchpadInformation",
      "outputs": [
        {
          "components": [
            {
              "internalType": "string",
              "name": "projectId",
              "type": "string"
            },
            {
              "internalType": "enum LaunchpadLibrary.LaunchpadType",
              "name": "launchpadType",
              "type": "uint8"
            },
            {
              "internalType": "enum LaunchpadLibrary.LaunchpadStatus",
              "name": "launchpadStatus",
              "type": "uint8"
            },
            {
              "internalType": "uint256",
              "name": "startTime",
              "type": "uint256"
            },
            {
              "internalType": "uint256",
              "name": "endTime",
              "type": "uint256"
            },
            {
              "internalType": "address",
              "name": "sellToken",
              "type": "address"
            },
            {
              "internalType": "address",
              "name": "buyToken",
              "type": "address"
            },
            {
              "internalType": "uint256",
              "name": "totalSell",
              "type": "uint256"
            },
            {
              "internalType": "uint256",
              "name": "minBuy",
              "type": "uint256"
            },
            {
              "internalType": "uint256",
              "name": "maxBuy",
              "type": "uint256"
            },
            {
              "internalType": "uint256",
              "name": "softCap",
              "type": "uint256"
            },
            {
              "internalType": "uint256",
              "name": "hardCap",
              "type": "uint256"
            },
            {
              "internalType": "uint256",
              "name": "totalRaise",
              "type": "uint256"
            }
          ],
          "internalType": "struct LaunchpadLibrary.Launchpad",
          "name": "",
          "type": "tuple"
        },
        {
          "components": [
            {
              "internalType": "bool",
              "name": "vestingEnable",
              "type": "bool"
            },
            {
              "internalType": "uint256",
              "name": "vestingTime",
              "type": "uint256"
            },
            {
              "internalType": "uint8",
              "name": "tgeRate",
              "type": "uint8"
            },
            {
              "internalType": "uint8",
              "name": "cliffTime",
              "type": "uint8"
            },
            {
              "internalType": "uint8",
              "name": "linearTime",
              "type": "uint8"
            },
            {
              "internalType": "uint8",
              "name": "vestingDelay",
              "type": "uint8"
            }
          ],
          "internalType": "struct LaunchpadLibrary.Vesting",
          "name": "",
          "type": "tuple"
        }
      ],
      "stateMutability": "view",
      "type": "function"
    },
    {
      "inputs": [],
      "name": "pause",
      "outputs": [],
      "stateMutability": "nonpayable",
      "type": "function"
    },
    {
      "inputs": [],
      "name": "paused",
      "outputs": [
        {
          "internalType": "bool",
          "name": "",
          "type": "bool"
        }
      ],
      "stateMutability": "view",
      "type": "function"
    },
    {
      "inputs": [],
      "name": "proxiableUUID",
      "outputs": [
        {
          "internalType": "bytes32",
          "name": "",
          "type": "bytes32"
        }
      ],
      "stateMutability": "view",
      "type": "function"
    },
    {
      "inputs": [
        {
          "internalType": "enum LaunchpadLibrary.Tier",
          "name": "_tierId",
          "type": "uint8"
        },
        {
          "internalType": "uint256",
          "name": "_signTime",
          "type": "uint256"
        },
        {
          "internalType": "bytes",
          "name": "_signature",
          "type": "bytes"
        }
      ],
      "name": "purchaseToken",
      "outputs": [],
      "stateMutability": "nonpayable",
      "type": "function"
    },
    {
      "inputs": [],
      "name": "refundTax",
      "outputs": [
        {
          "internalType": "uint256",
          "name": "",
          "type": "uint256"
        }
      ],
      "stateMutability": "view",
      "type": "function"
    },
    {
      "inputs": [
        {
          "internalType": "uint256",
          "name": "_tax",
          "type": "uint256"
        }
      ],
      "name": "refundTaxConfig",
      "outputs": [],
      "stateMutability": "nonpayable",
      "type": "function"
    },
    {
      "inputs": [],
      "name": "refundToken",
      "outputs": [],
      "stateMutability": "nonpayable",
      "type": "function"
    },
    {
      "inputs": [],
      "name": "roleManagement",
      "outputs": [
        {
          "internalType": "contract RoleManagement",
          "name": "",
          "type": "address"
        }
      ],
      "stateMutability": "view",
      "type": "function"
    },
    {
      "inputs": [],
      "name": "unpause",
      "outputs": [],
      "stateMutability": "nonpayable",
      "type": "function"
    },
    {
      "inputs": [
        {
          "internalType": "address",
          "name": "newImplementation",
          "type": "address"
        }
      ],
      "name": "upgradeTo",
      "outputs": [],
      "stateMutability": "nonpayable",
      "type": "function"
    },
    {
      "inputs": [
        {
          "internalType": "address",
          "name": "newImplementation",
          "type": "address"
        },
        {
          "internalType": "bytes",
          "name": "data",
          "type": "bytes"
        }
      ],
      "name": "upgradeToAndCall",
      "outputs": [],
      "stateMutability": "payable",
      "type": "function"
    },
    {
      "inputs": [],
      "name": "vesting",
      "outputs": [
        {
          "internalType": "bool",
          "name": "vestingEnable",
          "type": "bool"
        },
        {
          "internalType": "uint256",
          "name": "vestingTime",
          "type": "uint256"
        },
        {
          "internalType": "uint8",
          "name": "tgeRate",
          "type": "uint8"
        },
        {
          "internalType": "uint8",
          "name": "cliffTime",
          "type": "uint8"
        },
        {
          "internalType": "uint8",
          "name": "linearTime",
          "type": "uint8"
        },
        {
          "internalType": "uint8",
          "name": "vestingDelay",
          "type": "uint8"
        }
      ],
      "stateMutability": "view",
      "type": "function"
    },
    {
      "inputs": [],
      "name": "vestingToken",
      "outputs": [],
      "stateMutability": "nonpayable",
      "type": "function"
    }
  ],
  "bytecode": "0x60a080604052346100365730608052600a60fb556148d5908161003c8239608051818181611c0401528181611cf501526124830152f35b600080fdfe6080604052600436101561001257600080fd5b6000803560e01c806302669b5214612e9557806319d152fa14612a17578063277327a51461289f5780632ea0d108146127ba5780633659cfe61461245e5780633f4ba83a1461238f578063405164611461206657806344c63eec1461200b5780634f1ef28614611cb557806352d1902d14611bf15780635c180ffd1461178f5780635c975abb1461176c5780635cb732be1461151e57806380e2b540146111755780638456cb59146110c1578063914cbaf914610ee857806397a993aa14610e69578063ac8c767614610e35578063ae68d3f214610e0a578063b977ba1814610de1578063cd4e723a1461069c578063dec8067814610669578063e48c7faf14610194578063f741460214610176578063f83b27c4146101595763fbf3f92b1461013b57600080fd5b346101565780600319360112610156576020604051603c8152f35b80fd5b503461015657806003193601126101565760206040516107088152f35b5034610156578060031936011261015657602060fb54604051908152f35b50346101565761022036600319011261015657600480351015610156576101b9613181565b6101c1613197565b906101043515156101043503610664576101d961323f565b6101e1613250565b906101ea61321d565b906101f361322e565b916101a435936001600160401b03948581116106605761021790369060040161329a565b966101c4358681116105635761023190369060040161329a565b95610204359081116105635761024b9036906004016131ff565b9660018060a01b0360fc5416604051630935e01b60e21b8152336004820152602081602481855afa908115610655578c91610636575b5080156105d1575b610293915061362b565b6102ac60e43560c43560a435858560443560243561465f565b806105b5575b6102bb90613dd3565b6102cb60ff610109541615613e1e565b61010435610506575b60ff83161580806104fb575b156104c057506102f5606460ff871614613e6a565b610300600435613ec2565b60243560ff55604435610100556bffffffffffffffffffffffff60a01b906101019060018060a01b0316828254161790556101029160018060a01b03169082541617905560a435610103558761010455876101055560c4356101065560e4356101075560ff19610109541660ff6101043515151617610109556101043561047b575b62ff00009061ff0061010b9560ff63ff00000088549260181b1696169063ffffffff1916179160081b16179160101b16171790558373__$e1901b2f318a4d96da8f9740d515a2b820$__803b15610477578160405180926342b281cb60e11b825281806103f160048201613ee2565b03915af4801561046c57610454575b50506104519261041360e4358383613bd1565b61042e60405192610428602085018094613583565b90613583565b916104486020826101e4359586815203808452018261303c565b519020906140be565b80f35b61045d90612fa1565b610468578338610400565b8380fd5b6040513d84823e3d90fd5b5080fd5b60ff8416603c810290808204603c14901517156104ac57906104a162ff000092426137d0565b61010a559050610382565b634e487b7160e01b89526011600452602489fd5b606460ff87161115806104dd575b6104d89150613e6a565b6102f5565b508015906104ef575b6104d8906104ce565b5060ff841615156104e6565b5060ff8516156102e0565b6040516330a2fead60e01b8152602060048201819052818061052a6024820161369a565b038173__$e1901b2f318a4d96da8f9740d515a2b820$__5af49081156105aa578b9161057b575b506004811015610567576002146102d4575b8980fd5b634e487b7160e01b8b52602160045260248bfd5b61059d915060203d6020116105a3575b610595818361303c565b810190613682565b38610551565b503d61058b565b6040513d8d823e3d90fd5b506102bb6105ca60443560243560043561480b565b90506102b2565b506020602491604051928380926317aa5fb760e11b82523360048301525afa80156105aa57610293918c91610607575b50610289565b610629915060203d60201161062f575b610621818361303c565b810190613613565b38610601565b503d610617565b61064f915060203d60201161062f57610621818361303c565b38610281565b6040513d8e823e3d90fd5b8880fd5b600080fd5b5034610156576020366003190112610156576004359060068210156101565760206106938361330a565b54604051908152f35b503461015657610220366003190112610156576004356001600160401b0381116104775736602382011215610477576106df9036906024816004013591016131c8565b6106e7613181565b906106f0613197565b610104359160ff831683036106645761070761323f565b92610710613250565b9061071961321d565b91610184356001600160401b0381116106605761073a90369060040161329a565b956101a4356001600160401b0381116105635761075b90369060040161329a565b946101e4356001600160401b038111610ddd5761077c9036906004016131ff565b96610204356001600160a01b0381169003610664578a549960ff8b60081c16159a8b809c610dd0575b8015610db9575b15610d5d5760ff1981166001178d558b610d4c575b506108ac60ff8d5460081c166107d6816135b3565b6107df816135b3565b6107e8816135b3565b6107f1816135b3565b60ff1960975416609755610804816135b3565b61080d816135b3565b600160c9558d6024354210610d4257506108286001916135b3565b6024356044351180610d37575b80610d2f575b80610d21575b80610d0f575b80610cfd575b80610ce3575b61085c90613dd3565b61086c60ff610109541615613e1e565b60ff8616158080610cd8575b15610c9d575061088d606460ff8a1614613e6a565b6040519461089a86612fb4565b85526000602086015260408501613eb6565b602435606084015260443560808401526001600160a01b0390811660a08401521660c082015260a43560e082015261010081018a905261012081018a905260c43561014082015260e43561016082015261018081018a905280518051906001600160401b038211610c8957819061092460fd54612f67565b601f8111610c15575b50602090601f8311600114610b9f578d92610b94575b50508160011b916000199060031b1c19161760fd555b602081015160038110156105675760ff801960fe541691161760fe55604081015160048110156105675762ff0000929161099561018092613ec2565b606081015160ff55608081015161010090815560a082015161010180546001600160a01b039283166001600160a01b03199182161790915560c0840151610102805491909316911617905560e08201516101035581015161010455610120810151610105556101408101516101065561016081015161010755015161010855604051610a2081612fd0565b8a81528a602082015260ff8516604082015260ff8216606082015260ff8416608082015260a060ff871691015260ff19610109541660ff8b15151617610109558961010a5561ff0061010b9560ff63ff00000088549260181b1696169063ffffffff1916179160081b16179160101b16171790558473__$e1901b2f318a4d96da8f9740d515a2b820$__803b15610477578160405180926342b281cb60e11b82528180610acf60048201613ee2565b03915af4801561046c57610b7c575b505060fc80546001600160a01b031916610204356001600160a01b0316179055610b3e92610b0f60e4358383613bd1565b610b2460405192610428602085018094613583565b916104486020826101c4359586815203808452018261303c565b610b455780f35b61ff001981541681557f7f26b83ff96e1f2b6a682f133852f6798a09c465da95921460cefb3847402498602060405160018152a180f35b610b8590612fa1565b610b90578438610ade565b8480fd5b015190503880610943565b925060fd8d52600080516020614860833981519152908d935b601f1984168510610bfa576001945083601f19811610610be1575b505050811b0160fd55610959565b015160001960f88460031b161c19169055388080610bd3565b81810151835560209485019460019093019290910190610bb8565b90915060fd8d52601f830160051c6000805160206148608339815191520160208410610c74575b839291908e5b601f830160051c600080516020614860833981519152018210610c6657505061092d565b81558493506001018e610c42565b50600080516020614860833981519152610c3c565b634e487b7160e01b8c52604160045260248cfd5b606460ff8a16111580610cba575b610cb59150613e6a565b61088d565b50801590610ccc575b610cb590610cab565b5060ff87161515610cc3565b5060ff881615610878565b5061085c610cf66044356024358461480b565b9050610853565b506001600160a01b038416151561084d565b506001600160a01b0383161515610847565b5060c43560e4351015610841565b50600161083b565b5060a4351515610835565b61082890916135b3565b61ffff1916610101178c55386107c1565b60405162461bcd60e51b815260206004820152602e60248201527f496e697469616c697a61626c653a20636f6e747261637420697320616c72656160448201526d191e481a5b9a5d1a585b1a5e995960921b6064820152608490fd5b50303b1580156107ac5750600160ff8216146107ac565b50600160ff8216106107a5565b8a80fd5b503461015657806003193601126101565760fc546040516001600160a01b039091168152602090f35b5034610156576020366003190112610156576040610e296004356142ce565b82519182526020820152f35b5034610156578060031936011261015657610e65610e51613261565b60405191829160208352602083019061312c565b0390f35b50346101565760203660031901126101565760e0906040906001600160a01b03610e9161316b565b16815261010c602052208054906001810154906002810154600382015460048301549160ff600660058601549501541694604051968752602087015260408601526060850152608084015260a083015260c0820152f35b50346101565760208060031936011261047757610f0361316b565b8260c0604051610f1281612feb565b82815282858201528260408201528260608201528260808201528260a0820152015260018060a01b0316825261010c8152610f4f604083206139ba565b6040516330a2fead60e01b81526004810183905292828480610f736024820161369a565b038173__$e1901b2f318a4d96da8f9740d515a2b820$__5af49384156110b4578194611095575b50610fa582516142ce565b90946004811015611081576001036110725750815160fb54606403916064831161105e5750916064610fdc60e0969360ff95613351565b04935b8151946060830151906080840151928660c060a0870151960151169560c060405161100981612feb565b8a815283810192835260408101948552606081019586526080810196875260a081019788520196875260405198895251908801525160408701525160608601525160808501525160a0840152511660c0820152f35b634e487b7160e01b81526011600452602490fd5b60e09491509160ff9293610fdf565b634e487b7160e01b83526021600452602483fd5b6110ad919450833d85116105a357610595818361303c565b9238610f9a565b50604051903d90823e3d90fd5b503461015657806003193601126101565760fc546040516317aa5fb760e11b815233600482015290602090829060249082906001600160a01b03165afa801561046c57611115918391611157575b50614064565b61111d6137ea565b600160ff1960975416176097557f62e78cea01bee320cd4e420270b5ea74000d11b0c9f74754ebdbfc544b05a2586020604051338152a180f35b61116f915060203d811161062f57610621818361303c565b3861110f565b503461015657606036600319011261015657600435906006821015610156576044916001600160401b0390602490813590853584811161151a576111c06111f49136906004016131ff565b6111c86137ea565b6111d061382e565b60405193602094858101908560f81b82528260218201526021815261044881613006565b6111fd8161330a565b549033865261010c8352604086209673__$e1901b2f318a4d96da8f9740d515a2b820$__97604051966330a2fead60e01b88528560048901528588806112448a820161369a565b03818d5af497881561150f5789986114f0575b5061010280546001600160a01b0393919290841660048b10156114dd576001809b0361149a578615611457578254611409576040516323b872dd60e01b8a820152338b820152308782015260648082018a905281529160a08301908111838210176113f4576040526112c99190613884565b6112d48682546137d0565b90556101086112e48682546137d0565b9055541691883b156113f057604051956308438e8560e41b875260a0600488015260009560fd549061131582612f67565b918260a48b01528a811690816000146113cb5750600114611386575b5050948694899a94869461134c86958d9c9d9a8701906137dd565b33908501526064840152608483015203915af4801561046c57611372575b505060c95580f35b61137b90612fa1565b61047757813861136a565b60fd60009081529297506000805160206148608339815191525b8284106113b757505050860160c401948489611331565b8054848b0160c40152928101928a016113a0565b60ff191660c4808c019190915292151560051b8a0190920197508691508a9050611331565b8780fd5b8a634e487b7160e01b60005260416004526000fd5b60405162461bcd60e51b8152600481018a90526022818c01527f4572726f723a20796f752063616e206f6e6c79207075726368617365206f6e638188015261329760f11b6064820152608490fd5b60405162461bcd60e51b8152600481018a90526019818c01527f4572726f723a20796f75206172656e2774207374616b65722e0000000000000081880152606490fd5b60405162461bcd60e51b8152600481018a9052601e818c01527f4572726f723a206c61756e63687061642069736e2774206163746976652e000081880152606490fd5b634e487b7160e01b8c526021600452898cfd5b611508919850863d88116105a357610595818361303c565b9638611257565b6040513d8b823e3d90fd5b8580fd5b50346101565780600319360112610156576115376137ea565b61153f61382e565b33815260209061010c82526040812073__$e1901b2f318a4d96da8f9740d515a2b820$__906040516330a2fead60e01b81528460048201528481806115866024820161369a565b0381865af4908115611761578491611744575b50600481101561173057806115b16001921515613964565b1480156116e55783825492555b836101088381548181106000146116d3575050555b156116ce5760fb5460640390606482116116ba576064916115f391613351565b045b80156116755782935060018060a01b03610102611616833384845416613adf565b541690823b156116705760405163083d89bd60e01b8152928492849283918291611644913360048501613a1e565b03915af4801561046c5761165c575b50600160c95580f35b61166590612fa1565b610156578038611653565b505050fd5b60405162461bcd60e51b815260048101859052601d60248201527f4572726f723a20726566756e6420616d6f756e74206973207a65726f2e0000006044820152606490fd5b634e487b7160e01b84526011600452602484fd5b6115f5565b6116de929350613b2e565b90556115d3565b600582015415611716575b60046002830154920161170f61170882548095613b2e565b80946137d0565b90556115be565b61172082546142ce565b90600184015560028301556116f0565b634e487b7160e01b84526021600452602484fd5b61175b9150853d87116105a357610595818361303c565b38611599565b6040513d86823e3d90fd5b5034610156578060031936011261015657602060ff609754166040519015158152f35b5034610156576101e036600319011261015657600480351015610156576117b4613181565b6117bc613197565b6101443515156101443503610664576117d361321d565b906117dc61322e565b9260ff6101a435166101a435036106645760ff6101c435166101c435036106645760fc54604051630935e01b60e21b81523360048201526001600160a01b0390911690602081602481855afa908115611be6578791611bc7575b508015611b72575b611848915061362b565b60ff60fe54166003811015611ac95715611b235761187d610124356101043560e43560c43560a4358787604435602435614478565b80611b07575b61188c90613dd3565b61189c60ff610109541615613e1e565b61014435611a69575b60ff8416158080611a5b575b15611a1d57506118c6606460ff851614613e6a565b6118d1600435613ec2565b60243560ff55604435610100556bffffffffffffffffffffffff60a01b906101019060018060a01b0316828254161790556101029160018060a01b03169082541617905560a4356101035560c4356101045560e435610105556101043561010655610124356101075560ff19610109541660ff610144351515161761010955610144356119f1575b61010b9161ff00835460ff63ff0000006101c43560181b1694169063ffffffff1916179160081b161762ff00006101a43560101b16171790558073__$e1901b2f318a4d96da8f9740d515a2b820$__803b156119ee578160405180926342b281cb60e11b825281806119cd60048201613ee2565b03915af4801561046c576119de5750f35b6119e790612fa1565b6101565780f35b50fd5b603c60ff6101c435168181029181830414901517156116ba57611a1490426137d0565b61010a55611959565b606460ff8516111580611a3a575b611a359150613e6a565b6118c6565b50801590611a4c575b611a3590611a2b565b506101a43560ff161515611a43565b5060ff6101a43516156118b1565b6040516330a2fead60e01b81526020600482018190528180611a8d6024820161369a565b038173__$e1901b2f318a4d96da8f9740d515a2b820$__5af4908115611afc578691611add575b506004811015611ac9576002146118a5578480fd5b634e487b7160e01b86526021600452602486fd5b611af6915060203d6020116105a357610595818361303c565b38611ab4565b6040513d88823e3d90fd5b5061188c611b1c60443560243560043561480b565b9050611883565b60405162461bcd60e51b815260206004820152602160248201527f4572726f723a2043616e6e6f742063616c6c20746869732066756e6374696f6e6044820152601760f91b6064820152608490fd5b506020602491604051928380926317aa5fb760e11b82523360048301525afa8015611afc57611848918791611ba8575b5061183e565b611bc1915060203d60201161062f57610621818361303c565b38611ba2565b611be0915060203d60201161062f57610621818361303c565b38611836565b6040513d89823e3d90fd5b50346101565780600319360112610156577f00000000000000000000000000000000000000000000000000000000000000006001600160a01b03163003611c4a5760206040516000805160206148808339815191528152f35b60405162461bcd60e51b815260206004820152603860248201527f555550535570677261646561626c653a206d757374206e6f742062652063616c60448201527f6c6564207468726f7567682064656c656761746563616c6c00000000000000006064820152608490fd5b50604036600319011261015657611cca61316b565b6024356001600160401b03811161200757611ce99036906004016131ff565b6001600160a01b0391907f00000000000000000000000000000000000000000000000000000000000000008316611d2230821415613364565b611d3f6000805160206148808339815191529185835416146133c5565b60fc54604051630935e01b60e21b8152336004820152602095918216908681602481855afa918215611ffc5787918993611fdd575b508215611f87575b5050611d879061362b565b7f4910fdfa16fed3260ed0e7147f7cc6da11a60208b5b9406d12a635614ffd91435460ff1615611dbe575050506104519150613426565b83929316906040516352d1902d60e01b81528581600481865afa60009181611f58575b50611e425760405162461bcd60e51b815260048101879052602e60248201527f45524331393637557067726164653a206e657720696d706c656d656e7461746960448201526d6f6e206973206e6f74205555505360901b6064820152608490fd5b94939403611f0157611e5382613426565b7fbc7cd75a20ee27fd9adebab32041f755214dbc6bffa90cc0225b39da2e5c2d3b600080a2825115801590611ef9575b611e8e575b50505080f35b600080611ef09460405194611ea286613006565b602786527f416464726573733a206c6f772d6c6576656c2064656c65676174652063616c6c81870152660819985a5b195960ca1b604087015281519101845af4611eea6134b6565b916134e6565b50388080611e88565b506001611e83565b60405162461bcd60e51b815260048101849052602960248201527f45524331393637557067726164653a20756e737570706f727465642070726f786044820152681a58589b195555525160ba1b6064820152608490fd5b90918782813d8311611f80575b611f6f818361303c565b810103126101565750519038611de1565b503d611f65565b6040516317aa5fb760e11b81523360048201529250829060249082905afa8015611be657611d87918891611fc0575b5090508538611d7c565b611fd79150873d891161062f57610621818361303c565b38611fb6565b611ff5919350823d841161062f57610621818361303c565b9138611d74565b6040513d8a823e3d90fd5b8280fd5b503461015657806003193601126101565760c060ff610109541660ff61010a5461010b5490604051931515845260208401528181166040840152818160081c166060840152818160101c16608084015260181c1660a0820152f35b50346101565780600319360112610156578061018060405161208781612fb4565b606081528260208201528260408201528260608201528260808201528260a08201528260c08201528260e08201528261010082015282610120820152826101408201528261016082015201528060a06040516120e281612fd0565b82815282602082015282604082015282606082015282608082015201526040516330a2fead60e01b815260206004820152602081806121236024820161369a565b038173__$e1901b2f318a4d96da8f9740d515a2b820$__5af49182156123835791612364575b5060ff60fe541660ff546101005460018060a01b03610101541660018060a01b03610102541661010354610104549061010554926101065494610107549661010854986040519a6121998c612fb4565b6121a161305d565b8c52600381101561234e5760a09c6121c19160208e015260408d01613eb6565b60608b015260808a01528989015260c088015260e08701526101008601526101208501526101408401526101608301526101808201526040519061220482612fd0565b60ff61010954161515825261010a54602083015260ff61010b548181166040850152818160081c166060850152818160101c16608085015260181c168383015260ff60405193849360e0855261018061226b85516101a060e089015261028088019061312c565b9461227f6020820151610100890190613151565b612292604082015161012089019061315e565b60608101516101408801526080810151610160880152600180851b03848201511682880152600180851b0360c0820151166101a088015260e08101516101c08801526101008101516101e0880152610120810151610200880152610140810151610220880152610160810151610240880152015161026086015280511515602086015260208101516040860152826040820151166060860152826060820151166080860152826080820151168286015201511660c08301520390f35b634e487b7160e01b600052602160045260246000fd5b61237d915060203d6020116105a357610595818361303c565b38612149565b604051903d90823e3d90fd5b503461015657806003193601126101565760fc546040516317aa5fb760e11b815233600482015290602090829060249082906001600160a01b03165afa801561046c576123e29183916111575750614064565b60975460ff8116156124225760ff19166097557f5db9ee0a495bf2e6ff9c91a7834c1ba4fdd244a5e8aa4e537bd38aeae4b073aa6020604051338152a180f35b60405162461bcd60e51b815260206004820152601460248201527314185d5cd8589b194e881b9bdd081c185d5cd95960621b6044820152606490fd5b5034610156576020806003193601126104775761247961316b565b6001600160a01b037f00000000000000000000000000000000000000000000000000000000000000008116906124b130831415613364565b6124ce6000805160206148808339815191529282845416146133c5565b8060fc5416604051630935e01b60e21b81523360048201528581602481855afa918215611be6578691889361279b575b508215612745575b50506125119061362b565b60405191848301918383106001600160401b0384111761272f578260405286845260ff7f4910fdfa16fed3260ed0e7147f7cc6da11a60208b5b9406d12a635614ffd9143541660001461256c57505050506104519150613426565b84939416906040516352d1902d60e01b81528681600481865afa60009181612700575b506125f05760405162461bcd60e51b815260048101889052602e60248201527f45524331393637557067726164653a206e657720696d706c656d656e7461746960448201526d6f6e206973206e6f74205555505360901b6064820152608490fd5b959495036126a95761260183613426565b7fbc7cd75a20ee27fd9adebab32041f755214dbc6bffa90cc0225b39da2e5c2d3b600080a28351158015906126a1575b61263d575b5050505080f35b60008091612697957f416464726573733a206c6f772d6c6576656c2064656c65676174652063616c6c6040519661267388613006565b60278852870152660819985a5b195960ca1b60408701525190845af4611eea6134b6565b5038808080612636565b506000612631565b60405162461bcd60e51b815260048101859052602960248201527f45524331393637557067726164653a20756e737570706f727465642070726f786044820152681a58589b195555525160ba1b6064820152608490fd5b90918882813d8311612728575b612717818361303c565b81010312610156575051903861258f565b503d61270d565b634e487b7160e01b600052604160045260246000fd5b6040516317aa5fb760e11b81523360048201529250829060249082905afa8015611afc5761251191879161277e575b5090508438612506565b6127959150863d881161062f57610621818361303c565b38612774565b6127b3919350823d841161062f57610621818361303c565b91386124fe565b5034610156576020806003193601126104775760fc54604051630935e01b60e21b8152336004820152906001600160a01b03168282602481845afa918215611761578492612880575b50811561281e575b836128158361362b565b60043560fb5580f35b6040516317aa5fb760e11b815233600482015291508290829060249082905afa90811561287557612815928492612858575b50503861280b565b61286e9250803d1061062f57610621818361303c565b3880612850565b6040513d85823e3d90fd5b612898919250833d851161062f57610621818361303c565b9038612803565b5034610156576060366003190112610156576128b961316b565b6001600160a01b0390602435908282168083036106645760443593602460208260fc5416604051928380926317aa5fb760e11b82523360048301525afa8015611be65761290c9188916111575750614064565b61291461382e565b8216156129d2578490806129bf575080808086855af16129326134b6565b501561297a5783925b73__$e1901b2f318a4d96da8f9740d515a2b820$__803b15610b905761164493859360405195869485938493630a066c1360e41b855260048501613a1e565b60405162461bcd60e51b815260206004820152601d60248201527f4572726f723a20746f6b656e207472616e73666572206661696c65642e0000006044820152606490fd5b84836129cd92969396613adf565b61293b565b60405162461bcd60e51b815260206004820152601760248201527f4572726f723a206164647265737320696e76616c69642e0000000000000000006044820152606490fd5b5034610156578060031936011261015657612a306137ea565b612a3861382e565b338152602061010c815260408220906040516330a2fead60e01b8152816004820152818180612a696024820161369a565b038173__$e1901b2f318a4d96da8f9740d515a2b820$__5af4908115611761578491612e78575b506004811015611730576002612aa69114613964565b60ff610109541680612e6b575b15612e2757600582015480612dc05750612acd82546142ce565b90600184015560028301555b6003820154916001810154831015612d8357612af4816139ba565b9161010a5492612b1761010b5494612b1160ff8760081c16613324565b906137d0565b9360ff8160101c16906064612b46612b37612b3185613324565b896137d0565b9260ff87870151911690613351565b049180612d685750875b60a08401805180612cf2575050864210600014612ce057610708895b0491600183018311612ccc57874210600014612c875750505093915b8082015191612b9d6060820193845190613b2e565b8611612c6a575b505050612bb483600694956137d0565b6003830155600582015501805460ff612bce818316613a0d565b169060ff19161790558160018060a01b03610101612bf0843384845416613adf565b54169173__$e1901b2f318a4d96da8f9740d515a2b820$__3b1561047757604051632d66108160e21b81529283918291612c2f91903360048501613a1e565b038173__$e1901b2f318a4d96da8f9740d515a2b820$__5af4801561046c57612c5b5750600160c95580f35b612c6490612fa1565b38611653565b0151905160069450612bb491612c809190613b2e565b9338612ba4565b80979392974210600014612cbc57506001612caf612cb69493612b11612b1194848c01613351565b9701613324565b91612b88565b9650505050818101519391612b88565b634e487b7160e01b8a52601160045260248afd5b610708612ced8842613b2e565b612b6c565b919293509650804210600014612d565750610708885b0491600183018093116104ac57804210600014612d39575090612b11612d31612cb69383613351565b965191613324565b95505050612d4f82820151606083015190613b2e565b9391612b88565b612d636107089142613b2e565b612d08565b612d7e90612d798487870151613b2e565b613b3b565b612b50565b60405162461bcd60e51b815260048101839052601560248201527422b93937b91d103b32b9ba34b733903237b732b21760591b6044820152606490fd5b600260ff6006850154161015612dd7575b50612ad9565b4210612de35738612dd1565b6064906040519062461bcd60e51b82526004820152601a60248201527f4572726f723a2063616e6e6f742076657374696e67206e6f772e0000000000006044820152fd5b6064906040519062461bcd60e51b82526004820152601c60248201527f4572726f723a2076657374696e672069736e277420656e61626c652e000000006044820152fd5b5061010a54421015612ab3565b612e8f9150823d84116105a357610595818361303c565b38612a90565b5034610156578060031936011261015657612eae61305d565b60fe549060ff5491610100805490600160a01b6001900390816101015416916101025416906101035490610104549061010554926101065494610107549661010854986040519c8d9c8d6101a09081815201612f099161312c565b9b8d612f1b6020820160ff8416613151565b6040019060081c60ff1690612f2f9161315e565b60608d015260808c015260a08b015260c08a015260e08901528701526101208601526101408501526101608401526101808301520390f35b90600182811c92168015612f97575b6020831014612f8157565b634e487b7160e01b600052602260045260246000fd5b91607f1691612f76565b6001600160401b03811161272f57604052565b6101a081019081106001600160401b0382111761272f57604052565b60c081019081106001600160401b0382111761272f57604052565b60e081019081106001600160401b0382111761272f57604052565b606081019081106001600160401b0382111761272f57604052565b604081019081106001600160401b0382111761272f57604052565b90601f801991011681019081106001600160401b0382111761272f57604052565b6040519060008260fd549161307183612f67565b808352926001908181169081156130e7575060011461309a575b506130989250038361303c565b565b60fd600090815291506000805160206148608339815191525b8483106130cc575061309893505081016020013861308b565b81935090816020925483858a010152019101909185926130b3565b90506020925061309894915060ff191682840152151560051b8201013861308b565b60005b83811061311c5750506000910152565b818101518382015260200161310c565b9060209161314581518092818552858086019101613109565b601f01601f1916010190565b90600382101561234e5752565b90600482101561234e5752565b600435906001600160a01b038216820361066457565b606435906001600160a01b038216820361066457565b608435906001600160a01b038216820361066457565b6001600160401b03811161272f57601f01601f191660200190565b9291926131d4826131ad565b916131e2604051938461303c565b829481845281830111610664578281602093846000960137010152565b9080601f830112156106645781602061321a933591016131c8565b90565b610164359060ff8216820361066457565b610184359060ff8216820361066457565b610124359060ff8216820361066457565b610144359060ff8216820361066457565b6040519061326e82613021565b601c82527f19457468657265756d205369676e6564204d6573736167653a0a3332000000006020830152565b9080601f83011215610664578135906001600160401b03821161272f578160051b604051936020936132ce8584018761303c565b85528380860192820101928311610664578301905b8282106132f1575050505090565b813560ff811681036106645781529083019083016132e3565b600681101561234e5760005261010d602052604060002090565b906107089182810292818404149015171561333b57565b634e487b7160e01b600052601160045260246000fd5b8181029291811591840414171561333b57565b1561336b57565b60405162461bcd60e51b815260206004820152602c60248201527f46756e6374696f6e206d7573742062652063616c6c6564207468726f7567682060448201526b19195b1959d85d1958d85b1b60a21b6064820152608490fd5b156133cc57565b60405162461bcd60e51b815260206004820152602c60248201527f46756e6374696f6e206d7573742062652063616c6c6564207468726f7567682060448201526b6163746976652070726f787960a01b6064820152608490fd5b803b1561345b5760008051602061488083398151915280546001600160a01b0319166001600160a01b03909216919091179055565b60405162461bcd60e51b815260206004820152602d60248201527f455243313936373a206e657720696d706c656d656e746174696f6e206973206e60448201526c1bdd08184818dbdb9d1c9858dd609a1b6064820152608490fd5b3d156134e1573d906134c7826131ad565b916134d5604051938461303c565b82523d6000602084013e565b606090565b9192901561354857508151156134fa575090565b3b156135035790565b60405162461bcd60e51b815260206004820152601d60248201527f416464726573733a2063616c6c20746f206e6f6e2d636f6e74726163740000006044820152606490fd5b82519091501561355b5750805190602001fd5b60405162461bcd60e51b81526020600482015290819061357f90602483019061312c565b0390fd5b805160208092019160005b82811061359c575050505090565b835160ff168552938101939281019260010161358e565b156135ba57565b60405162461bcd60e51b815260206004820152602b60248201527f496e697469616c697a61626c653a20636f6e7472616374206973206e6f74206960448201526a6e697469616c697a696e6760a81b6064820152608490fd5b90816020910312610664575180151581036106645790565b1561363257565b60405162461bcd60e51b815260206004820152602260248201527f4572726f723a2063616c6c65722069736e27742061646d696e206f72206f776e60448201526132b960f11b6064820152608490fd5b90816020910312610664575160048110156106645790565b6101a09081815260009160fd546136b081612f67565b809284015260019081811690816000146137af5750600114613762575b50506136f560fe546136e56020840160ff8316613151565b60ff604084019160081c1661315e565b60ff54606082015261010080546080830152610101546001600160a01b0390811660a0840152610102541660c08301526101035460e08301526101045490820152610105546101208201526101065461014082015261010754610160820152610108546101809091015290565b9091925060fd600052600080516020614860833981519152906000915b8383106137985750506101c091508201019038806136cd565b80546101c08487010152602090920191810161377f565b93945050506101c09160ff191682840152151560051b8201019038806136cd565b9190820180921161333b57565b90600682101561234e5752565b60ff609754166137f657565b60405162461bcd60e51b815260206004820152601060248201526f14185d5cd8589b194e881c185d5cd95960821b6044820152606490fd5b600260c9541461383f57600260c955565b60405162461bcd60e51b815260206004820152601f60248201527f5265656e7472616e637947756172643a207265656e7472616e742063616c6c006044820152606490fd5b6040516138dc916001600160a01b031661389d82613021565b6000806020958685527f5361666545524332303a206c6f772d6c6576656c2063616c6c206661696c656487860152868151910182855af1611eea6134b6565b80519082821592831561394c575b505050156138f55750565b6084906040519062461bcd60e51b82526004820152602a60248201527f5361666545524332303a204552433230206f7065726174696f6e20646964206e6044820152691bdd081cdd58d8d9595960b21b6064820152fd5b61395c9350820181019101613613565b3882816138ea565b1561396b57565b60405162461bcd60e51b815260206004820152602160248201527f4572726f723a206c61756e63687061642069736e277420636f6d706c657465646044820152601760f91b6064820152608490fd5b906040516139c781612feb565b60c060ff600683958054855260018101546020860152600281015460408601526003810154606086015260048101546080860152600581015460a0860152015416910152565b60ff1660ff811461333b5760010190565b909392919360808252600060fd54613a3581612f67565b908160808601526001908181169081600014613ab95750600114613a73575b50506001600160a01b0391821660208401529416604082015260600152565b60fd600090815292506000805160206148608339815191525b828410613aa357505050820160a001606038613a54565b805460a085880101526020909301928101613a8c565b60ff191660a08088019190915292151560051b8601909201925060609150389050613a54565b60405163a9059cbb60e01b60208201526001600160a01b03909216602483015260448083019390935291815260808101916001600160401b0383118284101761272f5761309892604052613884565b9190820391821161333b57565b8115613b45570490565b634e487b7160e01b600052601260045260246000fd5b15613b6257565b60405162461bcd60e51b815260206004820152601960248201527f4572726f723a20696e76616c6964207469657220646174612e000000000000006044820152606490fd5b8051821015613bbb5760209160051b010190565b634e487b7160e01b600052603260045260246000fd5b909291926005938483511480613dc9575b613beb90613b5b565b600092835b60ff8086169088821015613c355791612b118284613c21613c2f96613c18613c29978a613ba7565b5116928a613ba7565b511690613351565b94613a0d565b93613bf0565b50509495935050613c47841515613b5b565b670de0b6b3a7640000938482029180830486149015171561333b57613c6b91613b3b565b60409081519460a086018681106001600160401b0382111761272f578396919652600195868252602092600284840152600385840152600495866060850152876080850152886000905b613d52575b5050505050845b84811115613cd157505050505050565b6006811015613d3d577f35fefb610eb1a079e9e895381c0c49561eed7b8b77f7ebd5672cd4656b19288c83613d058361330a565b54815190613d1382866137dd565b85820152a16000198114613d28578501613cc1565b601184634e487b7160e01b6000525260246000fd5b602184634e487b7160e01b6000525260246000fd5b60ff8082168a811015613dc2578591613d6e613d769286613ba7565b511685613351565b04611fe0828b1b168601516006811015613dad5791613da391613d9d8d989796959461330a565b55613a0d565b9091929394613cb5565b60218a634e487b7160e01b6000525260246000fd5b5050613cba565b5081518514613be2565b15613dda57565b606460405162461bcd60e51b815260206004820152602060248201527f4572726f723a20696e76616c6964206c61756e636870616420706172616d732e6044820152fd5b15613e2557565b60405162461bcd60e51b815260206004820152601a60248201527f4572726f723a2076657374696e6720697320656e61626c65642e0000000000006044820152606490fd5b15613e7157565b60405162461bcd60e51b815260206004820152601860248201527f4572726f723a20746765207261746520696e76616c69642e00000000000000006044820152606490fd5b600482101561234e5752565b600481101561234e5761ff0060fe549160081b169061ff0019161760fe55565b9060e082526101a0918260e0820152600060fd5490613f0082612f67565b918261028085015260019081811690816000146140435750600114613ff9575b5060c0915060fe5494610100613f5060ff97613f408388018a8316613151565b8861012088019160081c1661315e565b86546101408601525461016085015260018060a01b03806101015416610180860152610102541690840152610103546101c0840152610104546101e084015261010554610200840152610106546102208401526101075461024084015261010854610260840152938061010954161515602084015261010a54604084015261010b548181166060850152818160081c166080850152818160101c1660a085015260181c16910152565b60fd60009081529291506000805160206148608339815191525b82841061402c575050506102a060c09183010138613f20565b80546102a085870101526020909301928101614013565b9250505060c0916102a09160ff191682850152151560051b83010138613f20565b1561406b57565b60405162461bcd60e51b815260206004820152601960248201527f4572726f723a2063616c6c65722069736e2774206f776e6572000000000000006044820152606490fd5b519060ff8216820361066457565b9190916140c9613261565b9161412860606040948551614104878260209a8b6140f08184019788815193849201613109565b8201908c820152038a81018452018261303c565b5190209285518093819263a7bb580360e01b8352896004840152602483019061312c565b038173__$e1901b2f318a4d96da8f9740d515a2b820$__5af480156142c3578592916000918291829161426d575b50865193845260ff168484015282860152606082015260008080529060809060015afa156142625760005160fc548351637df73e2760e01b81526001600160a01b0392831660048201529291859184916024918391165afa91821561425757600092614238575b508161422d575b81614217575b50156141d4575050565b60649250519062461bcd60e51b82526004820152601960248201527f4572726f723a20696e76616c6964207369676e61747572652e000000000000006044820152fd5b9050603c810180911161333b57421115386141ca565b4281111591506141c4565b614250919250843d861161062f57610621818361303c565b90386141bd565b83513d6000823e3d90fd5b50513d6000823e3d90fd5b9394505090506060823d82116142bb575b8161428b6060938361303c565b8101031261015657506080859282600093519060ff6142af898884015193016140b0565b92919450509193614156565b3d915061427e565b84513d6000823e3d90fd5b9060018060a01b03806101015416604051809263313ce56760e01b9283835282600460209485935afa93841561443457600094614440575b50819061010254169260046040518095819382525afa908115614434576000916143fc575b5061433d915060ff1661010354613351565b92670de0b6b3a7640000938481029080820486149015171561333b576143749061436e60ff61010754951685613351565b90613b3b565b61010854909260009181811161439a575050509061439191613351565b91600092049190565b60648497959402878104606414881517156116ba5768056bc75e2d63100000938489029180830488149015171561105e57506143f0926143e26143f69695936143e893613b3b565b90613351565b049182613351565b94613b2e565b92049190565b82813d831161442d575b614410818361303c565b81010312610156575060ff61442761433d926140b0565b9061432b565b503d614406565b6040513d6000823e3d90fd5b90938282813d8311614471575b614457818361303c565b81010312610156575061446a82916140b0565b9390614306565b503d61444d565b979390979694929695919560ff548114801590614652575b8015614639575b8015614620575b8015614613575b8015614606575b80156145f9575b80156145ec575b80156145df575b156145b8576040516330a2fead60e01b815260206004820181905281806144ea6024820161369a565b038173__$e1901b2f318a4d96da8f9740d515a2b820$__5af49081156144345760009161459a575b50600481101561234e57159889614590575b505087614586575b508661457b575b505084614570575b50508261455d575b508161454d575090565b6001600160a01b03161515919050565b6001600160a01b03161515915038614543565b10159250388061453b565b101594503880614533565b151596503861452c565b1197503880614524565b6145b2915060203d81116105a357610595818361303c565b38614512565b909711968761458657508661457b575050846145705750508261455d57508161454d575090565b50610107548514156144c1565b50610106548614156144ba565b50610105548314156144b3565b50610104548414156144ac565b50610103548214156144a5565b50610102546001600160a01b038981169116141561449e565b50610101546001600160a01b0388811691161415614497565b5061010054891415614490565b959193909594929460ff5481148015906147fe575b80156147e5575b80156147cc575b80156147bf575b80156147b3575b80156147a7575b801561479a575b801561478d575b15614768576040516330a2fead60e01b815260206004820181905281806146ce6024820161369a565b038173__$e1901b2f318a4d96da8f9740d515a2b820$__5af49081156144345760009161474a575b50600481101561234e57159687614740575b505085614736575b508461472d575b846145705750508261455d57508161454d575090565b60019450614717565b1515945038614710565b1195503880614708565b614762915060203d81116105a357610595818361303c565b386146f6565b909511948561473657508461472d57846145705750508261455d57508161454d575090565b50610107548314156146a5565b506101065484141561469e565b50610105541515614697565b50610104541515614690565b5061010354821415614689565b50610102546001600160a01b0387811691161415614682565b50610101546001600160a01b038681169116141561467b565b5061010054871415614674565b60048110158061234e5781158015614852575b1561482c5750509050421090565b61234e5760010361484c574210159081614844575090565b905042111590565b50421190565b505060006003821461481e56fe9346ac6dd7de6b96975fec380d4d994c4c12e6a8897544f22915316cc6cca280360894a13ba1a3210667c828492db98dca3e2076cc3735a920a3ca505d382bbca264697066735822122004a142187871d88a45cbf4b0f7583e62126375a64c332d113344ca5e9d5f1ccc64736f6c63430008130033",
  "linkReferences": {
    "contracts/launchpad/lib/LaunchpadLibrary.sol": {
      "LaunchpadLibrary": [
        {
          "length": 20,
          "start": 1013
        },
        {
          "length": 20,
          "start": 1386
        },
        {
          "length": 20,
          "start": 2771
        },
        {
          "length": 20,
          "start": 4019
        },
        {
          "length": 20,
          "start": 4682
        },
        {
          "length": 20,
          "start": 5516
        },
        {
          "length": 20,
          "start": 6609
        },
        {
          "length": 20,
          "start": 6861
        },
        {
          "length": 20,
          "start": 8547
        },
        {
          "length": 20,
          "start": 10617
        },
        {
          "length": 20,
          "start": 10921
        },
        {
          "length": 20,
          "start": 11313
        },
        {
          "length": 20,
          "start": 11375
        },
        {
          "length": 20,
          "start": 16744
        },
        {
          "length": 20,
          "start": 17706
        },
        {
          "length": 20,
          "start": 18190
        }
      ]
    }
  },
  "deployedLinkReferences": {
    "contracts/launchpad/lib/LaunchpadLibrary.sol": {
      "LaunchpadLibrary": [
        {
          "length": 20,
          "start": 953
        },
        {
          "length": 20,
          "start": 1326
        },
        {
          "length": 20,
          "start": 2711
        },
        {
          "length": 20,
          "start": 3959
        },
        {
          "length": 20,
          "start": 4622
        },
        {
          "length": 20,
          "start": 5456
        },
        {
          "length": 20,
          "start": 6549
        },
        {
          "length": 20,
          "start": 6801
        },
        {
          "length": 20,
          "start": 8487
        },
        {
          "length": 20,
          "start": 10557
        },
        {
          "length": 20,
          "start": 10861
        },
        {
          "length": 20,
          "start": 11253
        },
        {
          "length": 20,
          "start": 11315
        },
        {
          "length": 20,
          "start": 16684
        },
        {
          "length": 20,
          "start": 17646
        },
        {
          "length": 20,
          "start": 18130
        }
      ]
    }
  }
}