{
  "_format": "hh-sol-artifact-1",
  "contractName": "GuaranteedLaunchpadBeaconProxy",
  "sourceName": "contracts/launchpad/beacon/GuaranteedLaunchpadBeaconProxy.sol",
  "abi": [
    {
      "inputs": [
        {
          "internalType": "address",
          "name": "_beacon",
          "type": "address"
        },
        {
          "internalType": "address",
          "name": "_roleManagement",
          "type": "address"
        }
      ],
      "stateMutability": "nonpayable",
      "type": "constructor"
    },
    {
      "inputs": [],
      "name": "beacon",
      "outputs": [
        {
          "internalType": "address",
          "name": "",
          "type": "address"
        }
      ],
      "stateMutability": "view",
      "type": "function"
    },
    {
      "inputs": [
        {
          "internalType": "string",
          "name": "_projectId",
          "type": "string"
        },
        {
          "internalType": "uint256",
          "name": "_startTime",
          "type": "uint256"
        },
        {
          "internalType": "uint256",
          "name": "_endTime",
          "type": "uint256"
        },
        {
          "internalType": "address",
          "name": "_sellToken",
          "type": "address"
        },
        {
          "internalType": "address",
          "name": "_buyToken",
          "type": "address"
        },
        {
          "internalType": "uint256",
          "name": "_totalSell",
          "type": "uint256"
        },
        {
          "internalType": "uint256",
          "name": "_softCap",
          "type": "uint256"
        },
        {
          "internalType": "uint256",
          "name": "_hardCap",
          "type": "uint256"
        },
        {
          "internalType": "uint8",
          "name": "_tgeRate",
          "type": "uint8"
        },
        {
          "internalType": "uint8",
          "name": "_cliffTime",
          "type": "uint8"
        },
        {
          "internalType": "uint8",
          "name": "_linearTime",
          "type": "uint8"
        },
        {
          "internalType": "uint8",
          "name": "_vestingDelay",
          "type": "uint8"
        },
        {
          "internalType": "uint8[]",
          "name": "_members",
          "type": "uint8[]"
        },
        {
          "internalType": "uint8[]",
          "name": "_poolWeights",
          "type": "uint8[]"
        },
        {
          "internalType": "uint256",
          "name": "_signTime",
          "type": "uint256"
        },
        {
          "internalType": "bytes",
          "name": "_signature",
          "type": "bytes"
        }
      ],
      "name": "createLaunchpadProxy",
      "outputs": [
        {
          "internalType": "address",
          "name": "",
          "type": "address"
        }
      ],
      "stateMutability": "nonpayable",
      "type": "function"
    },
    {
      "inputs": [
        {
          "internalType": "uint256",
          "name": "_proxyId",
          "type": "uint256"
        }
      ],
      "name": "getProxyAddress",
      "outputs": [
        {
          "internalType": "address",
          "name": "",
          "type": "address"
        }
      ],
      "stateMutability": "view",
      "type": "function"
    },
    {
      "inputs": [],
      "name": "proxyId",
      "outputs": [
        {
          "internalType": "uint256",
          "name": "",
          "type": "uint256"
        }
      ],
      "stateMutability": "view",
      "type": "function"
    },
    {
      "inputs": [],
      "name": "roleManagement",
      "outputs": [
        {
          "internalType": "contract RoleManagement",
          "name": "",
          "type": "address"
        }
      ],
      "stateMutability": "view",
      "type": "function"
    }
  ],
  "bytecode": "0x60803461008d57601f61102e38819003918201601f19168301916001600160401b0383118484101761009257808492604094855283398101031261008d57610052602061004b836100a8565b92016100a8565b600180546001600160a01b039384166001600160a01b03199182161790915560028054929093169116179055604051610f7190816100bd8239f35b600080fd5b634e487b7160e01b600052604160045260246000fd5b51906001600160a01b038216820361008d5756fe60808060405260043610156200001457600080fd5b600090813560e01c908163384ba7f214620005fb5750806359659e9014620005d0578063b601074714620000aa578063b977ba18146200007f5763d55c8e61146200005e57600080fd5b346200007c57806003193601126200007c5760209054604051908152f35b80fd5b50346200007c57806003193601126200007c576002546040516001600160a01b039091168152602090f35b50346200007c576102003660031901126200007c5760043567ffffffffffffffff81116200045257366023820112156200045257620000f490369060248160040135910162000764565b60643591906001600160a01b03831683036200045257608435906001600160a01b0382168203620005cc576101043560ff81168103620005c857610124359260ff84168403620005c457610144359360ff85168503620005c057610164359460ff86168603620005bc576101843567ffffffffffffffff8111620005b85762000182903690600401620007b4565b67ffffffffffffffff6101a43511620005b857620001a7366101a435600401620007b4565b67ffffffffffffffff6101e43511620005b4573660236101e435011215620005b457620001e3366101e4356004013560246101e4350162000764565b600254604051630935e01b60e21b8152336004820152919391906001600160a01b0316602082602481845afa918215620005a9578c9262000583575b50811562000509575b5015620004b95789549a60018060a01b03600154169b6040518061066f81011067ffffffffffffffff61066f83011117620004a55780620002988e9f9e9b9c9d9e61066f620008cd84396001600160a01b031661066f830190815260406020820181905260009082015260600190565b03908af580156200049a576002546001600160a01b039182169c9116958c3b1562000496578b976040519b8c9a8b9a6366a7391d60e11b8c5260048c0161022090526102248c01620002ea916200086c565b60248035908d015260448035908d01526001600160a01b0396871660648d0152951660848b015260a48035908b015260c48035908b015260e48035908b015260ff9081166101048b01529081166101248a01529081166101448901521661016487015285810360031901610184870152620003659162000893565b848103600319016101a48601526200037d9162000893565b6101c4803590850152838103600319016101e48501526200039e916200086c565b90610204830152038183875af180156200048b5762000475575b5082546000198114620004615760010183558273__$e1901b2f318a4d96da8f9740d515a2b820$__91823b156200045257620004129260405180809581946368e4f0d760e11b83526060600484015260648301906200086c565b87602483015233604483015203915af4801562000456576200043a575b602082604051908152f35b62000446839162000716565b6200045257816200042f565b5080fd5b6040513d85823e3d90fd5b634e487b7160e01b84526011600452602484fd5b620004839093919362000716565b9138620003b8565b6040513d86823e3d90fd5b8980fd5b6040513d8a823e3d90fd5b634e487b7160e01b8d52604160045260248dfd5b60405162461bcd60e51b815260206004820152602260248201527f4572726f723a2063616c6c65722069736e27742061646d696e206f72206f776e60448201526132b960f11b6064820152608490fd5b6040516317aa5fb760e11b81523360048201529150602090829060249082905afa90811562000578578b9162000542575b503862000228565b62000569915060203d60201162000570575b62000560818362000741565b8101906200082d565b386200053a565b503d62000554565b6040513d8d823e3d90fd5b620005a191925060203d602011620005705762000560818362000741565b90386200021f565b6040513d8e823e3d90fd5b8880fd5b8780fd5b8680fd5b8580fd5b8480fd5b8380fd5b8280fd5b50346200007c57806003193601126200007c576001546040516001600160a01b039091168152602090f35b82346200007c5760209182600319360112620004525761066f620006228482018362000741565b80825283820190620008cd8239600154604080516001600160a01b039283168782019081526020810183905260008184015281810392830182529294620006a493620006b1938993906200067a906060018262000741565b60405195869362000694868601998a925192839162000847565b8401915180938684019062000847565b0103808452018262000741565b5190206040518481019160ff60f81b83523060601b60218301526004356035830152605582015260558152608081019381851067ffffffffffffffff86111762000702575083604052519020168152f35b634e487b7160e01b81526041600452602490fd5b67ffffffffffffffff81116200072b57604052565b634e487b7160e01b600052604160045260246000fd5b90601f8019910116810190811067ffffffffffffffff8211176200072b57604052565b92919267ffffffffffffffff82116200072b576040519162000791601f8201601f19166020018462000741565b829481845281830111620007af578281602093846000960137010152565b600080fd5b9080601f83011215620007af5781359067ffffffffffffffff82116200072b578160051b60405193602093620007ed8584018762000741565b85528380860192820101928311620007af578301905b82821062000812575050505090565b813560ff81168103620007af57815290830190830162000803565b90816020910312620007af57518015158103620007af5790565b60005b8381106200085b5750506000910152565b81810151838201526020016200084a565b90602091620008878151809281855285808601910162000847565b601f01601f1916010190565b90815180825260208080930193019160005b828110620008b4575050505090565b835160ff1685529381019392810192600101620008a556fe608060409080825261066f80380380916100198285610350565b8339810190828183031261034b5761003081610373565b6020828101516001600160401b039391929184821161034b57019084601f8301121561034b5781519161006283610387565b9261006f88519485610350565b8084528484019685828401011161034b57868561008c93016103a2565b803b156102f9578551635c60da1b60e01b80825292916001600160a01b0316908481600481855afa9081156102ee576000916102b9575b503b1561025c577fa3f0ad74e5423aebfd80d3ef4346578335a9a72aeaee59ff6cb3582b35133d5080546001600160a01b03191682179055865192817f1cf3b03a6cf19fa2baba4df148e9dcabedea7f8a5c07840e207e5c089be95d3e600080a2825115801590610254575b610142575b87516101f690816104798239f35b6004848693819382525afa9182156102495760009261020f575b5085519360608501908111858210176101f9578652602784527f416464726573733a206c6f772d6c6576656c2064656c65676174652063616c6c83850152660819985a5b195960ca1b84870152516101e3946000918291845af4903d156101f0573d6101c781610387565b906101d488519283610350565b8152600081943d92013e6103c5565b5038808080808080610134565b606092506103c5565b634e487b7160e01b600052604160045260246000fd5b90918382813d8311610242575b6102268183610350565b8101031261023f575061023890610373565b903861015c565b80fd5b503d61021c565b86513d6000823e3d90fd5b50600061012f565b865162461bcd60e51b815260048101859052603060248201527f455243313936373a20626561636f6e20696d706c656d656e746174696f6e206960448201526f1cc81b9bdd08184818dbdb9d1c9858dd60821b6064820152608490fd5b908582813d83116102e7575b6102cf8183610350565b8101031261023f57506102e190610373565b386100c3565b503d6102c5565b88513d6000823e3d90fd5b855162461bcd60e51b815260048101849052602560248201527f455243313936373a206e657720626561636f6e206973206e6f74206120636f6e6044820152641d1c9858dd60da1b6064820152608490fd5b600080fd5b601f909101601f19168101906001600160401b038211908210176101f957604052565b51906001600160a01b038216820361034b57565b6001600160401b0381116101f957601f01601f191660200190565b60005b8381106103b55750506000910152565b81810151838201526020016103a5565b9192901561042757508151156103d9575090565b3b156103e25790565b60405162461bcd60e51b815260206004820152601d60248201527f416464726573733a2063616c6c20746f206e6f6e2d636f6e74726163740000006044820152606490fd5b82519091501561043a5750805190602001fd5b6044604051809262461bcd60e51b82526020600483015261046a81518092816024860152602086860191016103a2565b601f01601f19168101030190fdfe608080604052366100c4577fa3f0ad74e5423aebfd80d3ef4346578335a9a72aeaee59ff6cb3582b35133d5054635c60da1b60e01b8252602090829060049082906001600160a01b03165afa9081156100b857600091610060575b5061015b565b6020903d82116100b0575b601f8201601f1916810167ffffffffffffffff81118282101761009c5761009693506040520161017a565b3861005a565b634e487b7160e01b84526041600452602484fd5b3d915061006b565b6040513d6000823e3d90fd5b7fa3f0ad74e5423aebfd80d3ef4346578335a9a72aeaee59ff6cb3582b35133d5054604051635c60da1b60e01b815290602090829060049082906001600160a01b03165afa9081156100b85760009161011d575061015b565b60203d8111610154575b601f8101601f1916820167ffffffffffffffff81118382101761009c5761009693506040528101906101a1565b503d610127565b6000808092368280378136915af43d82803e15610176573d90f35b3d90fd5b602090607f19011261019c576080516001600160a01b038116810361019c5790565b600080fd5b9081602091031261019c57516001600160a01b038116810361019c579056fea26469706673582212201672897789e0811de167d78cf3c7eca4d6f9050ca351a075e7f33b3a2fbf404964736f6c63430008130033a2646970667358221220cea1fceed85632997ef705008501c72ac9c3f1d690afaf8726a8957ae1fa2e2964736f6c63430008130033",
  "linkReferences": {
    "contracts/launchpad/lib/LaunchpadLibrary.sol": {
      "LaunchpadLibrary": [
        {
          "length": 20,
          "start": 1162
        }
      ]
    }
  },
  "deployedLinkReferences": {
    "contracts/launchpad/lib/LaunchpadLibrary.sol": {
      "LaunchpadLibrary": [
        {
          "length": 20,
          "start": 973
        }
      ]
    }
  }
}