{
  "_format": "hh-sol-artifact-1",
  "contractName": "MultipadStaking",
  "sourceName": "contracts/Staking.sol",
  "abi": [
    {
      "anonymous": false,
      "inputs": [
        {
          "indexed": true,
          "internalType": "address",
          "name": "previousOwner",
          "type": "address"
        },
        {
          "indexed": true,
          "internalType": "address",
          "name": "newOwner",
          "type": "address"
        }
      ],
      "name": "OwnershipTransferred",
      "type": "event"
    },
    {
      "anonymous": false,
      "inputs": [
        {
          "indexed": false,
          "internalType": "address",
          "name": "account",
          "type": "address"
        }
      ],
      "name": "Paused",
      "type": "event"
    },
    {
      "anonymous": false,
      "inputs": [
        {
          "indexed": false,
          "internalType": "address",
          "name": "user",
          "type": "address"
        },
        {
          "indexed": false,
          "internalType": "uint256",
          "name": "amount",
          "type": "uint256"
        },
        {
          "indexed": false,
          "internalType": "enum MultipadStaking.TypePoint",
          "name": "typePoint",
          "type": "uint8"
        }
      ],
      "name": "Point",
      "type": "event"
    },
    {
      "anonymous": false,
      "inputs": [
        {
          "indexed": true,
          "internalType": "uint256",
          "name": "id",
          "type": "uint256"
        },
        {
          "indexed": true,
          "internalType": "uint8",
          "name": "tierId",
          "type": "uint8"
        },
        {
          "indexed": true,
          "internalType": "address",
          "name": "user",
          "type": "address"
        },
        {
          "indexed": false,
          "internalType": "uint256",
          "name": "amount",
          "type": "uint256"
        },
        {
          "indexed": false,
          "internalType": "uint256",
          "name": "time",
          "type": "uint256"
        }
      ],
      "name": "RewardPaid",
      "type": "event"
    },
    {
      "anonymous": false,
      "inputs": [
        {
          "indexed": true,
          "internalType": "uint8",
          "name": "id",
          "type": "uint8"
        },
        {
          "indexed": false,
          "internalType": "string",
          "name": "name",
          "type": "string"
        },
        {
          "indexed": false,
          "internalType": "address",
          "name": "stakingToken",
          "type": "address"
        },
        {
          "indexed": false,
          "internalType": "address",
          "name": "rewardsToken",
          "type": "address"
        },
        {
          "indexed": false,
          "internalType": "uint256",
          "name": "rewardRatePerYear",
          "type": "uint256"
        },
        {
          "indexed": false,
          "internalType": "uint256",
          "name": "pointMultiplier",
          "type": "uint256"
        },
        {
          "indexed": false,
          "internalType": "uint256",
          "name": "minTimeClaim",
          "type": "uint256"
        },
        {
          "indexed": false,
          "internalType": "uint256",
          "name": "duration",
          "type": "uint256"
        },
        {
          "indexed": false,
          "internalType": "uint256",
          "name": "minStake",
          "type": "uint256"
        },
        {
          "indexed": false,
          "internalType": "bool",
          "name": "status",
          "type": "bool"
        }
      ],
      "name": "StakePoolCreated",
      "type": "event"
    },
    {
      "anonymous": false,
      "inputs": [
        {
          "indexed": true,
          "internalType": "uint8",
          "name": "id",
          "type": "uint8"
        },
        {
          "indexed": false,
          "internalType": "string",
          "name": "name",
          "type": "string"
        },
        {
          "indexed": false,
          "internalType": "address",
          "name": "stakingToken",
          "type": "address"
        },
        {
          "indexed": false,
          "internalType": "address",
          "name": "rewardsToken",
          "type": "address"
        },
        {
          "indexed": false,
          "internalType": "uint256",
          "name": "rewardRatePerYear",
          "type": "uint256"
        },
        {
          "indexed": false,
          "internalType": "uint256",
          "name": "pointMultiplier",
          "type": "uint256"
        },
        {
          "indexed": false,
          "internalType": "uint256",
          "name": "minTimeClaim",
          "type": "uint256"
        },
        {
          "indexed": false,
          "internalType": "uint256",
          "name": "duration",
          "type": "uint256"
        },
        {
          "indexed": false,
          "internalType": "uint256",
          "name": "minStake",
          "type": "uint256"
        },
        {
          "indexed": false,
          "internalType": "bool",
          "name": "status",
          "type": "bool"
        }
      ],
      "name": "StakePoolEdited",
      "type": "event"
    },
    {
      "anonymous": false,
      "inputs": [
        {
          "indexed": true,
          "internalType": "uint256",
          "name": "id",
          "type": "uint256"
        },
        {
          "indexed": true,
          "internalType": "uint8",
          "name": "tierId",
          "type": "uint8"
        },
        {
          "indexed": true,
          "internalType": "address",
          "name": "user",
          "type": "address"
        },
        {
          "indexed": false,
          "internalType": "uint256",
          "name": "amount",
          "type": "uint256"
        },
        {
          "indexed": false,
          "internalType": "uint256",
          "name": "time",
          "type": "uint256"
        }
      ],
      "name": "Staked",
      "type": "event"
    },
    {
      "anonymous": false,
      "inputs": [
        {
          "indexed": false,
          "internalType": "address",
          "name": "account",
          "type": "address"
        }
      ],
      "name": "Unpaused",
      "type": "event"
    },
    {
      "anonymous": false,
      "inputs": [
        {
          "indexed": true,
          "internalType": "uint256",
          "name": "id",
          "type": "uint256"
        },
        {
          "indexed": true,
          "internalType": "uint8",
          "name": "tierId",
          "type": "uint8"
        },
        {
          "indexed": true,
          "internalType": "address",
          "name": "user",
          "type": "address"
        },
        {
          "indexed": false,
          "internalType": "uint256",
          "name": "amount",
          "type": "uint256"
        },
        {
          "indexed": false,
          "internalType": "uint256",
          "name": "time",
          "type": "uint256"
        }
      ],
      "name": "Unstaked",
      "type": "event"
    },
    {
      "inputs": [],
      "name": "SEC_PER_YEAR",
      "outputs": [
        {
          "internalType": "uint256",
          "name": "",
          "type": "uint256"
        }
      ],
      "stateMutability": "view",
      "type": "function"
    },
    {
      "inputs": [
        {
          "internalType": "address",
          "name": "",
          "type": "address"
        },
        {
          "internalType": "uint256",
          "name": "",
          "type": "uint256"
        }
      ],
      "name": "amountByIdTier",
      "outputs": [
        {
          "internalType": "uint256",
          "name": "",
          "type": "uint256"
        }
      ],
      "stateMutability": "view",
      "type": "function"
    },
    {
      "inputs": [
        {
          "internalType": "uint256",
          "name": "amount",
          "type": "uint256"
        },
        {
          "internalType": "uint256",
          "name": "rewardRatePerYear",
          "type": "uint256"
        },
        {
          "internalType": "uint256",
          "name": "timeStaked",
          "type": "uint256"
        }
      ],
      "name": "calculateReward",
      "outputs": [
        {
          "internalType": "uint256",
          "name": "",
          "type": "uint256"
        }
      ],
      "stateMutability": "pure",
      "type": "function"
    },
    {
      "inputs": [
        {
          "internalType": "uint256",
          "name": "idStake",
          "type": "uint256"
        }
      ],
      "name": "claimReward",
      "outputs": [],
      "stateMutability": "nonpayable",
      "type": "function"
    },
    {
      "inputs": [
        {
          "internalType": "string",
          "name": "_name",
          "type": "string"
        },
        {
          "internalType": "address",
          "name": "_stakingToken",
          "type": "address"
        },
        {
          "internalType": "address",
          "name": "_rewardsToken",
          "type": "address"
        },
        {
          "internalType": "uint256",
          "name": "_rewardRatePerYear",
          "type": "uint256"
        },
        {
          "internalType": "uint256",
          "name": "_pointMultiplier",
          "type": "uint256"
        },
        {
          "internalType": "uint256",
          "name": "_minTimeClaim",
          "type": "uint256"
        },
        {
          "internalType": "uint256",
          "name": "_duration",
          "type": "uint256"
        },
        {
          "internalType": "uint256",
          "name": "_minStake",
          "type": "uint256"
        },
        {
          "internalType": "bool",
          "name": "_status",
          "type": "bool"
        }
      ],
      "name": "createTier",
      "outputs": [],
      "stateMutability": "nonpayable",
      "type": "function"
    },
    {
      "inputs": [
        {
          "internalType": "address",
          "name": "user",
          "type": "address"
        }
      ],
      "name": "getCurrentReward",
      "outputs": [
        {
          "internalType": "uint256",
          "name": "",
          "type": "uint256"
        }
      ],
      "stateMutability": "view",
      "type": "function"
    },
    {
      "inputs": [
        {
          "internalType": "address",
          "name": "user",
          "type": "address"
        },
        {
          "internalType": "uint256",
          "name": "idStake",
          "type": "uint256"
        }
      ],
      "name": "getCurrentRewardByIdStake",
      "outputs": [
        {
          "internalType": "uint256",
          "name": "",
          "type": "uint256"
        }
      ],
      "stateMutability": "view",
      "type": "function"
    },
    {
      "inputs": [],
      "name": "owner",
      "outputs": [
        {
          "internalType": "address",
          "name": "",
          "type": "address"
        }
      ],
      "stateMutability": "view",
      "type": "function"
    },
    {
      "inputs": [],
      "name": "pause",
      "outputs": [],
      "stateMutability": "nonpayable",
      "type": "function"
    },
    {
      "inputs": [],
      "name": "paused",
      "outputs": [
        {
          "internalType": "bool",
          "name": "",
          "type": "bool"
        }
      ],
      "stateMutability": "view",
      "type": "function"
    },
    {
      "inputs": [],
      "name": "renounceOwnership",
      "outputs": [],
      "stateMutability": "nonpayable",
      "type": "function"
    },
    {
      "inputs": [
        {
          "internalType": "uint8",
          "name": "_idTier",
          "type": "uint8"
        },
        {
          "internalType": "string",
          "name": "_name",
          "type": "string"
        },
        {
          "internalType": "address",
          "name": "_stakingToken",
          "type": "address"
        },
        {
          "internalType": "address",
          "name": "_rewardsToken",
          "type": "address"
        },
        {
          "internalType": "uint256",
          "name": "_rewardRatePerYear",
          "type": "uint256"
        },
        {
          "internalType": "uint256",
          "name": "_pointMultiplier",
          "type": "uint256"
        },
        {
          "internalType": "uint256",
          "name": "_minTimeClaim",
          "type": "uint256"
        },
        {
          "internalType": "uint256",
          "name": "_duration",
          "type": "uint256"
        },
        {
          "internalType": "uint256",
          "name": "_minStake",
          "type": "uint256"
        },
        {
          "internalType": "bool",
          "name": "_status",
          "type": "bool"
        }
      ],
      "name": "setTierInfo",
      "outputs": [],
      "stateMutability": "nonpayable",
      "type": "function"
    },
    {
      "inputs": [
        {
          "internalType": "uint256",
          "name": "amount",
          "type": "uint256"
        },
        {
          "internalType": "uint8",
          "name": "idTier",
          "type": "uint8"
        }
      ],
      "name": "stake",
      "outputs": [],
      "stateMutability": "nonpayable",
      "type": "function"
    },
    {
      "inputs": [
        {
          "internalType": "address",
          "name": "",
          "type": "address"
        },
        {
          "internalType": "uint256",
          "name": "",
          "type": "uint256"
        }
      ],
      "name": "stakeHistory",
      "outputs": [
        {
          "internalType": "uint256",
          "name": "id",
          "type": "uint256"
        },
        {
          "internalType": "uint8",
          "name": "idTier",
          "type": "uint8"
        },
        {
          "internalType": "uint256",
          "name": "amount",
          "type": "uint256"
        },
        {
          "internalType": "uint256",
          "name": "reward",
          "type": "uint256"
        },
        {
          "internalType": "uint256",
          "name": "time",
          "type": "uint256"
        },
        {
          "internalType": "enum MultipadStaking.Status",
          "name": "status",
          "type": "uint8"
        }
      ],
      "stateMutability": "view",
      "type": "function"
    },
    {
      "inputs": [],
      "name": "tierIds",
      "outputs": [
        {
          "internalType": "uint8",
          "name": "",
          "type": "uint8"
        }
      ],
      "stateMutability": "view",
      "type": "function"
    },
    {
      "inputs": [
        {
          "internalType": "uint256",
          "name": "",
          "type": "uint256"
        }
      ],
      "name": "tiers",
      "outputs": [
        {
          "internalType": "uint8",
          "name": "id",
          "type": "uint8"
        },
        {
          "internalType": "string",
          "name": "name",
          "type": "string"
        },
        {
          "internalType": "contract IERC20",
          "name": "stakingToken",
          "type": "address"
        },
        {
          "internalType": "contract IERC20",
          "name": "rewardsToken",
          "type": "address"
        },
        {
          "internalType": "uint256",
          "name": "rewardRatePerYear",
          "type": "uint256"
        },
        {
          "internalType": "uint256",
          "name": "pointMultiplier",
          "type": "uint256"
        },
        {
          "internalType": "uint256",
          "name": "minTimeClaim",
          "type": "uint256"
        },
        {
          "internalType": "uint256",
          "name": "duration",
          "type": "uint256"
        },
        {
          "internalType": "uint256",
          "name": "minStake",
          "type": "uint256"
        },
        {
          "internalType": "uint256",
          "name": "tvl",
          "type": "uint256"
        },
        {
          "internalType": "bool",
          "name": "status",
          "type": "bool"
        }
      ],
      "stateMutability": "view",
      "type": "function"
    },
    {
      "inputs": [
        {
          "internalType": "address",
          "name": "",
          "type": "address"
        }
      ],
      "name": "totalStaked",
      "outputs": [
        {
          "internalType": "uint256",
          "name": "",
          "type": "uint256"
        }
      ],
      "stateMutability": "view",
      "type": "function"
    },
    {
      "inputs": [
        {
          "internalType": "address",
          "name": "newOwner",
          "type": "address"
        }
      ],
      "name": "transferOwnership",
      "outputs": [],
      "stateMutability": "nonpayable",
      "type": "function"
    },
    {
      "inputs": [],
      "name": "tvl",
      "outputs": [
        {
          "internalType": "uint256",
          "name": "",
          "type": "uint256"
        }
      ],
      "stateMutability": "view",
      "type": "function"
    },
    {
      "inputs": [],
      "name": "unpause",
      "outputs": [],
      "stateMutability": "nonpayable",
      "type": "function"
    },
    {
      "inputs": [
        {
          "internalType": "uint256",
          "name": "idStake",
          "type": "uint256"
        }
      ],
      "name": "unstake",
      "outputs": [],
      "stateMutability": "nonpayable",
      "type": "function"
    }
  ],
  "bytecode": "0x608060405260006002556003805460ff1916905534801561001f57600080fd5b50600160005561002e33610040565b6001805460ff60a01b19169055610092565b600180546001600160a01b038381166001600160a01b0319831681179093556040519116919082907f8be0079c531659141344cd1fd0a4f28419497f9722a3daafe3b4186f6b6457e090600090a35050565b61205f806100a16000396000f3fe608060405234801561001057600080fd5b50600436106101375760003560e01c80637dfca0c7116100b8578063ae169a501161007c578063ae169a5014610293578063b66d8252146102a6578063caccb8a9146102cb578063e5328e06146102f6578063f0f860ca146102ff578063f2fde38b1461030a57600080fd5b80637dfca0c71461022a5780638456cb591461023d5780638da5cb5b146102455780639bfd8d6114610260578063a8e62b971461028057600080fd5b806345a0aa55116100ff57806345a0aa55146101b25780634d307e3f146101d15780635c975abb146101f257806369a7f1a81461020f578063715018a61461022257600080fd5b8063039af9eb1461013c57806310087fb11461016f578063123fe878146101845780632e17de78146101975780633f4ba83a146101aa575b600080fd5b61014f61014a3660046118f5565b61031d565b6040516101669b9a99989796959493929190611954565b60405180910390f35b61018261017d3660046119dd565b610411565b005b610182610192366004611ad1565b610719565b6101826101a53660046118f5565b6108b7565b610182610d51565b6003546101bf9060ff1681565b60405160ff9091168152602001610166565b6101e46101df366004611b87565b610d63565b604051908152602001610166565b600154600160a01b900460ff166040519015158152602001610166565b61018261021d366004611ba9565b610ef8565b610182611113565b6101e4610238366004611c4d565b611125565b610182611298565b6001546040516001600160a01b039091168152602001610166565b6101e461026e366004611b87565b60066020526000908152604090205481565b6101e461028e366004611c77565b6112a8565b6101826102a13660046118f5565b6112e3565b6102b96102b4366004611c4d565b6115e9565b60405161016696959493929190611cd7565b6101e46102d9366004611c4d565b600760209081526000928352604080842090915290825290205481565b6101e460025481565b6101e46301e1338081565b610182610318366004611b87565b611645565b6004602052600090815260409020805460018201805460ff909216929161034390611d17565b80601f016020809104026020016040519081016040528092919081815260200182805461036f90611d17565b80156103bc5780601f10610391576101008083540402835291602001916103bc565b820191906000526020600020905b81548152906001019060200180831161039f57829003601f168201915b50505060028401546003850154600486015460058701546006880154600789015460088a015460098b0154600a909b0154999a6001600160a01b039788169a9690971698509396509194909391929160ff168b565b6104196116bb565b610421611708565b60ff8082166000908152600460205260409020600a01541661048a5760405162461bcd60e51b815260206004820152601a60248201527f5374616b696e6720706f6f6c206973206e6f742061637469766500000000000060448201526064015b60405180910390fd5b60ff81166000908152600460208190526040918290206002015491516323b872dd60e01b81523391810191909152306024820152604481018490526001600160a01b03909116906323b872dd906064016020604051808303816000875af11580156104f9573d6000803e3d6000fd5b505050506040513d601f19601f8201168201806040525081019061051d9190611d51565b5060ff811660009081526004602052604081206009018054849290610543908490611d84565b909155505033600090815260076020908152604080832060ff8516845290915281208054849290610575908490611d84565b90915550503360009081526005602081815260408084208054825160c08101845281815260ff8881168287019081529482018a815260608301898152426080850190815260a085018b815260018088018955978c5298909a20845160068702909101908155965187870180549190941660ff19918216179093559051600287015551600386015596516004850155935194830180549196949593949092911690838181111561062657610626611ca3565b021790555050336000908152600660205260408120805486935090919061064e908490611d84565b9250508190555082600260008282546106679190611d84565b909155505060ff82166000908152600460205260409020600501547ff58b1a794ebba4f8589d1d6d9adef42dde297bc56733f83ff399f439c7548cd59033906106b09086611d97565b60006040516106c193929190611dae565b60405180910390a160408051848152426020820152339160ff85169184917f48baed131d288d17636633994bbcae9a85bafb867269b85877569a475b8e3e8e910160405180910390a4506107156001600055565b5050565b610721611761565b604080516101608101825260ff8c811680835260208084018e81526001600160a01b038e8116868801528d166060860152608085018c905260a085018b905260c085018a905260e08501899052610100850188905260035484166000908152600480845287822060090154610120880152881515610140880152938152929091529390208251815460ff19169216919091178155915190919060018201906107c99082611e2b565b506040828101516002830180546001600160a01b039283166001600160a01b03199182161790915560608501516003850180549190931691161790556080830151600483015560a0830151600583015560c0830151600683015560e083015160078301556101008301516008830155610120830151600983015561014090920151600a909101805491151560ff199092169190911790555160ff8b16907fae7bcc11cf4aadb1615a7e8ddf30f5947fbf03f7731588f395e68f157dd6fb89906108a3908c908c908c908c908c908c908c908c908c90611eeb565b60405180910390a250505050505050505050565b6108bf6116bb565b6108c7611708565b3360009081526005602052604081208054839081106108e8576108e8611f4a565b90600052602060002090600602019050600081600201541161091c5760405162461bcd60e51b815260040161048190611f60565b6000600582015460ff16600181111561093757610937611ca3565b1461097a5760405162461bcd60e51b81526020600482015260136024820152725374616b65206973206e6f742061637469766560681b6044820152606401610481565b600181015460ff16600090815260046020819052604090912060070154908201546109a59042611fa3565b10156109ff5760405162461bcd60e51b815260206004820152602360248201527f4d696e696d756d2074696d6520746f20756e7374616b65206e6f7420726561636044820152621a195960ea1b6064820152608401610481565b6000816004015442610a119190611fa3565b6002830154600184015460ff166000908152600460208190526040808320820154905163a8e62b9760e01b815291820193909352602481019290925260448201839052919250309063a8e62b9790606401602060405180830381865afa158015610a7f573d6000803e3d6000fd5b505050506040513d601f19601f82011682018060405250810190610aa39190611fb6565b6002840154600185015460ff16600090815260046020526040812060090180549394509192610ad3908490611fa3565b90915550506002830154336000908152600760209081526040808320600188015460ff16845290915281208054909190610b0e908490611fa3565b9091555050336000908152600560205260409020805442919086908110610b3757610b37611f4a565b600091825260208083206004600690930201820193909355600186015460ff16825290915260409020600290810154908401546001600160a01b039091169063a9059cbb903390610b89908590611d84565b6040516001600160e01b031960e085901b1681526001600160a01b03909216600483015260248201526044016020604051808303816000875af1158015610bd4573d6000803e3d6000fd5b505050506040513d601f19601f82011682018060405250810190610bf89190611d51565b5033600090815260056020526040902080546001919086908110610c1e57610c1e611f4a565b60009182526020909120600560069092020101805460ff191660018381811115610c4a57610c4a611ca3565b021790555060028301543360009081526006602052604081208054909190610c73908490611fa3565b92505081905550826002015460026000828254610c909190611fa3565b90915550506001830154835460408051848152426020820152339360ff1692917f910ecab53f616e6bbb2597d4b127a92f8f7ee1026660e924b5c045177a87699c910160405180910390a4600183015460ff1660009081526004602052604090206005015460028401547ff58b1a794ebba4f8589d1d6d9adef42dde297bc56733f83ff399f439c7548cd5913391610d289190611d97565b6001604051610d3993929190611dae565b60405180910390a1505050610d4e6001600055565b50565b610d59611761565b610d616117bb565b565b600080805b6001600160a01b038416600090815260056020526040902054811015610ef1576001600160a01b0384166000908152600560205260408120805483908110610db257610db2611f4a565b9060005260206000209060060201905060008160020154118015610dee57506000600582015460ff166001811115610dec57610dec611ca3565b145b8015610e245750600480820154600183015460ff166000908152602092909252604090912060060154610e219042611fa3565b10155b15610ede576000816004015442610e3b9190611fa3565b6002830154600184015460ff166000908152600460208190526040808320820154905163a8e62b9760e01b815291820193909352602481019290925260448201839052919250309063a8e62b9790606401602060405180830381865afa158015610ea9573d6000803e3d6000fd5b505050506040513d601f19601f82011682018060405250810190610ecd9190611fb6565b9050610ed98186611d84565b945050505b5080610ee981611fcf565b915050610d68565b5092915050565b610f00611761565b6003805460ff16906000610f1383611fe8565b91906101000a81548160ff021916908360ff16021790555050604051806101600160405280600360009054906101000a900460ff1660ff1681526020018a8152602001896001600160a01b03168152602001886001600160a01b0316815260200187815260200186815260200185815260200184815260200183815260200160046000600360009054906101000a900460ff1660ff16815260200190815260200160002060090154815260200182151581525060046000600360009054906101000a900460ff1660ff16815260200190815260200160002060008201518160000160006101000a81548160ff021916908360ff16021790555060208201518160010190816110219190611e2b565b506040828101516002830180546001600160a01b03199081166001600160a01b0393841617909155606085015160038086018054909316919093161790556080840151600484015560a0840151600584015560c0840151600684015560e084015160078401556101008401516008840155610120840151600984015561014090930151600a909201805460ff1916921515929092179091559054905160ff909116907fdc1dc90eec33174bad7e1dcdfd0ea979d44a647c2a5f743de81af6047b13130590611100908c908c908c908c908c908c908c908c908c90611eeb565b60405180910390a2505050505050505050565b61111b611761565b610d616000611810565b6001600160a01b03821660009081526005602052604081208054829182918590811061115357611153611f4a565b9060005260206000209060060201905083816000015414801561117a575060008160020154115b801561119e57506000600582015460ff16600181111561119c5761119c611ca3565b145b80156111d45750600480820154600183015460ff1660009081526020929092526040909120600601546111d19042611fa3565b10155b1561128e5760008160040154426111eb9190611fa3565b6002830154600184015460ff166000908152600460208190526040808320820154905163a8e62b9760e01b815291820193909352602481019290925260448201839052919250309063a8e62b9790606401602060405180830381865afa158015611259573d6000803e3d6000fd5b505050506040513d601f19601f8201168201806040525081019061127d9190611fb6565b90506112898185611d84565b935050505b5090505b92915050565b6112a0611761565b610d61611862565b6000806112bb6301e13380612710611d97565b836112c68688611d97565b6112d09190611d97565b6112da9190612007565b95945050505050565b6112eb6116bb565b6112f3611708565b33600090815260056020526040812080548390811061131457611314611f4a565b9060005260206000209060060201905060008160020154116113485760405162461bcd60e51b815260040161048190611f60565b6000600582015460ff16600181111561136357611363611ca3565b146113a65760405162461bcd60e51b81526020600482015260136024820152725374616b65206973206e6f742061637469766560681b6044820152606401610481565b600181015460ff16600090815260046020819052604090912060060154908201546113d19042611fa3565b10156114295760405162461bcd60e51b815260206004820152602160248201527f4d696e696d756d2074696d6520746f20636c61696d206e6f74207265616368656044820152601960fa1b6064820152608401610481565b600081600401544261143b9190611fa3565b6002830154600184015460ff166000908152600460208190526040808320820154905163a8e62b9760e01b815291820193909352602481019290925260448201839052919250309063a8e62b9790606401602060405180830381865afa1580156114a9573d6000803e3d6000fd5b505050506040513d601f19601f820116820180604052508101906114cd9190611fb6565b33600090815260056020526040902080549192504291869081106114f3576114f3611f4a565b60009182526020808320600460069390930201820193909355600186015460ff1682529182905260409081902060030154905163a9059cbb60e01b81523392810192909252602482018390526001600160a01b03169063a9059cbb906044016020604051808303816000875af1158015611571573d6000803e3d6000fd5b505050506040513d601f19601f820116820180604052508101906115959190611d51565b506001830154835460408051848152426020820152339360ff1692917f014eac330d87aa935ff64d2964d9726f00732fda2d82f9e18d1116b32871bb20910160405180910390a4505050610d4e6001600055565b6005602052816000526040600020818154811061160557600080fd5b600091825260209091206006909102018054600182015460028301546003840154600485015460059095015493965060ff92831695509093909290911686565b61164d611761565b6001600160a01b0381166116b25760405162461bcd60e51b815260206004820152602660248201527f4f776e61626c653a206e6577206f776e657220697320746865207a65726f206160448201526564647265737360d01b6064820152608401610481565b610d4e81611810565b600154600160a01b900460ff1615610d615760405162461bcd60e51b815260206004820152601060248201526f14185d5cd8589b194e881c185d5cd95960821b6044820152606401610481565b60026000540361175a5760405162461bcd60e51b815260206004820152601f60248201527f5265656e7472616e637947756172643a207265656e7472616e742063616c6c006044820152606401610481565b6002600055565b6001546001600160a01b03163314610d615760405162461bcd60e51b815260206004820181905260248201527f4f776e61626c653a2063616c6c6572206973206e6f7420746865206f776e65726044820152606401610481565b6117c36118a5565b6001805460ff60a01b191690557f5db9ee0a495bf2e6ff9c91a7834c1ba4fdd244a5e8aa4e537bd38aeae4b073aa335b6040516001600160a01b03909116815260200160405180910390a1565b600180546001600160a01b038381166001600160a01b0319831681179093556040519116919082907f8be0079c531659141344cd1fd0a4f28419497f9722a3daafe3b4186f6b6457e090600090a35050565b61186a6116bb565b6001805460ff60a01b1916600160a01b1790557f62e78cea01bee320cd4e420270b5ea74000d11b0c9f74754ebdbfc544b05a2586117f33390565b600154600160a01b900460ff16610d615760405162461bcd60e51b815260206004820152601460248201527314185d5cd8589b194e881b9bdd081c185d5cd95960621b6044820152606401610481565b60006020828403121561190757600080fd5b5035919050565b6000815180845260005b8181101561193457602081850181015186830182015201611918565b506000602082860101526020601f19601f83011685010191505092915050565b600061016060ff8e1683528060208401526119718184018e61190e565b6001600160a01b039c8d1660408501529a909b16606083015250608081019790975260a087019590955260c086019390935260e08501919091526101008401526101208301521515610140909101529392505050565b803560ff811681146119d857600080fd5b919050565b600080604083850312156119f057600080fd5b82359150611a00602084016119c7565b90509250929050565b634e487b7160e01b600052604160045260246000fd5b600082601f830112611a3057600080fd5b813567ffffffffffffffff80821115611a4b57611a4b611a09565b604051601f8301601f19908116603f01168101908282118183101715611a7357611a73611a09565b81604052838152866020858801011115611a8c57600080fd5b836020870160208301376000602085830101528094505050505092915050565b80356001600160a01b03811681146119d857600080fd5b8015158114610d4e57600080fd5b6000806000806000806000806000806101408b8d031215611af157600080fd5b611afa8b6119c7565b995060208b013567ffffffffffffffff811115611b1657600080fd5b611b228d828e01611a1f565b995050611b3160408c01611aac565b9750611b3f60608c01611aac565b965060808b0135955060a08b0135945060c08b0135935060e08b013592506101008b013591506101208b0135611b7481611ac3565b809150509295989b9194979a5092959850565b600060208284031215611b9957600080fd5b611ba282611aac565b9392505050565b60008060008060008060008060006101208a8c031215611bc857600080fd5b893567ffffffffffffffff811115611bdf57600080fd5b611beb8c828d01611a1f565b995050611bfa60208b01611aac565b9750611c0860408b01611aac565b965060608a0135955060808a0135945060a08a0135935060c08a0135925060e08a013591506101008a0135611c3c81611ac3565b809150509295985092959850929598565b60008060408385031215611c6057600080fd5b611c6983611aac565b946020939093013593505050565b600080600060608486031215611c8c57600080fd5b505081359360208301359350604090920135919050565b634e487b7160e01b600052602160045260246000fd5b60028110610d4e57634e487b7160e01b600052602160045260246000fd5b600060c08201905087825260ff87166020830152856040830152846060830152836080830152611d0683611cb9565b8260a0830152979650505050505050565b600181811c90821680611d2b57607f821691505b602082108103611d4b57634e487b7160e01b600052602260045260246000fd5b50919050565b600060208284031215611d6357600080fd5b8151611ba281611ac3565b634e487b7160e01b600052601160045260246000fd5b8082018082111561129257611292611d6e565b808202811582820484141761129257611292611d6e565b6001600160a01b03841681526020810183905260608101611dce83611cb9565b826040830152949350505050565b601f821115611e2657600081815260208120601f850160051c81016020861015611e035750805b601f850160051c820191505b81811015611e2257828155600101611e0f565b5050505b505050565b815167ffffffffffffffff811115611e4557611e45611a09565b611e5981611e538454611d17565b84611ddc565b602080601f831160018114611e8e5760008415611e765750858301515b600019600386901b1c1916600185901b178555611e22565b600085815260208120601f198616915b82811015611ebd57888601518255948401946001909101908401611e9e565b5085821015611edb5787850151600019600388901b60f8161c191681555b5050505050600190811b01905550565b6000610120808352611eff8184018d61190e565b6001600160a01b039b8c16602085015299909a166040830152506060810196909652608086019490945260a085019290925260c084015260e083015215156101009091015292915050565b634e487b7160e01b600052603260045260246000fd5b60208082526023908201527f5374616b6520616d6f756e74206d75737420626520677265617465722074686160408201526206e20360ec1b606082015260800190565b8181038181111561129257611292611d6e565b600060208284031215611fc857600080fd5b5051919050565b600060018201611fe157611fe1611d6e565b5060010190565b600060ff821660ff8103611ffe57611ffe611d6e565b60010192915050565b60008261202457634e487b7160e01b600052601260045260246000fd5b50049056fea264697066735822122080c9b421777d3286afa83e938bd8c305f94c1c64dcdf409de58efdfd6350a59f64736f6c63430008130033",
  "linkReferences": {},
  "deployedLinkReferences": {}
}